:020000040800F2
:1000000000370020A9020008D14200084539000845
:10001000D13D0008252B0008975C00080000000077
:1000200000000000000000000000000085520008F1
:10003000452B000800000000DD4C0008C10200084C
:10004000C3020008C3020008C3020008C30200087C
:10005000C3020008C3020008C3020008C30200086C
:10006000C3020008C3020008C3020008C30200085C
:10007000C3020008C3020008C3020008C30200084C
:10008000C3020008C3020008C3020008C30200083C
:10009000C3020008C3020008C3020008C30200082C
:1000A000C3020008C3020008C3020008C30200081C
:1000B00089540008C3020008C3020008C3020008F4
:1000C000C3020008C3020008C3020008C3020008FC
:1000D000C3020008495800083D5900085D5A00084D
:1000E000C3020008C3020008C3020008C3020008DC
:1000F000C3020008C3020008C3020008C3020008CC
:10010000C3020008C3020008C3020008C3020008BB
:1001100039570008C3020008C30200081D55000833
:10012000C3020008C3020008C3020008C30200089B
:10013000C3020008C3020008C3020008C30200088B
:10014000C3020008C3020008C3020008C30200087B
:10015000C3020008C3020008C3020008C30200086B
:10016000C3020008C3020008C3020008C30200085B
:10017000C3020008C3020008C3020008C30200084B
:10018000C3020008C302000800F002F800F07DF886
:100190000AA090E8000C82448344AAF10107DA45E2
:1001A00001D100F072F8AFF2090EBAE80F0013F0B7
:1001B000010F18BFFB1A43F0010318471491000008
:1001C0003491000010F8013B0A4413F0030408BF07
:1001D00010F8014B1D1108BF10F8015B641E05D01B
:1001E00010F8016B641E01F8016BF9D1002D15D0D8
:1001F00010F8014B03F00C030C2BA1EB04040ABF15
:1002000010F8013BA4EB8314A4EB032405F10103D4
:1002100014F8016B5B1E01F8016BF9D5914238BFF0
:1002200010F8013BD1D3704700230024002500269D
:10023000103A28BF78C1FBD8520728BF30C148BF49
:100240000B607047642900F08181782900F0E58116
:10025000732900F05885002070471FB508F02CFA6C
:100260009DE8030000F090FC00F0DAFD040000209F
:10027000002107F0D3FF401C60600020002107F040
:10028000E3FFE0601FBD10B510BD01F086F8114618
:10029000FFF7E3FF06F0E0FC01F01AF903B4FFF703
:1002A000F2FF03BC05F0DEFE09488047094800471D
:1002B000FEE7FEE7FEE7FEE7FEE7FEE7FEE7FEE716
:1002C000FEE7FEE704480549054A064B7047000073
:1002D0002154000889010008003100200037002067
:1002E0000033002000330020704770B5064600F050
:1002F0002FFC056806F10B0020F00704B4429CBFF8
:10030000002070BD2B466A68BAB11068A04210D3B5
:1003100004F1080188423CBF5068586007D3516817
:10032000101941601168091B016058601460101DAC
:1003300070BD13465268002AE7D12146284600F0D6
:100340000FFC0028DED170BD70B50446051F00F01B
:10035000FFFB0068002C14BF446870BD002C18BF60
:10036000AC423CBF20466468F8D301680A18AA4230
:1003700018BF456003D12A6805461144016028680A
:100380004119A1421CBF6C6070BD61686960216841
:100390000844286070BD70B50D460646041F00F085
:1003A000D7FBD0F800C0C5B1E6B105F10B0020F0D5
:1003B0000703AB423CBF002070BD2068984238BFA5
:1003C000DCF8042013D3C11A08292FD3E01840F811
:1003D000041B2360FFF7B8FF28E03046FFF7B4FFA7
:1003E000002070BD2846BDE87040FFF77EBF002AA0
:1003F00018BFA2423CBF94465268F8D301199142FB
:1004000016D111680844984212D3C11A08293CBF7A
:100410002060506808D35168E01841602168126874
:100420001144C91A01602360CCF80400201D70BD7E
:10043000181FFFF75AFF050007D021680A1F211D6A
:1004400000F0B3FA201DFFF77FFF284670BD10B5FE
:10045000044600F075FB0068005DC00602D504F19B
:10046000200010BD204610BD0FB4044910B503AAEA
:10047000029800F04DFC10BC5DF814FB3C200020FD
:100480000FB41CB5084B06AA7B446946009005983A
:1004900000F00FFC04460020694600F01DFC2046D9
:1004A0001CBC5DF814FB00004D08000070B504464C
:1004B00085690068C10601D5302600E02026C00706
:1004C00007D070BDD4E9012130469047206A401C16
:1004D00020626D1EF6D570BD70B504468569007842
:1004E000C00707D170BDD4E9012120209047206AC0
:1004F000401C20626D1EF6D570BD70B50C460546D9
:10050000012A05D02878800600D5EA69002302E098
:10051000012305E05B1C934202D2E05C0028F9D184
:10052000A869E618C01AA861286A184428622846F3
:10053000FFF7BCFF04E0D5E9012114F8010B904757
:10054000B442F8D32846FFF7C7FF70BD2DE9F0414C
:100550000646002410687529314616A510D0AFF361
:100560000080002802DA404213A507E031688A07BC
:1005700001D512A502E0490704D511A5012401E027
:10058000AFF3008000210A2206F1240709E0B0FB46
:10059000F2FCB0FBF2F302FB1C003030785418463A
:1005A000491C0028F3D123462A463046BDE8F041D5
:1005B00000F020BB000000002D0000002B00000018
:1005C00020000000F0B40D460188090502D5214C39
:1005D0007C4402E01F4C7C440E34002100F12406D0
:1005E00008E002F00F071209E75D42EA03721B09F7
:1005F0007754491C52EA0307F3D10278002312070B
:1006000004D5702D06D009B1022311342246F0BC66
:1006100000F0F0BA01231034F8E770B504460D4637
:1006200021461068AFF30080024629462046BDE807
:1006300070400023C6E7D21D22F00703D3E9002350
:10064000C0E70368126843F0200303600823C36116
:100650000023B7E7288A00002DE9F05F89460446A9
:100660004FF0000ADFF874B1FB44C0F820A0204628
:10067000E1688847002874D0252806D0D4E90121F4
:100680009047206A401C2062F1E700265F46204622
:10069000E16888472028054607DB312D05D2781907
:1006A00010F8200C08B10643F1E7B00701D526F099
:1006B0000406C4F81CA00027C4F818A02A2D09D0ED
:1006C000284605F0C8FC38B304EB8708303DC8F86D
:1006D000185019E059F8041B204604EB8702916179
:1006E000E1688847012F054618D1E069002820DA23
:1006F00026F020061DE0D8F8180000EB800005EB7E
:1007000040003038C8F818002046E16888470546A0
:1007100005F0A1FC0028EED1012F0AD02E2D08D122
:100720002046E16888477F1C0546022F46F02006D8
:10073000C4DBA069002803DA404246F00106A0614C
:10074000F00701D026F010066C2D0BD0682D09D0D3
:100750004C2D39D06A2D35D0742D35D07A2D33D02B
:1007600016E038E0E1682F4620468847B842054643
:1007700009D16C2F26D04FF48060E16806432046F3
:100780008847054604E06C2F1AD04FF4807006436A
:100790000DB3A5F14100192802D8203546F40066B2
:1007A0004A462946204626604E46FFF74BFD80B15B
:1007B00001280BD0F61D26F0070000F1080956E7C6
:1007C0004020E4E78020D8E70020D6E706F10409BE
:1007D0004DE7284652E7206ABDE8F09FB88900003F
:1007E00030B505460B462A4613F8014B12F8010BAB
:1007F00008B1A042F8D01CB1002802D06D1CF1E76E
:10080000284630BD40EA0103024630B59B0710D1AF
:100810004FF0013400E008C208C91D1B9D4315EAD2
:10082000C41FF8D013F0FF0102F8011B0DD01B0A02
:10083000F8E711F8013B002B02F8013B05D011F855
:10084000013B002B02F8013BF3D130BD10B5431C36
:1008500002E010F8011B71B18107FAD14FF00132AB
:1008600002C88C1A8C4314EAC211F9D0C01A0A06C5
:1008700003D0C01E10BDC01A10BD0A0401D0801ED6
:1008800010BD0902FCD0401E10BD40EA010370B546
:100890009B072ED14FF00136042A2AD308C810C96D
:1008A0009D1B9D43121F15EAC61517D0D8B2E1B2A1
:1008B000401A50EA056110D198B2A1B2401A50EA2C
:1008C00005410AD123F07F4024F07F41401A50EACD
:1008D000052102D1180EA0EB146070BDA342DBD03D
:1008E00018BA21BA884201D9012070BD4FF0FF30FB
:1008F00070BD0AB9002070BD10F8013B11F8014B22
:1009000063B1A3420AD1521E08D010F8013B11F87E
:10091000014B1BB1A34201D1521EEDD1181B70BD7A
:10092000032A40F2308010F0030C00F0158011F81B
:10093000013BBCF1020F624498BF11F801CB00F8F3
:10094000013B38BF11F8013BA2F1040298BF00F847
:1009500001CB38BF00F8013B11F0030300F0258004
:10096000083AC0F0088051F8043B083A51F804CB2B
:10097000A0E80810F5E7121D5CBF51F8043B40F8F1
:10098000043BAFF30080D20724BF11F8013B11F8FC
:1009900001CB48BF11F8012B24BF00F8013B00F840
:1009A00001CB48BF00F8012B704710B5203AC0F0CA
:1009B0000B80B1E81850203AA0E81850B1E8185060
:1009C000A0E81850BFF4F5AF5FEA027C24BFB1E89D
:1009D0001850A0E8185044BF18C918C0BDE810400E
:1009E0005FEA827C24BF51F8043B40F8043B08BF17
:1009F0007047D20728BF31F8023B48BF11F8012BDE
:100A000028BF20F8023B48BF00F8012B704701F0D7
:100A1000FF03114601B543EA032242EA024200F015
:100A200003F801BD4FF000020429C0F0128010F05D
:100A3000030C00F01B80CCF1040CBCF1020F18BFBA
:100A400000F8012BA8BF20F8022BA1EB0C0100F04D
:100A50000DB85FEAC17C24BF00F8012B00F8012B20
:100A600048BF00F8012B70474FF0000200B5134655
:100A700094469646203922BFA0E80C50A0E80C50BE
:100A8000B1F12001BFF4F7AF090728BFA0E80C506F
:100A900048BF0CC05DF804EB890028BF40F8042B68
:100AA00008BF704748BF20F8022B11F0804F18BFD5
:100AB00000F8012B704700004FF0013C50F8042B68
:100AC00051F8043B9A4221D1A2EB0C03934313EA61
:100AD000CC1317D150F8042B51F8043B9A4215D18E
:100AE000A2EB0C03934313EACC130BD150F8042B65
:100AF00051F8043B9A4209D1A2EB0C03934313EA49
:100B0000CC13DBD04FF00000704700BFD01A01BA01
:100B1000B1FA81F101F0180122FA01F0CB40C1F1E4
:100B20002001DBB2C0B2C01A2CFA01F3D11A9143F2
:100B300011EAC311E6D17047704770477047000053
:100B400010B500F06DF9001D10BD00BFD17600009A
:100B500000487047A43000207047704770477047C6
:100B600038B504460A4600206946AFF300800028E5
:100B700008BF38BD02460099204600F055F9012013
:100B800038BD012000F002BCF8B5AFF30080054687
:100B900000200C46102000BF0646A819A0420DD91F
:100BA000324669460020AFF30080070008BF00F01E
:100BB000EDFB0098A04218BF0546C419FFF7C8FF17
:100BC00005600746F01D20F007004619284600F092
:100BD0000AF8B44208BFF8BDA21B31463868BDE828
:100BE000F84000F021B900210160C0E90110704710
:100BF000102070472DE9F0470D469946924604466D
:100C000000F124080168880604D5E06921F010018C
:100C1000216000E00120A84201DD471B00E0002721
:100C2000A1697A1902EB0900081AA0612078C006B0
:100C300002D42046FFF73AFC002608E0D4E901215F
:100C40001AF806009047206A401C761C20624E4528
:100C5000F4DB2078C0060AD52046FFF727FC06E023
:100C6000D4E9012130209047206A401C2062381EC0
:100C7000A7F10107F4DC07E0D4E9012118F8050029
:100C80009047206A401C2062281EA5F10105F3DC74
:100C90002046FFF721FC2078000602D50220BDE89F
:100CA000F0870120FBE7000001694A1C0261087817
:100CB000704700B58FB0CDE901310021059105499C
:100CC0007944CDE9031011466846FFF7C5FC0FB023
:100CD00000BD0000E5FFFFFF0A6802F8010B0A6093
:100CE000704710B5436913B1AFF3008001E0FFF71F
:100CF00004FC012010BD127800F124010A700022CA
:100D00004A700122EDE711684FF0FF32E9E7000079
:100D1000074B70B50D467B44FFF7CBFF04462846D2
:100D200000F030FB10B14FF0FF3070BD204670BDB9
:100D300083590000426842B1016811F8013B23B1B8
:100D4000521EC0E90012184670470121C160881E7A
:100D5000704742685AB1C368016843B983688B42DF
:100D600005D0491E521CC0E90012002070474FF008
:100D7000FF3070470FB4002300B589B00CA9009173
:100D80000B99CB60214B7B440693214B7B4407930B
:100D900004236FF00042CDE901321E4A7A446B46CB
:100DA00008920246002007F0F4FC09B05DF814FB3D
:100DB00070B506464FF0FF3015460C46324686B0F9
:100DC0000091CDE9010169460020049004A8FFF7D5
:100DD000D1FF02460498211825B108B1084600E069
:100DE00020462860049800280DD0002A02DD0098D3
:100DF000884208D03246081B69460094CDE90104B8
:100E000004A8FFF7B7FF06B070BD0000ABFFFFFFFF
:100E1000C3FFFFFFBD000000004870479C3000206A
:100E200000487047BC300020034640688C460028CC
:100E300018BF88423CBF03464068F8D3186818447E
:100E4000884207D00CF1030020F00700001D411A72
:100E5000521A0146081D0A60FFF776BA10B504461B
:100E6000FFF76EFE0068005D00F0010010BD3A283B
:100E700000D2303820F02002412A01D3A2F13700FD
:100E8000884201D34FF0FF30704700002DE9FF4F3B
:100E900006468BB00878FF2806D0491C2D2805D0BF
:100EA00000244FF0000908E000200CE00124F8E7DE
:100EB00009EB8903491C00EB43090878FF28F7D1A7
:100EC00014B1C9F100008146107800252C46AA46CD
:100ED00029462D2801D02B2804D1521C2D2813D0AF
:100EE000002082468B461078FF280FD04FF0000C70
:100EF0000A21521CA5FB017804FB018105FB0C11A2
:100F0000C5194BEB0104EEE70120EAE70021084692
:100F10004FF00000BAF1000F02D000EB8000400853
:100F2000C0F38157012F01DD4FF0FF370E9955EACD
:100F3000040009EB01080BD04FF0020918F5FA7F05
:100F400016DA4FEACA70002F706008DD012007E052
:100F50004FEACA70C6E900B00FB0BDE8F08F0020BC
:100F6000306000F03FFAC0F800901821084616E003
:100F7000B8F5FA7F18DD002F02DAF748784401E06F
:100F8000F6487844D0E90010C6E9001040EACA707B
:100F9000706000F027FAC0F80090142108460FB0E6
:100FA000BDE8F04F07F092BB002108464FF000006B
:100FB000B8F10001099002DAC7F1000200E03A46F8
:100FC00001DAC8F1000106A800F010FA06AB93E8B8
:100FD000070003AB83E8070044F23E005BEA04012C
:100FE0000090584604D144F21E012C465D46009103
:100FF000210C0904014306D10099240444EA154454
:101000002D041039009104F07F41014306D100996D
:10101000240244EA15642D020839009104F070415D
:10102000014306D10099240144EA15742D01091FDA
:10103000009104F04041014306D10099A40044EA24
:101040009574AD00891E009104F00041084304D15D
:1010500000986D196441401E00904FF001033A461C
:101060006846B8F1000FCDE9014503A902DD00F0A3
:1010700052FF01E000F025FFBAF1000F04460D46D3
:1010800001D084F00044002108464FF00000099987
:1010900040F2FF77484010F00C0F07D124F00040D9
:1010A000284303D0C4F30A50B84212D100F09AF991
:1010B000C0F80090C4F30A50B8420AD1A848784456
:1010C000D0E90010C6E9001004F000410843706048
:1010D00042E7C6E900543FE72DE9FF4F1F464FF0B6
:1010E000000A4FF0FF38454691B0D7E90146CDF8E8
:1010F0003CA0FFF795FEC0680168405C1090B9699C
:1011000012986D1C8847396A814688470028F6D1B5
:10111000B9F1FF3F0AD0002E24F4D06411DDB9F1FB
:101120002B0F08D0B9F12D0F0BD102E0404615B0BE
:1011300013E744F48064B96912986D1C8847761EE1
:101140008146600504A901D52D2000E02B20002E4A
:1011500001F1010B0DF130088DF810003FDDB9F100
:10116000690F08D0B9F1490F05D0B9F16E0F02D05F
:10117000B9F14E0F1CD13B4601A8009580E8500202
:10118000DDE912126FF0020007F007FBC11CCED19F
:101190000EE0B96912986D1C884781461398761E37
:1011A00044F4007405600F98401C002E0F9016DD6B
:1011B000B9F1300FEDD0B9F1780F02D0B9F1580F75
:1011C0000DD10F9801280AD13B46CDE90054DDE945
:1011D0001212001F029607F0DEFAC11CA7D1109967
:1011E00089453ED144F0800406E01399681CAAF1B9
:1011F000010A44F400740860B9696D1C1298761EE7
:10120000884730288146F0D02BE01099894505D1D8
:10121000200603D4761E44F0800418E0484604F00B
:101220001AFF08B3761E0DF123018B4544F40074B8
:1012300008D2A9F130000BF8010B200607D5AAF15E
:10124000010003E0200602D40AF101008246A00555
:1012500002D51399681C0860B96912986D1C8847FB
:101260008146002ED1DC53E0002E51DDB9F1650F2F
:1012700002D0B9F1450F4BD1A00549D5B9696D1C14
:101280001298761E24F440748847002E81460CDDA7
:101290002B2804D0B9F12D0F07D144F48074B9691B
:1012A00012986D1C8847761E8146E00501D52D21D8
:1012B00000E02B2108F8011BCDF8008021E0761E0C
:1012C0000DF13901884544F400740CD2A9F13000C5
:1012D00010F0FF0088F8000002D10099884509D974
:1012E00008F1010806E0E00501D51E4801E042F2E0
:1012F0000F708246B96912986D1C88478146139811
:101300000560002E04DD484604F0A5FE0028D6D175
:10131000F96912988847FF2053468BF8000088F837
:10132000000000200A900B9004AA0CA90AA8FFF75D
:10133000ADFDA00502D46FF00100F8E614F0240F13
:1013400012D0E0071CD13868DDE90A12031D3B60AA
:101350000068C0E9001213E0788300006A8300008F
:101360002E820000F1D8FFFF0AA9684604F060FE53
:10137000E00705D13868009A011D396000680260F5
:101380002846D4E6007B00F08000704710B500F0DE
:10139000ADF8BDE8104000F0A4B87546FFF73CFD7D
:1013A000AE4605006946534620F00700854618B052
:1013B00020B5FEF787FFBDE820404FF000064FF054
:1013C00000074FF000084FF0000B21F00701AC467A
:1013D000ACE8C009ACE8C009ACE8C009ACE8C00999
:1013E0008D467047004870479C3000202DE9F0473B
:1013F000814616468AB0354878440DC88DE80D0000
:1014000032487844801C03AC0DC884E80D0041F6D6
:101410009B300844372190FBF1F290FBF1F5A5F1E8
:10142000800501FB12041B3C02D56442012000E050
:101430000020DFF898A080460027FA44AAF1BE0AEF
:101440000EE0E0070AD03246684607EB4701012369
:101450000AEB810100F04AFD8DE8070064107F1C53
:10146000002CEED1194F7F44AE3F19E0E80715D0AC
:1014700007EB04100DF1180A90E80E008AE80E0040
:10148000C068F04201D1981908903246012306A99C
:1014900003A800F02BFD03AB83E807006D10641C6C
:1014A000002DE3D14FF0010332466946B8F1000F39
:1014B00003A802D000F0F0FC01E000F017FDC9E93C
:1014C0000001C9F808200AB0BDE8F087B87C000028
:1014D00010B50446AFF300802046BDE81040FEF78B
:1014E000DDBE002801D004F0BDBD704710B5012855
:1014F00005D0002103A000F057FA012010BD09A17A
:10150000F8E7000053494752544D454D3A204F7576
:1015100074206F662068656170206D656D6F7279EB
:10152000000000003A2048656170206D656D6F72A3
:101530007920636F727275707465640010B5FFF77F
:1015400051FF006810BD10B50446FFF74BFF046063
:1015500010BD00002DE9FF4F1F464FF03C0987B03A
:101560004FF00042DDE9141001F10108DDF858A048
:1015700002EA405003900020059083460546044649
:101580000490B969461E08988847AAF1010A02909A
:10159000BAF1000F3BDD02982E2815D01021FFF77D
:1015A00066FC00282EDB4FF0010B0599014317D094
:1015B000B9F1000F0BDB4A46C11700F00EFA0543E4
:1015C0000C43A9F1040905E0012004900BE008B1E7
:1015D00045F0010501200590049820B9361D02E070
:1015E000049800B1361FB969089808F101088847C6
:1015F000BBF1000FAAF1010A0290C9D00999C1F804
:101600000080C5E70298702808D0502806D0F969F4
:1016100008988847BBF1000F14D04FE000200290DB
:101620000120BBF1000F049009D0B969089808F1B6
:1016300001088847AAF10109B9F1000F07DCF9692F
:10164000089888476FF001000BB0BDE8F08F2B2899
:1016500004D02D280CD14FF0FF300490B9690898C0
:1016600008F101088847A9F10109B9F1000FE6DD89
:10167000411CE4D00A21FFF7FAFB0028DFDB0299C6
:1016800008F1010801EB810100EB41000290B9690A
:10169000089888470A21FFF7EAFB099AA9F101098E
:1016A000B9F1000FC2F8008001DD0028E7DAF9691E
:1016B000089888470499029800FB016655EA0400DF
:1016C00004D004F04041090002D006E0039898E0FD
:1016D000A40044EA9574AD00B61E04F00041080071
:1016E00002D16D196441761E159810F0240F03D0B5
:1016F0004FF00B095C4803E04FF028096FF07D00C4
:101700008246564507DAAAEB06018944B9F1410F32
:1017100001DD4FF0410901200021A9F1010200F093
:101720005CF9024628400B462140084301D00121C4
:1017300000E00021501E029143F1FF31284021407A
:10174000084301D0012000E000200299834651EABD
:101750000B014FD0002108464FF00000039900F420
:10176000400039B100EB80004FF4400100EBD07035
:1017700001EA60008015012802DD4FF0FF3000E033
:1017800013D0401C36D0029860B3BBF1000F0CD1CF
:101790004A460120002100F020F92840214008435A
:1017A00001D0012000E00020E0B101204A460021E4
:1017B00000F013F9034640190A4661412D1A8C4185
:1017C00011D3B9F1400F09DD159810F0240F02D0A4
:1017D000AAF1340603E0AAF1170600E0761C002502
:1017E0004FF0004406E05B1E42F1FF3220EA0305A1
:1017F00021EA0204CAF10100B04206DA1B4903984B
:1018000008430190002000900EE0039AC4F3D32116
:10181000E80A0A43164940EA44500A433146CDE9F2
:101820000002684604F00DFC159810F0240F0BD050
:101830001598C00715D13868DDE90012031D3B601B
:101840000068C0E900120CE002A8694604F0F0FB51
:101850001598C00705D13868029A011D39600068E3
:1018600002604046F0E6000002FCFFFF0000F07F4F
:101870000000F03F2DE9FF4F92461D4685B04FF026
:101880000041DDE9124BDDE914727F1E01EA4B5085
:10189000414940F0FF4940EA0108002122F02000C0
:1018A0004928049102D04E2828D04CE03BA00126C4
:1018B00007C88DE80700A9690698641C88477F1E41
:1018C000014606D41DF8060018B121F0200181421E
:1018D0000BD0E96906988847032E34D0082E32D001
:1018E0006FF0010009B0BDE8F08F761C032E01D027
:1018F000082EE0D1601CCAF80000DCE7A969069850
:10190000641C88477F1E2AD420F02000412826D15D
:10191000A9690698641C88477F1E20D420F0200007
:101920004E281CD1A9690698641C88477F1E48F47C
:10193000002849F48009CAF8004001D4282806D0BC
:10194000E969069888475FEACB7012D022E0A9695E
:101950000698641C88477F1E01D4002803DAE969D1
:1019600006988847BCE72928F1D1641CCAF80040D2
:10197000E9E71BF0240F07D028680499031D2B60AA
:101980000068C0E9001805E02868021D2A600068A8
:10199000C0F800902046A5E70000F07F494E464978
:1019A0004E4954590000000070B505460C460A2007
:1019B00000E06D1C04F057FB35B128780028F8D101
:1019C00002E0641C04F04FFB14B120780028F8D129
:1019D000BDE870400A2004F046BBB2F120030AD5EE
:1019E000C2F1200301FA02F120FA03F300FA02F037
:1019F00041EA0301704700FA03F14FF0000070471D
:101A000020F07F4C80EA030023F07F47ACEB070314
:101A100003F57C5300F0004003F1FF032DE98049FA
:101A20004FEA154B09B44FEA144325EA0B4E24EA5A
:101A300003480FF2042606EB132749083E785FEAB5
:101A4000320203FB0667C7F5000707FB06F64FEAFD
:101A500054374FEAD64606F1020607FB066CCCF176
:101A6000005C4FEA1C472CEA074C07FB06F40CFB12
:101A700006F504EB15464FEA961634BF00204FF0EA
:101A800000404FEAD13706FB07FC4FEA1C4C0CFB29
:101A90000BF7D21B03FB0CF761EB07010CFB0EF7F6
:101AA000B0EB074072EB17420CFB08F734BFA2EB18
:101AB0000742B2EB074261EB17414FEA0C444FEA91
:101AC000910706FB07FC4FEA1C4C0CFB0BF7B0EB35
:101AD000C74072EB573203FB0CF734BFA2EBC7428F
:101AE000B2EBC74261EB57310CFB0EF7B0EBC7000E
:101AF00072EB57720CFB08F734BFA2EBC702B2EBD4
:101B0000C70261EB5771039F4FEA816141EA92116D
:101B100004EBCC044FEAD1374FEA826206FB07FCA4
:101B200042EA90124FEA80604FEA1C4C0CFB0BF724
:101B3000D21B03FB0CF761EB07010CFB0EF7B0EBBC
:101B4000074072EB17420CFB08F734BFA2EB0742C9
:101B5000B2EB074261EB17414FEA8C554FEA910710
:101B600004EB9C2406FB07FC4FEA1C4C0CFB0BF718
:101B7000B0EBC74072EB573203FB0CF734BFA2EB5C
:101B8000C742B2EBC74261EB57310CFB0EF7B0EB2B
:101B9000C70072EB57720CFB08F734BFA2EBC70209
:101BA000B2EBC70261EB577115EB4C254FEA81612F
:101BB00041EA92114FEA82624FEAD13742EA90122B
:101BC00006FB07FC44F100044FEA80604FEA1C4C1E
:101BD0000CFB0BF7D21B03FB0CF761EB07010CFBB3
:101BE0000EF7B0EB074072EB17420CFB08F734BF5F
:101BF000A2EB0742B2EB074261EB174115EB1C1554
:101C00004FEA813141EA92414FEA823242EA904200
:101C10004FEA80304FEA0C7644F1000448EA03436F
:101C20004EEA0B484FF0000EB2EB080C71EB0307C5
:101C300024BF624639464EEB0E0E4FF0000B0018E3
:101C4000524149414BEB0B0BB2EB080C71EB030714
:101C50007BF1000B24BF624639464EEB0E0E4FF06F
:101C6000000B0018524149414BEB0B0BB2EB080C37
:101C700071EB03077BF1000B24BF624639464EEB44
:101C80000E0E51EA020718BF46F0010616EB0E765B
:101C900055F1000254F1000103D5BDE88901BDE80A
:101CA0000088BDE88901BDE80048B619524141EB02
:101CB0000101A3F10103704780807F7E7D7C7B7AE8
:101CC0007978777676757473727171706F6E6E6DE8
:101CD0006C6C6B6A6A69686867666665646463638E
:101CE00062616160605F5F5E5E5D5D5C5C5B5B5A14
:101CF0005A59595858575756565555555454535381
:101D000052525251515050504F4F4F4E4E4D4D4DDB
:101D10004C4C4C4B4B4B4A4A4A4949494848484726
:101D20004747474646464545454444444443434364
:101D3000434242424241414146EA0646A3F57053BE
:101D40004FEA164646EA42564FEAD22242EA41524A
:101D500010B54FEAD121A3F1010300F02FF820F0D4
:101D6000004000F1020C00F0004701EB005011466A
:101D7000BCF5006F40EA070000D210BDBAF1000FB9
:101D80000AD01CB503B44FF004004FF004014FF02B
:101D900000000FBCBDE810404FF00001BBF1010F87
:101DA000B9BF04484FF0FF310348002140EA070063
:101DB00010BD00BFFFFFEF7F0000F07F002B9C46AF
:101DC00030D477002BD01CB54FEA370703B44FF05F
:101DD00010004FF01001BAF1000F06D0BCF1000F57
:101DE000DCBF40F0080040F008014FF000000FBCDD
:101DF000BDE810400BF1010BBBF1010F08BF5FEA1A
:101E0000170722BF12F1010211F101014FF0004149
:101E100043F1000300F0004043EA00007047F9D3AB
:101E20005708D0E746EA064613F1400F4FEA164638
:101E30001FDD13F1200FDFBF16430A4600212033B8
:101E40005B42BED0C3F1200746EA064602FA07F716
:101E50004FEA164646EA0706C3F1200722FA03F2C4
:101E600001FA07F721FA03F14FF0000342EA0702F3
:101E7000A7E746EA020646EA06464FEA164646EA5B
:101E80000106BCBF46EA0646360C4FF000034FF091
:101E900000024FF0000194E72DE9804C9A469346EA
:101EA00070B491E8380007C831EA400C48BF34EA02
:101EB000430C03D5FFF7A4FDFFF780FFF0BCBDE89E
:101EC000008C2DE9804C9A46934670B491E8380016
:101ED00007C831EA400C48BF34EA430C03D5FFF78A
:101EE0008FFDFFF729FFF0BCBDE8008C2DE9804C89
:101EF0009A46934670B491E8380007C810F0804FB6
:101F000008BF13F0804F03D100F01AF8FFF756FF17
:101F1000F0BCBDE8008C2DE9804C9A46934670B425
:101F200091E8380007C810F0804F08BF13F0804FC9
:101F300003D100F005F8FFF7FFFEF0BCBDE8008C10
:101F400020F07F4780EA030023F07F4C07EB0C036F
:101F5000A3F57C5300F00040A3F1FE0392F0000FC4
:101F600000F0B38095F0000F00F077802DE9014973
:101F70004FEA11404FEA144621EA004800FB06FCF4
:101F800024EA064708FB06F607FB08F800FB07F7FC
:101F900018EB06484CEB164C4FEA124B18EB07486F
:101FA0004FEA15464CEB174022EA0B4E0BFB06FCA2
:101FB00025EA06470EFB06F607FB0EFE0BFB07F7AE
:101FC0001EEB064E4CEB164C4FF000061EEB074E78
:101FD0004CEB174B18EB0B0840F1000018EB0E0B05
:101FE00058EB000840F100008F1A4FF000013CBF91
:101FF000C943661B14BFB5EB040C00213CBFC943A9
:10200000F61B4FEA17444EEA8E0E27EA04454FEAC4
:102010001C4704FB07622CEA074C05FB07F70CFB87
:1020200005F604FB0CFC16EB074642EB174216EBD9
:102030000C4642EB1C421BEB060658EB02024141E8
:1020400046EA9E0601D5BDE80189B619524141EB29
:102050000101A3F10103BDE801894FEA14454FEAEC
:10206000114724EA054621EA074C05FB07F406FB65
:1020700007F70CFB06F105FB0CFC11EB074144EBE9
:1020800017444FEA124711EB0C4144EB1C4422EA7F
:10209000074C05FB07F206FB07F70CFB06F605FBF2
:1020A0000CFC16EB074642EB174216EB0C4642EBD4
:1020B0001C456A1854F1000148BF7047B6195241D7
:1020C00041EB0101A3F10103704795F0000F37D0F8
:1020D0004FEA11424FEA144721EA024624EA074C2C
:1020E00002FB07F106FB07F70CFB06F402FB0CFCF6
:1020F00014EB074441EB17414FEA154714EB0C442E
:1021000041EB1C4125EA074C02FB07F506FB07F7EC
:102110000CFB06F602FB0CFC16EB074645EB1745DD
:1021200016EB0C4645EB1C42121951F1000148BF59
:102130007047B619524141EB0101A3F10103704709
:102140004FEA14454FEA114724EA054621EA074CB5
:1021500005FB07F106FB07F70CFB06F24FF0000644
:1021600005FB0CFC12EB074241EB174112EB0C4252
:1021700051EB1C4148BF7047921841EB0101A3F19C
:10218000010370477FB5012502F0EAF863220321BD
:10219000082002F0E3F959220321182002F0DEF9A9
:1021A00064220321282002F0D9F965220321382076
:1021B00002F0D4F966220321482002F0CFF902226E
:1021C0000321582002F0CAF95E220321682002F0A0
:1021D000C5F9A8E003A9522001F017FD0546002D1E
:1021E000F7D15248007832287EDA01A801F0B8FC15
:1021F0004E49097801EB81014D4A02EB81004DA166
:10220000FEF73EF9002410E04849097801EB81010E
:10221000474B03EB8101891C022303FB041001A936
:102220000A5D45A1FEF72CF9641C042CECDB3F4849
:102230000078401C3D49087002F092F84FF480711C
:102240003F4801F07DFB642004F02AF84FF48071D0
:102250003B4801F073FB65220221102002F07EF959
:1022600066220221202002F079F902221146302054
:1022700002F074F95E220221402002F06FF95F2221
:102280000221502002F06AF960220221104602F079
:1022900065F926480078401E00EB8000244901EBD8
:1022A000800210230421182002F022FA4FF4FA7061
:1022B00003F0F6FF4FF4FA7003F0F2FF02F050F86B
:1022C00000220321104602F049F9012203211220C5
:1022D00002F044F91B4807235122012100902E20CF
:1022E00002F05DF8022200E00AE003215C2002F027
:1022F00035F9032211466E2002F030F9012513E072
:1023000002F02EF8102310A20221002002F0F0F9B2
:102310004FF4FA7003F0C4FF4FF4FA7003F0C0FFFB
:1023200002F01EF8012555E700BF7FBD2C000020FC
:102330007422002030780000253032580000000060
:1023400000140240882000204E6F206D6F726520BF
:102350007468616E203530206B657920636172642A
:1023600073000000F8B501240025002601F0F8FFF5
:102370001DE2052E56D2DFE806F00356B7FCFB003F
:1023800063220321202002F0E9F87022032130208B
:1023900002F0E4F815220321402002F0DFF81622B3
:1023A0000321502002F0DAF802F041FA04466CBB37
:1023B000012002F019FA0446DCB901F0D1FF152220
:1023C0000321202002F0CAF816220321302002F057
:1023D000C5F871220321402002F0C0F872220321C7
:1023E000502002F0BBF84FF4FA7003F059FF0126B9
:1023F00018E001F0B5FF204603F00CF800264FF47A
:10240000FA7003F04DFF01F0ABFF0BE001F0A8FF05
:102410000026204602F0FEFF4FF4FA7003F040FF62
:1024200001F09EFFC2E101F09BFF6322032118200F
:1024300002F094F873220321282002F08FF8702212
:102440000321382002F08AF874220321482002F088
:1024500085F875220321582002F080F84FF4FA70B5
:1024600003F01EFF02F0E3F904467CBB022002F0F9
:10247000BBF90446ECB901F073FF152203212020BB
:1024800002F06CF816220321302002F067F8712266
:102490000321402002F062F872220321502002F052
:1024A0005DF84FF4FA7003F0FBFE01F059FF0226CD
:1024B00019E001F055FF204602F0ACFF00264FF472
:1024C000FA7003F0EDFE01F04BFF0CE0FFE7012690
:1024D00001F046FF204602F09DFF4FF4FA7003F032
:1024E000DFFE01F03DFF61E101F03AFF76220321BA
:1024F000102002F033F877220321202002F02EF87A
:1025000078220321302002F029F87522032140208F
:1025100002F024F815220321502002F01FF80B22AC
:102520000321602002F01AF84FF4FA7003F0B8FEAD
:1025300002F0E2F90446ECB901F012FF7622032121
:10254000202002F00BF877220321302002F006F859
:102550005F220321402002F001F860220321502075
:1025600001F0FCFF4FF4FA7003F09AFE032627E017
:102570008DE026E001F0F4FE76220321202001F018
:10258000EDFF77220321302001F0E8FF192203211B
:10259000402001F0E3FF1A220321502001F0DEFF6A
:1025A0004FF4FA7003F07CFE01F0DAFE204602F0F0
:1025B00031FF4FF4FA7003F073FE01F0D1FE0026F4
:1025C000F4E001F0CDFE79220321102001F0C6FFD6
:1025D0005F220321202001F0C1FF152203213020BA
:1025E00001F0BCFF16220321402001F0B7FF382282
:1025F0000321502001F0B2FF39220321602001F0B5
:10260000ADFF4FF4FA7003F04BFE02F092F904466E
:102610007CBB01F0A5FE79220321002001F09EFF82
:102620005F220321102001F099FF152203212020B1
:1026300001F094FF16220321302001F08FFF382291
:102640000321402001F08AFF39220321502001F0AC
:1026500085FF5F220321602001F080FF60220321BB
:10266000702001F07BFF4FF4FA7003F019FE04268E
:102670000CE0FFE701F074FE0026204602F0CAFEDF
:102680004FF4FA7003F00CFE01F06AFE8EE001F0E8
:1026900067FE102346A20221184602F029F87A228A
:1026A0000221382001F05AFF7B220221582001F03C
:1026B00055FF102340A20421002002F019F83BE04E
:1026C00004F046F84148007820280BD03F480078B5
:1026D000422807D1002D01DD681EC5B220203B49EC
:1026E00008701BE03948007820280BD03748007864
:1026F000412807D1632D01DA681CC5B22020334977
:1027000008700BE031480078202807D02F48007867
:102710002A2803D120202D4908700EE010232CA276
:102720000621184601F0E4FF102002232A46062164
:102730000090502001F098FFC2E700BF2946022018
:1027400002F014F9044624BB01F00AFE132203210F
:10275000102001F003FF14220321202001F0FEFECF
:1027600015220321302001F0F9FE1622032140201A
:1027700001F0F4FE5F220321502001F0EFFE602201
:102780000321104601F0EAFE4FF4FA7003F088FDD1
:10279000F8BD01F0E5FD0026204602F03BFE4FF4B7
:1027A000FA7003F07DFD01F0DBFD00BF00BFE0E546
:1027B000412B422D2A0000002020303D3C2049447E
:1027C000203C3D393920202000000000442000201A
:1027D000594F55204944203D0000000010B51420F9
:1027E00002F0A0FC044604F0030018B903211420F1
:1027F00002F08BFD10BD000010B50446204603F02A
:10280000D5F807A10A4803F074FA0A2003F048FD3E
:1028100008A1074803F06DFA0A2003F041FD10BD3E
:1028200041542B4E414D4557474C57474C0D0A00DC
:102830000048004041542B52455345540D0A0000B6
:102840001CB50121202002F04BFA4FF4807000905B
:1028500001208DF8040000208DF8060003208DF87B
:10286000050000208DF807006946024800F0F2FFDD
:102870001CBD00000014024038B5934800780128C0
:1028800078D192A19448FDF7ABFF002874D001F0F5
:1028900067FD02221146202001F060FE572202212E
:1028A000302001F05BFE58220221402001F056FE4C
:1028B00059220221502001F051FE5A2204212020E9
:1028C00001F04CFE5B220421302001F047FE5C2227
:1028D0000421402001F042FE5D220421502001F03D
:1028E0003DFE4FF400417D4801F02AF87C48006825
:1028F000401C7B49086004F099FD4FF480717748D3
:1029000001F01EF8C82003F0CBFC4FF4807173482F
:1029100001F014F8002404E04FF4FA7003F0C0FC56
:10292000641C082CF8DD4FF400416C4801F006F8F7
:1029300000206C49087001F013FD002203211046AD
:1029400001F00CFE01220321122001F007FE66486F
:1029500007235122012100902E2001F020FD0222A8
:1029600003215C2001F0FAFD032211466E2001F0E4
:10297000F5FD9CE0A6E0FFE75CA15748FDF730FFBE
:1029800028B101F027FA0020564908708FE059A1BC
:102990005148FDF725FF28B1FFF7F4FB002051490E
:1029A000087084E056A14C48FDF71AFF28B100F0EA
:1029B000CBF800204B49087079E054A14648FDF758
:1029C0000FFF18B3FFF7CEFC00204649087001F056
:1029D000C7FC00220321104601F0C0FD01220321A3
:1029E000122001F0BBFD4048072351220121009035
:1029F0002E2001F0D4FC022203215C2001F0AEFD68
:102A0000032211466E2001F0A9FD50E041A1324899
:102A1000FDF7E6FE18B300F093F900203149087085
:102A200001F09EFC00220321104601F097FD0122D7
:102A30000321122001F092FD2B480723512201218E
:102A400000902E2001F0ABFC022203215C2001F05B
:102A500085FD032211466E2001F080FD27E021480C
:102A60000078401C1F4908700846007808281ED1CD
:102A70002A480068401C2949086004F0D7FC00245B
:102A800010E04FF48071154800F05AFF322003F037
:102A900007FC4FF48071114800F050FF322003F022
:102AA000FFFB641C192CECDB00200E490870002091
:102AB000054908704FF480710748FDF7B3FF002007
:102AC0001749086038BD0000140000204F70656E83
:102AD000446F6F7223000000742100200014024034
:102AE0006C21002060210020882000204D6F645060
:102AF000776423004164644B657943617264230009
:102B000044656C4B65794361726423004164645F82
:102B10004652230044656C5F46522300702100201A
:102B20001000002000BFFEE770B505460C460026E9
:102B3000284602F0F7FA064626EA0401284603F082
:102B400059F970BD7047000038B5002401F008FC49
:102B500036220021202001F001FD37220021302003
:102B600001F0FCFC02220021402001F0F7FC5E2273
:102B70000021502001F0F2FC04EB84006A4901EBD3
:102B8000800210230221182001F0B2FD102367A259
:102B90000421184601F0ACFD61220421382001F027
:102BA000DDFC62220421582001F0D8FCB8E003F0DB
:102BB000CFFD60480078202817D05E480078412873
:102BC00013D15D480078401EA0420ADD641C04EB6E
:102BD0008400554901EB800210230221182001F0E6
:102BE00087FD2020534908709AE052480078202839
:102BF00014D050480078422810D1002C0ADD641E01
:102C000004EB8400484901EB8002102302211820C4
:102C100001F06EFD20204749087081E045480078AA
:102C200020287DD0434800782A2879D1002C27DB42
:102C300041480078844223DA25460CE06A1C02EB06
:102C40008202394B03EB820105EB850203EB820024
:102C5000FDF7D8FD6D1C38480078401EA842EDDC19
:102C600035490978491E01EB81012F4A02EB8100A9
:102C70001421FDF7D7FE30480078401E2E49087019
:102C800001F06EFB36220221102001F067FC372292
:102C90000221202001F062FC02221146302001F0C6
:102CA0005DFC5E220221402001F058FC5F220221DF
:102CB000502001F053FC60220221104601F04EFC2E
:102CC00004EB8400184901EB800210230421182032
:102CD00001F00EFD4FF4FA7003F0E2FA01F040FB50
:102CE00000220321104601F039FC012203211220A9
:102CF00001F034FC114807235122012100902E20BD
:102D000001F04DFB022203215C2001F027FC03228D
:102D100011466E2001F022FC20200649087000E0D8
:102D200045E700BF38BD000074220020412B422D32
:102D30002A000000442000202C00002088200020D1
:102D4000F8B5002401F00CFB10238DA200211846D9
:102D500001F0CEFC61220021382001F0FFFB62224D
:102D60000021582001F0FAFB102387A20221184607
:102D700001F0BEFC6E220221182001F0EFFB6F2251
:102D80000221282001F0EAFB15220221382001F05F
:102D9000E5FB16220221482001F0E0FB3C22022143
:102DA000582001F0DBFB102378A20421184601F023
:102DB0009FFC7E220421202001F0D0FB7F220421F1
:102DC000302001F0CBFB0126D6E003F0C1FC7048B7
:102DD000007820280FD06E48007842280BD116B119
:102DE00001F0BEFA0026002C01DD601E84B2202016
:102DF00067490870B1E06648007820280FD0644821
:102E0000007841280BD116B101F0AAFA0026632CF4
:102E100001DA601C84B220205D4908709DE05C48A6
:102E20000078202807D05A480078442803D1202071
:102E300057490870A1E056480078202849D05448E6
:102E40000078232845D1002601F0B1FC054685BB5A
:102E500001F086FA3A220321002001F07FFB3B2299
:102E60000321102001F07AFB15220321202001F01C
:102E700075FB16220321302001F070FB3C22032158
:102E8000402001F06BFB5F220321502001F066FB24
:102E900060220321104601F061FB002704E04FF49B
:102EA000FA7003F0FDF97F1C022FF8DB01F058FAED
:102EB0000BE0FFE701F054FA284602F0ABFA4FF4BA
:102EC000FA7003F0EDF901F04BFA20203049087058
:102ED00043E02F48007820283FD02D480078432831
:102EE0003BD100260121204601F02BFC054635BBD5
:102EF00001F036FA36220321102001F02FFB372291
:102F00000321202001F02AFB15220321302001F0AB
:102F100025FB16220321402001F020FB5F22032124
:102F2000502001F01BFB60220321104601F016FB2C
:102F30004FF4FA7003F0B4F901F012FA0AE001F06C
:102F40000FFA284602F066FA4FF4FA7003F0A8F977
:102F500001F006FA20200E4908706EB910230DA268
:102F60000321202001F0C4FB10200223224603216C
:102F70000090482001F078FB27E700BFF8BD000073
:102F8000412B422D2A0000002300000044000000D5
:102F9000442000204944203D2000000010B50021BD
:102FA00008E00C2200BF131EA2F10104E2B2FAD124
:102FB0004A1C91B28142F4DB10BD000010B50446FA
:102FC000212C7DD2DFE804F011183C6590B4D8FEC6
:102FD000FDFCFBFA7C7C7C7CF9F87C7C7CF77C7CBF
:102FE000F6F5F4F3F27C7CF1F0001023FEA203214D
:102FF000382001F07DFBF1E204220321002001F0E2
:10300000ADFA05220321102001F0A8FA06220321BF
:10301000202001F0A3FA07220321302001F09EFABC
:1030200008220321402001F099FA092203215020AF
:1030300001F094FA0A220321602001F08FFACDE218
:103040000B220321002001F089FA0C220321102019
:1030500001F084FA0D220321202001F07FFA0E22D4
:103060000321302001F07AFA0F220321402001F0E1
:1030700075FA10220321502001F070FA1122032169
:10308000602001F06BFA12220321702001F066FA31
:10309000A4E213220321002001F060FA142203218C
:1030A000102001F05BFA15220321202001F056FACE
:1030B00016220321302001F051FA1722032100E0EB
:1030C00068E2402001F04AFA18220321502001F062
:1030D00045FA19220321602001F040FA1A22032147
:1030E000702001F03BFA79E215220321002001F063
:1030F00035FA16220321102001F030FA1D22032197
:10310000202001F02BFA1B220321302001F026FAA7
:103110001C220321402001F021FA1D22032150200E
:1031200001F01CFA1E220321602001F017FA55E27B
:1031300015220321002001F011FA1622032110208C
:1031400001F00CFA1D220321202001F007FA1B22B6
:103150000321302001F002FA1F220321402001F058
:10316000FDF91D220321502001F0F8F9202203214E
:10317000602001F0F3F931E215220321002001F073
:10318000EDF916220321102001F0E8F9172203219E
:10319000202001F0E3F918220321302001F0DEF9AC
:1031A0001D22032140200EE0DFE1C9E1A4E17FE11F
:1031B0005FE144E128E1FBE0D6E0B6E08CE06CE0C2
:1031C00047E02CE007E001F0C9F92122032150205B
:1031D00001F0C4F902E215220321002001F0BEF93A
:1031E00016220321102001F0B9F922220321202008
:1031F00001F0B4F923220321302001F0AFF9242299
:103200000321402001F0AAF91D220321502001F0E2
:10321000A5F925220321602001F0A0F9DEE11522A5
:103220000321002001F09AF916220321102001F059
:1032300095F926220321202001F090F9272203216D
:10324000302001F08BF928220321402001F086F97B
:10325000C4E10F220321002001F080F91022032194
:10326000104601F07BF929220321202001F076F994
:103270002A220321302001F071F92B220321402062
:1032800001F06CF915220321502001F067F9162294
:103290000321602001F062F9A0E122220321002035
:1032A00001F05CF923220321102001F057F92C22B0
:1032B0000321202001F052F92D220321302001F0BA
:1032C0004DF919220321402001F048F91A22032167
:1032D000502001F043F981E12E220321002001F06A
:1032E0003DF92F220321102001F038F9302203216B
:1032F000202001F033F931220321302001F02EF992
:1033000032220321402001F029F9332203215020E9
:1033100001F024F934220321602001F01FF9352245
:103320000321702001F01AF958E136220321102000
:1033300001F014F937220321202001F00FF938227F
:103340000321302001F00AF939220321402001F045
:1033500005F919220321502001F000F91A22032156
:10336000602001F0FBF839E13A220321002001F04E
:10337000F5F83B220321102001F0F0F8152203217B
:10338000202001F0EBF816220321302001F0E6F8AE
:103390003C220321402001F0E1F8192203215020B2
:1033A00001F0DCF81A220321602001F0D7F815E1C2
:1033B0003D220321002001F0D1F83E2203211020FC
:1033C00001F0CCF83F220321202001F0C7F8402271
:1033D0000321302001F0C2F841220321402001F0F6
:1033E000BDF81022032101E04F4B0000502001F0F6
:1033F000B5F842220321602001F0B0F81722032122
:10340000702001F0ABF8E9E043220321002001F035
:10341000A5F844220321102001F0A0F8102370A287
:103420000321202001F064F933220321482001F018
:1034300095F809220321582001F090F8CEE04522AA
:103440000321102001F08AF846220321202001F0F8
:1034500085F847220321302001F080F8092203215A
:10346000402001F07BF80A220321502001F076F879
:10347000B4E041220321102001F070F84222032120
:10348000202001F06BF848220321302001F066F87B
:1034900049220321402001F061F84A2203215020F3
:1034A00001F05CF84B220321602001F057F895E011
:1034B00048220321002001F051F849220321102065
:1034C00001F04CF84A220321202001F047F8402265
:1034D0000321302001F042F84C220321402001F06A
:1034E0003DF809220321502001F038F80A22032177
:1034F000602001F033F871E04D220321002001F03B
:103500002DF84E220321102001F028F84F2203212C
:10351000202001F023F850220321302001F01EF872
:1035200051220321402001F019F8092203215020E3
:1035300001F014F80A220321602001F00FF84DE099
:1035400015220321202001F009F816220321302042
:1035500001F004F83C220321402000F0FFFF52223A
:103560000321502000F0FAFF38E02E220321202012
:1035700000F0F4FF2F220321302000F0EFFF09229A
:103580000321402000F0EAFF0A220321502000F02E
:10359000E5FF23E053220321082000F0DFFF54223F
:1035A0000321182000F0DAFF55220321282000F023
:1035B000D5FF56220321382000F0D0FF51220321ED
:1035C000482000F0CBFF10220321582000F0C6FF56
:1035D0000A220321682000F0C1FF00BF00BF10BD18
:1035E000464C41534800000010B502F0F1FF04467C
:1035F0002CB145A0FCF738FF4FF0FF3010BD4EA0B6
:10360000FCF732FF4FF4FA7002F04AFE4FF4FA7002
:1036100002F046FE03F008F804462CB152A0FCF775
:1036200023FF6FF00100E9E755A0FCF71DFF4FF401
:10363000FA7002F035FE4FF4FA7002F031FE4FF4EA
:10364000FA7002F02DFE4FF4FA7002F029FE02F03B
:1036500061FE04462CB150A0FCF706FF6FF002009B
:10366000CCE753A0FCF700FF4FF4FA7002F018FE0D
:103670004FF4FA7002F014FE4FF4FA7002F010FEEC
:103680004FF4FA7002F00CFE002002F03FFF0446F7
:103690002CB14DA0FCF7E8FE6FF00300AEE752A09E
:1036A000FCF7E2FE4FF4FA7002F0FAFD4FF4FA7004
:1036B00002F0F6FD4FF4FA7002F0F2FD4FF4FA70EA
:1036C00002F0EEFD50A153A002F060FE04462CB1C2
:1036D00051A0FCF7C9FE6FF004008FE755A0FCF77E
:1036E000C3FE4FF4FA7002F0DBFD4FF4FA7002F003
:1036F000D7FD4FF4FA7002F0D3FD4FF4FA7002F0E8
:10370000CFFD00207AE70000657370383236365FEF
:10371000657869745F7472616E73706172656E74DE
:103720005F7472616E736D697373696F6E20666129
:10373000696C0D0A00000000657370383236365F20
:10374000657869745F7472616E73706172656E74AE
:103750005F7472616E736D697373696F6E207375D8
:1037600063636573730D0A00657370383236365FB4
:103770007265736574206661696C0D0A0000000053
:10378000657370383236365F726573657420737591
:1037900063636573730D0A00657370383236365F84
:1037A000636865636B206661696C0D0A0000000048
:1037B000657370383236365F636865636B20737586
:1037C00063636573730D0A00657370383236365F54
:1037D000656E61626C655F6563686F28302920667D
:1037E00061696C0D0A000000657370383236365F0F
:1037F000656E61626C655F6563686F2830297375FB
:1038000063636573730D0A003132333435353535F2
:103810000000000077676C00657370383236365FE1
:10382000636F6E6E6563745F6170206661696C0DB5
:103830000A000000657370383236365F636F6E6E53
:103840006563745F617020737563636573730D0ADC
:1038500000000000F0B50A4600210023002400BF4C
:103860003DE0012505FA01F3156805EA03049C42D1
:1038700034D105684F000326BE40B5430560157975
:103880004E00B5400668354305601579012D02D01C
:103890001579022D16D185684F000326BE40B54329
:1038A000856055794E00B54086683543856045682A
:1038B00001268E40B5434560456896798E40B6B284
:1038C00035434560C5684F000326BE40B543C5601B
:1038D000D5794E00B540C6683543C560491C1029EE
:1038E000BFD3F0BDF0B5002300244D07ED0E02FA62
:1038F00005F3CE1000F1200555F826504E07F70EBF
:103900000F26BE40B543CF1000F1200646F82750E1
:10391000CE1000F1200555F8265045EA0304CE10DC
:1039200000F1200545F82640F0BD0246002013694D
:103930000B400BB1012000E000207047418370472D
:103940000183704700BFFEE71CB50121102001F084
:10395000C7F900208DF8040001208DF8070000024F
:10396000009069460148FFF775FF1CBD001002403A
:103970001CB50121102001F0B3F901208DF80400DD
:1039800003208DF8050000208DF8060001208DF839
:1039900007000002009069460148FFF75BFF1CBD6D
:1039A0000010024010B5FFF7E3FF4FF480710D489F
:1039B000FFF7C6FF80210B48FFF7C2FF052002F08A
:1039C0008DFC4FF480710748FFF7B8FF052002F027
:1039D00085FC80210348FFF7B1FF052002F07EFC43
:1039E00010BD00000010024010B5FFF7C1FF4FF4FA
:1039F00080710D48FFF7A2FF80210B48FFF79EFF63
:103A0000052002F06BFC80210748FFF799FF052095
:103A100002F064FC4FF480710348FFF791FF05202A
:103A200002F05CFC10BD00000010024010B5FFF772
:103A30008BFF80211048FFF781FF052002F04EFC2C
:103A400080210D48FFF77CFF052002F047FC4FF472
:103A500080710948FFF769FF08B1002400E00124E4
:103A6000052002F03BFC80210348FFF767FF05209B
:103A700002F034FC204610BD001002407CB5054623
:103A8000EF208DF8000001208DF801001A48006831
:103A9000000E8DF8020018480068000C8DF8030035
:103AA00015480088000A8DF80400134800788DF846
:103AB000050007208DF8060000208DF807000F494B
:103AC000088012E0012002F0EBFB0C48008800F4B3
:103AD000004050B100200949088069460848FCF7B9
:103AE0007FFE04460CB120467CBD681E80B2051ED8
:103AF000E8D100BFF8E70000582000203020002067
:103B00005C2600201CB50121042001F0E9F840F2F8
:103B10001A20009000208DF804008DF80600032084
:103B20008DF8050001208DF8070069460B48FFF766
:103B300091FE4FF4F070009001208DF804000020F9
:103B40008DF8060003208DF8050000208DF8070091
:103B500069460248FFF77EFE1CBD000000080240D7
:103B60002DE9FC410446002708210846FEF7DCFF4A
:103B700080210E20FEF7D8FF00210D2002F03AF937
:103B8000932020702020607001A823460222214645
:103B900000900C2000F070F806465EB9002503E0A6
:103BA000605D4740681CC5B2042DF9DB605DB8421A
:103BB00000D0022680210E2001F0A7FB3046BDE890
:103BC000FC8110B501F024FB00F038F88D212A208B
:103BD00002F010F93E212B2002F00CF932212D20A9
:103BE00002F008F900212C2002F004F940211520F0
:103BF00002F000F93D21112002F0FCF80021012023
:103C000002F0F8F8FEF7EAFD10BD7CB506460C465A
:103C100007210D2002F0EEF8267001A823460122AC
:103C2000214600900C2000F027F805461DB9BDF88C
:103C30000400102800D0022528467CBD10B50121C3
:103C40000C48FFF77DFE0120FFF7A8F90121094884
:103C5000FFF774FE0120FFF7A1F901210548FFF7E6
:103C60006FFE0120FFF79AF90F21012002F0C2F840
:103C700010BD0000001402402DE9FE4F06468846A4
:103C800091469A46DDF830B0022002900020019063
:103C900000900C2E06D00E2E09D11220019010207B
:103CA000009005E0772001903020009000E000BFF8
:103CB00000BF019840F08001022002F09BF88021B3
:103CC0000420FEF731FF80210A2001F01EFB0021B5
:103CD000012002F08FF8002506E018F805100920F1
:103CE00002F088F8681C85B24D45F6DB31460120AC
:103CF00002F080F80C2E03D180210D2001F005FB8D
:103D000042F2107500BF042001F00CFA0446681E50
:103D100085B235B104F0010018B9009820400028A0
:103D2000F1D080210D20FEF7FFFE002D36D00620B9
:103D300001F0F8F900F01B0070BB0198204000F082
:103D4000010008B1012002900C2E22D10A2001F0BE
:103D5000E9F904460C2001F0E5F900F007072FB15E
:103D6000601E07EBC000ABF8000002E0E000ABF81B
:103D7000000004B90124122C00DD1224002506E005
:103D8000092001F0CFF90AF80500681C85B2A542A8
:103D9000F6DB0020029001E00220029080210C203E
:103DA00002F028F80021012002F024F80298BDE872
:103DB000FE8F000000BF0549098801F0400100297D
:103DC000F9D00249091D08807047000000440040F6
:103DD00000BFFEE738B510217548FCF723FE002030
:103DE0007449086000F0BCFA63220221002000F050
:103DF000B5FB68220221102000F0B0FB1422022142
:103E0000202000F0ABFB69220221302000F0A6FB4D
:103E10006A220221402000F0A1FB6B2202215020E7
:103E200000F09CFB6C220221602000F097FB6D22C9
:103E30000221702000F092FB67220421002000F094
:103E40008DFB51220421102000F088FB10235AA280
:103E50000621002000F04CFC6E220621082000F014
:103E60007DFB6F220621182000F078FB6F2353A200
:103E70000621282000F03CFC61220621382000F0B9
:103E80006DFB62220621482000F068FB01248CE0D3
:103E900002F05EFC4A480078202826D04848007886
:103EA0002A2822D04648007823281ED014B100F0DA
:103EB00057FA00243F480068102812DA40490A786F
:103EC0003C490868411C3B4B196039490A540020A1
:103ED0001A461268885410230A460221082000F06E
:103EE00007FC2020364908705FE0354800782A2812
:103EF0004BD103F09BFA00F033FA67220321102024
:103F000000F02CFB51220321202000F027FB6B2224
:103F10000321302000F022FB6C220321402000F01E
:103F20001DFB5F220321502000F018FB60220321BB
:103F3000104600F013FB4FF4FA7002F0B1F94FF4A1
:103F4000FA7002F0ADF900F00BFA002203211046DE
:103F500000F004FB01220321122000F0FFFA1948AF
:103F600007235122012100902E2000F018FA02228E
:103F700003215C2000F0F2FA032211466E2000F0CB
:103F8000EDFA20200E49087010E00D480078232833
:103F90000BD100F0E5F910210548FCF743FD0020A6
:103FA0000449086020200649087071E700BF38BD49
:103FB0001500002028000020230000002A00000037
:103FC000442000208820002010B5002440F25B72BD
:103FD0003BA147A002F042FA04462CB145A0FCF7F1
:103FE00043FA6FF0040010BD4AA0FCF73DFA4FF40D
:103FF000967002F055F902F0A3F904463CB14EA0C8
:10400000FCF732FA00BFFFF7EFFA0028FBD154A00B
:10401000FCF72AFA4FF4FA7002F042F94FF4FA7002
:1040200002F03EF94FF4FA7002F03AF94FF4FA70E8
:1040300002F036F902F08AFA04462CB153A0FCF7DC
:1040400013FA6FF00500CEE75CA0FCF70DFA4FF411
:10405000FA7002F025F94FF4FA7002F021F94FF4EA
:10406000FA7002F01DF94FF4FA7002F019F9604A83
:1040700060A1684802F068FF28B167A0FCF7F4F976
:104080006FF00600AFE76BA0FCF7EEF94FF4FA70A3
:1040900002F006F94FF4FA7002F002F90122002151
:1040A0006AA003F03DFA28B178A0FCF7DDF96FF0C3
:1040B000070098E77EA0FCF7D7F9002093E70000FF
:1040C000696F742D30367A3030693268696B6231CD
:1040D0006430382E6D7174742E696F746875622E39
:1040E000616C6979756E63732E636F6D00000000FB
:1040F00054435000657370383236365F636F6E6EAE
:104100006563745F736572766572206661696C0DB4
:104110000A000000657370383236365F636F6E6E6A
:104120006563745F7365727665722073756363652A
:1041300073730D0A00000000657370383236365F05
:10414000636865636B5F636F6E6E656374696F6EE2
:104150005F737461747573206661696C0D0A000089
:10416000657370383236365F636865636B5F636FA3
:104170006E6E656374696F6E5F73746174757320BE
:10418000737563636573730D0A000000657370389F
:104190003236365F656E7472795F7472616E7370F9
:1041A0006172656E745F7472616E736D6973736949
:1041B0006F6E206661696C0D0A00000065737038CF
:1041C0003236365F656E7472795F7472616E7370C9
:1041D0006172656E745F7472616E736D6973736919
:1041E0006F6E20737563636573730D0A00000000C2
:1041F000A4910008496E74656C6C6967656E7444BF
:104200006F6F724C6F636B266B3078316242486E11
:10421000524F7700E89100086D7174745F636F6EA0
:104220006E65637420444556494345312066616993
:104230006C0D0A006D7174745F636F6E6E656374EC
:1042400020737563636573730D0A00002F737973B0
:104250002F6B3078316242486E524F772F496E741F
:10426000656C6C6967656E74446F6F724C6F636BDD
:104270002F7468696E672F736572766963652F7036
:10428000726F70657274792F736574006D717474D8
:104290005F7375627363726962655F746F7069637F
:1042A0002044455649434531206661696C0D0A003A
:1042B0006D7174745F7375627363726962655F7444
:1042C0006F70696320737563636573730D0A000013
:1042D0007047000070B5002100230F22C4781CB382
:1042E000174C246804F4E064C4F5E064C4F30721C7
:1042F000C1F10404E3B20A4144789C40E1B28478FD
:10430000144021430C07210E0E4C057861550478AA
:1043100004F01F050124AC4005786D11AD0005F1D6
:10432000E025C5F8004109E0047804F01F050124E8
:10433000AC40054D0678761145F8264070BD00006A
:104340000CED00E000E400E080E100E00249014300
:10435000024A1160704700000000FA050CED00E011
:1043600070B5002418E004F1B000002100F0DDF980
:104370000021084600F0D9F90021102000F0D5F9FD
:10438000002505E00121002000F0CFF9681CC5B22E
:10439000802DF7DB601CC4B2082CE4DB70BD2DE976
:1043A000F05F06460F4690461C46DDF828A04FF009
:1043B000000BE11704EB5171C910A4EBC10131B935
:1043C0002046E11704EB5171C1F3C70506E0204612
:1043D000E11704EB5171C910491CCDB23D4615E0FF
:1043E0002946304600F0A6F8B1460BE059460BF1DD
:1043F000010B1AF80100012100F097F909F1010001
:1044000000F0FF09C145F1DB681CC5B2A542E7DB3E
:10441000BDE8F09F1CB50121102000F061FC0120D7
:104420008DF8040003208DF8050000208DF80600AB
:1044300001208DF807000002009069463C48FFF714
:1044400009FA8020009069463948FFF703FAC8202E
:1044500001F026FF0021AE2000F067F90021084698
:1044600000F063F90021102000F05FF900214020E6
:1044700000F05BF90021B02000F057F90021812005
:1044800000F053F90021FF2000F04FF90021A12096
:1044900000F04BF90021A62000F047F90021A820E8
:1044A00000F043F900213F2000F03FF90021C8202F
:1044B00000F03BF90021D32000F037F90021084635
:1044C00000F033F90021D52000F02FF900218020E1
:1044D00000F02BF90021D82000F027F90021052059
:1044E00000F023F90021D92000F01FF90021F1206C
:1044F00000F01BF90021DA2000F017F9002112204A
:1045000000F013F90021DB2000F00FF9002130202A
:1045100000F00BF900218D2000F007F90021142094
:1045200000F003F90021AF2000F0FFF81CBD0000EF
:104530000010024070B504460D4605F1B0000021A0
:1045400000F0F3F8102141EA1410002100F0EDF81A
:1045500004F00F00002100F0E8F870BD2DE9F041F3
:1045600080460E461546002731464046FFF7E2FFDB
:1045700000240AE0124A02EB8511085D012100F0D7
:10458000D4F8781CC7B2601CC4B2102CF2DB701CCB
:10459000C1B24046FFF7CEFF00240CE06900491C81
:1045A000074A02EB4111085D012100F0BEF8781CBA
:1045B000C7B2601CC4B2102CF0DBBDE8F081000073
:1045C0002D0000202DE9F04707460E4690469946FB
:1045D00000250024A8F12000C5B27F2F02DD0027AE
:1045E000B01CC6B2B9F1100F24D131463846FFF7DE
:1045F000A1FF002408E004EB0511194A505C0121D9
:1046000000F093F8601CC4B2082CF4DB701CC1B23B
:104610003846FFF78FFF002409E004EB051108314D
:104620000F4A505C012100F080F8601CC4B2082CD5
:10463000F3DB12E031463846FFF77CFF00240AE046
:1046400005EB4501074A02EB4101085D012100F03D
:104650006CF8601CC4B2062CF2DBBDE8F0870000E9
:10466000F6890008CE8700082DE9FF5F07469146CE
:104670001E460E9D4FF0000A002435E0301B401E00
:10468000C1B20A2003F05EF8B9FBF0F00A21B0FBDA
:10469000F1F201FB1208BAF1000F14D1701EA04212
:1046A00011DDB8F1000F0CD1AB4605EBDB71491001
:1046B00001FB0471C8B22B4620220199FFF782FF4B
:1046C00010E04FF0010AAB4605EBDB71491001FB2E
:1046D0000471C8B208F13001CAB22B460199FFF744
:1046E00071FF00BF601CC4B2B442C7DBBDE8FF9FCE
:1046F0002DE9F04104460F461546984600260FE086
:10470000AA5D434639462046FFF75CFF04F10800E6
:10471000C4B2782C02DD0024B81CC7B2701CC6B22B
:10472000A85D0028ECD1BDE8F08170B504460D46C7
:104730001DB1E0B201F048FB02E0E0B201F02EFB57
:1047400070BD2DE9F04104460D4600F0C6FD00F0B5
:104750009BFD012000F0BBFD072000F0C6FD0C20F2
:1047600000F0CDFD2012FFF725FBE0B2FFF722FBA2
:104770002812FFF71FFBE8B2FFF71CFB142000EB29
:104780002420E1B2084400EB2520E9B200EB010847
:10479000404600F093FD4FF4FA60FFF76FF90746CB
:1047A0000FB17E7A00E0FF263046BDE8F08170B59B
:1047B00000F093FD00F068FD012000F088FD03206B
:1047C00000F093FD0D2000F09AFD1126304600F018
:1047D00075FD4FF4FA60FFF751F905460DB16C7A9B
:1047E00000E0FF24204670BD2DE9F041054600F0B1
:1047F00074FD00F049FD012000F069FD042000F087
:1048000074FD022000F07BFD2846FFF7D3FAEF1D70
:10481000384600F053FD4FF4FA60FFF72FF90646D3
:104820000EB1747A00E0FF242046BDE8F08170B537
:1048300000F053FD00F028FD012000F048FD0320AA
:1048400000F053FD012000F05AFD0526304600F02F
:1048500035FD4FF4FA60FFF711F905460DB16C7A9A
:1048600000E0FF24204670BD2DE9F04781460D464B
:1048700016461F4600F031FD00F006FD012000F055
:1048800026FD082000F031FD1B2000F038FD4846D1
:10489000FFF790FA2812FFF78DFAE8B2FFF78AFACD
:1048A0003012FFF787FAF0B2FFF784FA09F124001B
:1048B00000EB2520E9B2084400EB2620F1B200EB22
:1048C000010A504600F0FAFC4FF4FA60FFF7D6F800
:1048D000044664B194F80980E07AA17A00EB0120E3
:1048E0003880607B217B00EB0120788001E04FF075
:1048F000FF084046BDE8F08770B500F0EEFC00F020
:10490000C3FC012000F0E3FC032000F0EEFC0320D8
:1049100000F0F5FC0726304600F0D0FC4FF4FA60BA
:10492000FFF7ACF805460DB16C7A00E0FF24204695
:1049300070BD70B500F0D1FC00F0A6FC012000F0C5
:10494000C6FC032000F0D1FC052000F0D8FC0926AD
:10495000304600F0B3FC4FF4FA60FFF78FF80546DD
:104960000DB16C7A00E0FF24204670BD2DE9F041C6
:1049700006460C4600F0B1FC00F086FC012000F079
:10498000A6FC062000F0B1FC062000F0B8FC304682
:10499000FFF710FA2012FFF70DFAE0B2FFF70AFA5C
:1049A00006F10D0000EB2420E1B200EB01084046C7
:1049B00000F084FC4FF4FA60FFF760F807460FB18F
:1049C0007D7A00E0FF252846BDE8F08138B5BA4879
:1049D000007820287ED0B84800782A28FAD0B64837
:1049E00000782328F6D0FFF7BBFC00251021B34840
:1049F000FCF718F80020B2490860AF490A78B049BE
:104A00000868411CAE4B1960AC490A5400201A4694
:104A10001268885410230A4602210820FFF768FE16
:104A20002020A549087043E101F092FEA2480078D9
:104A3000202827D0A04800782A2823D09E48007834
:104A400023281FD015B1FFF78BFC00259C48006878
:104A5000102813DA98490A7899490868411C984B3C
:104A6000196096490A54002194481A4612688154E4
:104A70001023024602210820FFF73AFE20208E492B
:104A8000087015E18C4800782A287AD1FFF768FC75
:104A90008C498A48FBF7A4FE002874D002221146F4
:104AA0002020FFF75BFD572202213020FFF756FD43
:104AB000582202214020FFF751FD592202215020A7
:104AC000FFF74CFD5A2204212020FFF747FD5B220F
:104AD000042100E0EFE03020FFF740FD5C220421DC
:104AE0004020FFF73BFD5D2204215020FFF736FDFB
:104AF0004FF400417448FEF723FF74480068401CDF
:104B00007249086002F092FC4FF480716E48FEF723
:104B100017FFC82001F0C4FB4FF480716A48FEF70C
:104B20000DFF002404E04FF4FA7001F0B9FB641C9F
:104B3000082CF8DD4FF400416348FEF7FFFE00202B
:104B400063490870FFF70CFC002203211046FFF7B1
:104B500005FD012203211220FFF700FD5D48072318
:104B60005122012100902E20FFF719FC022203217F
:104B70005C20FFF7F3FC032211466E20FFF7EEFCEA
:104B800064E067E0FFE7672203212020FFF7E6FCEF
:104B9000512203213020FFF7E1FC092203214020AC
:104BA000FFF7DCFC0A2203215020FFF7D7FC48481E
:104BB0000078401C464908700846007808281ED135
:104BC00045480068401C4449086002F02FFC00245E
:104BD00010E04FF480713C48FEF7B2FE322001F045
:104BE0005FFB4FF480713848FEF7A8FE322001F0D9
:104BF00057FB641C192CECDB00203549087000249D
:104C000004E04FF4FA7001F04BFB641C042CF8DB59
:104C1000FFF7A6FB002203211046FFF79FFC0122AD
:104C200003211220FFF79AFC2A4807235122012171
:104C300000902E20FFF7B3FB022203215C20FFF738
:104C40008DFC032211466E20FFF788FC20201A49B4
:104C500008702EE018480078232829D1FFF780FB40
:104C6000102117480068FBF7DDFE0020144908609A
:104C7000202011490870002203211046FFF76EFC26
:104C8000012203211220FFF769FC12480723512259
:104C9000012100902E20FFF782FB022203215C20DD
:104CA000FFF75CFC032211466E20FFF757FC01253D
:104CB000BAE600BF00BF38BD442000208A30002083
:104CC0005C21002015000020001402406C2100200F
:104CD0006021002088200020702100207047000003
:104CE00029B1064A12680243044B1A6004E0034AE1
:104CF00012688243014B1A6070470000303802404E
:104D000029B1064A12680243044B1A6004E0034AC0
:104D100012688243014B1A6070470000403802401D
:104D200029B1064A12680243044B1A6004E0034AA0
:104D300012688243014B1A607047000044380240F9
:104D4000F0B5002100220024022500260223324F64
:104D50003F6807F00C0121B1042905D0082937D19B
:104D600005E02E4F076036E02D4F076033E02A4FF5
:104D70003F1F3F68C7F38056274F3F1F3F6807F02C
:104D80003F036EB1264FB7FBF3F7DFF88CC0ACF1F1
:104D9000040CDCF800C0CCF3881C07FB0CF40CE01E
:104DA0001E4FB7FBF3F7DFF870C0ACF1040CDCF872
:104DB00000C0CCF3881C07FB0CF4174F3F1F3F6863
:104DC000C7F301477F1C7D00B4FBF5F7076002E0E5
:104DD000124F076000BF00BF0F4F3F6807F0F001A0
:104DE0000909104F7A5C0768D74047600A4F3F684F
:104DF00007F4E051890A0B4F7A5C4768D740876017
:104E0000054F3F6807F46041490B064F7A5C4768DD
:104E1000D740C760F0BD0000083802400024F4000D
:104E200000127A000000002030B587B0B04952204F
:104E3000FEF7EBFEAF4908700846007800287DD1E8
:104E4000AD48FEF78DFE1422AC4902A8FBF7ADFD7C
:104E500000240AE0A8490A5D0DF10A01022303FBC0
:104E60000410A7A1FBF70CFB641C042CF2DB00244C
:104E70008AE004EB8400A44A02EB800102A8FBF75D
:104E8000AFFC00287FD0FFF76BFA022211462020EA
:104E9000FFF764FB572202213020FFF75FFB582207
:104EA00002214020FFF75AFB592202215020FFF730
:104EB00055FB5A2204212020FFF750FB5B220421DE
:104EC0003020FFF74BFB5C2204214020FFF746FB1C
:104ED0005D2204215020FFF741FB102302AA062186
:104EE0002020FFF705FC4FF400418848FEF728FD1D
:104EF00087480068401C8649086002F097FA4FF422
:104F000080718248FEF71CFDC82001F0C9F94FF4FA
:104F100080717E48FEF712FD002504E04FF4FA7020
:104F200001F0BEF96D1C082DF8DD4FF40041774803
:104F3000FEF704FD00207749087000E0D5E0FFF798
:104F40000FFA002203211046FFF708FB012203217C
:104F50001220FFF703FB7048072351220121009024
:104F60002E20FFF71CFA022203215C20FFF7F6FA3D
:104F7000032211466E20FFF7F1FA01205D49087007
:104F800007B030BDFFE7641C644800788442FFF638
:104F900070AFFFF7E5F9022203211020FFF7DEFAD8
:104FA0005E2203212020FFF7D9FA0F2203213020AF
:104FB000FFF7D4FA102203214020FFF7CFFA652231
:104FC00003215020FFF7CAFA662203216020FFF771
:104FD000C5FA4FF4FA7001F063F9FFF7C1F9002246
:104FE00003211046FFF7BAFA012203211220FFF72E
:104FF000B5FA494807235122012100902E20FFF7DE
:10500000CEF9022203215C20FFF7A8FA0322114601
:105010006E20FFF7A3FA3F480078401C3D49087016
:105020000846007808285CD1FFF79AF9022203218C
:105030001020FFF793FA5E2203212020FFF78EFA5B
:105040000F2203213020FFF789FA1022032140208C
:10505000FFF784FA652203215020FFF77FFA6622CA
:1050600003216020FFF77AFA2D480068401C2C4984
:10507000086002F0DBF9002410E04FF4807123484F
:10508000FEF75EFC322001F00BF94FF480711F48EF
:10509000FEF754FC322001F003F9641C192CECDB00
:1050A000FFF75EF9002203211046FFF757FA0122AD
:1050B00003211220FFF752FA17480723512201213A
:1050C00000902E20FFF76BF9022203215C20FFF7EE
:1050D00045FA032211466E20FFF740FA00200D49E1
:1050E000087001200349087000BF00BF48E70000B6
:1050F000622100206121002064210020E88F000847
:1051000025303258000000007422002000140240B4
:105110006C21002060210020882000202C0000202D
:105120007021002070B504464FF400610A48FEF774
:1051300005FC7E2101EA440141F0800000F02AF8DC
:10514000FF2000F027F805464FF400610248FEF703
:10515000F7FB284670BD0000001402401CB5012179
:105160002020FFF7BDFD4FF40040009001208DF896
:10517000040000208DF8060003208DF805000020B3
:105180008DF8070069460248FEF764FB1CBD00006D
:105190000014024070B50446002500264FF48051EB
:1051A0001A48FEF7CBFB052001F098F800BF28E075
:1051B00004F0800020B110211448FEF7C1FB03E089
:1051C00010211248FEF7BAFB6006040E052001F01C
:1051D00085F84FF480510D48FEF7B2FB052001F031
:1051E0007DF86806050E04210848FEF79EFB05437E
:1051F0004FF480510548FEF7A1FB052001F06EF841
:10520000761C082ED4DB284670BD00000014024036
:105210001CB501210220FFF763FD01212020FFF7CB
:105220005FFD01208DF8040003208DF805000020AB
:105230008DF8060001208DF807000090694610489F
:10524000FEF708FB4FF48050009069460C48FEF7CB
:1052500001FB4FF40060009069460948FEF7FAFA36
:105260001020009069460648FEF7F4FA00208DF8F9
:1052700004000420009069460148FEF7EBFA1CBDCB
:10528000001402407047000010B50B490968080E71
:10529000FEF790FD08480068C0F30740FEF78AFD5E
:1052A00005480088C0F30720FEF784FD024908780E
:1052B000FEF780FD10BD00005820002010B5044608
:1052C0002012FEF777FDE0B2FEF774FD10BD10B5B9
:1052D00004462046FEF76EFD10BD10B5EF20FEF728
:1052E00069FD0120FEF766FD10BD10B50446C4F34C
:1052F0000720FEF75FFDE0B2FEF75CFD10BD10B5C4
:1053000004462046FEF756FD10BD70B505460C4616
:1053100000262846FFF706FF064646EA040128460F
:1053200000F068FD70BD00000CB5002001900090F9
:105330003448006840F480303249086000BF31488A
:10534000006800F4003000900198401C0190009823
:1053500018B90198B0F5A04FF1D12A48006800F4BF
:10536000003010B10120009001E000200090009872
:10537000012846D123484030006840F08050214940
:10538000403108602048006840F440401E490860F1
:105390001C48083000681B4908310860084600684E
:1053A00040F4004008600846006840F4A0500860DF
:1053B0001648091F0860081F006840F08070091F28
:1053C000086000BF0F48006800F000700028F9D0A6
:1053D00040F205700E4908600A480830006820F065
:1053E00003000849083108600846006840F00200E0
:1053F000086000BF03480830006800F00C0008286F
:10540000F8D10CBD0038024000700040085440073D
:10541000003C024010B504462046FDF7CFFD10BD0C
:1054200010B51548006840F470001349086013482F
:10543000006840F001001149086000200F49083160
:1054400008600E4800680E4908400C4908600D4885
:10545000091D0860081F006820F48020091F0860EB
:10546000002006490C310860FFF75EFF4FF0006036
:1054700001498039086010BD88ED00E00038024025
:10548000FFFFF6FE1030002410B50121880700F060
:105490009CF880B108480068401C0749086008462D
:1054A00000680A2803DD0020086002F01FF80121CF
:1054B000880700F07BF810BD682000201FB501218F
:1054C0000846FFF71DFC42F2CF00ADF8040047F29A
:1054D0002F5002900020ADF80C00ADF8060001A995
:1054E0004FF0804000F08EF801221146900700F046
:1054F0007DF81C208DF8000001208DF801000020AF
:105500008DF8020001208DF803006846FEF7E2FEE8
:105510000121880700F04DF81FBD000010B50121E2
:10552000094800F052F868B10848008840F400408B
:10553000064908800121044800F038F8002102489B
:1055400000F037F810BD00000014004030200020AB
:105550007FB504460D4601212020FFF7D1FBADF8B1
:10556000005001940020ADF80800ADF80200694633
:105570000D4800F047F837208DF80C0000208DF81A
:105580000D0001208DF80E008DF80F0003A8FEF726
:10559000A1FE01221146044800F028F8012102482A
:1055A00000F007F87FBD000000140040CA430282EB
:1055B000704721B1028842F00102028004E00288B3
:1055C0004FF6FE731A400280704730B50246002045
:1055D00000230024158A05EA0103958905EA0104E0
:1055E00013B10CB1012000E0002030BD1AB1838955
:1055F0000B43838102E083898B438381704741623F
:105600007047000000220288184B98420ED0184BB9
:1056100098420BD0B0F1804F08D0164B984205D07D
:10562000154B984202D0154B984204D14FF68F7318
:105630001A404B881A43124B984207D0114B98429C
:1056400004D04FF6FF431A400B891A4302804B687F
:10565000C3620B880385054B984202D0044B9842E5
:1056600001D18B7A038601238382704700000140B9
:10567000000401400004004000080040000C00400D
:10568000001000400014004010B588B0044601210D
:105690000420FFF725FB0121C804FFF731FB082296
:1056A0000A212348FEF71EF908220B212048FEF7A5
:1056B00019F902208DF8080003208DF80900002058
:1056C0008DF80A0001208DF80B004FF44060019026
:1056D00001A91748FEF7BEF804940020ADF81400A5
:1056E000ADF81600ADF81800ADF81C000C20ADF8B0
:1056F0001A0004A90F4800F05BFA34208DF80C0062
:1057000000208DF80D008DF80E0001208DF80F009F
:1057100003A8FEF7DFFD012240F22551054800F005
:1057200022FA0121034800F0DBF908B010BD0000A7
:1057300000080240004C004010B540F225511148CD
:1057400000F0E7F9B8B10F4800F09CFA0E49087074
:105750000A780E490868411C0C4B19600C490A5420
:1057600018460068B0F5007F05D300201946086090
:1057700001200849087040F22551024800F0A1F9C3
:1057800010BD0000004C00403820002034200020D4
:105790007C2C00203920002010B588B0044601215F
:1057A0000846FFF79DFA01211020FFF7B9FA0722FA
:1057B00009212348FEF796F807220A212048FEF720
:1057C00091F802208DF8080003208DF809000020D0
:1057D0008DF80A0001208DF80B004FF4C060019095
:1057E00001A91748FEF736F804940020ADF814001C
:1057F000ADF81600ADF81800ADF81C000C20ADF89F
:105800001A0004A90F4800F0D3F925208DF80C00E8
:1058100000208DF80D008DF80E0001208DF80F008E
:1058200003A8FEF757FD012240F22551054800F07C
:105830009AF90121034800F053F908B010BD0000A7
:10584000000002400010014010B5002440F2255134
:10585000064800F05EF9012807D1044800F012FA6A
:10586000C4B22146014800F012FA10BD00100140F8
:1058700010B588B0044601210846FFF731FA01212E
:105880004804FFF73DFA072202212848FEF72AF8CC
:10589000072203212548FEF725F802208DF808008D
:1058A00003208DF8090000208DF80A0001208DF8F2
:1058B0000B000C20019001A91C48FDF7CBFF0494BC
:1058C0000020ADF81400ADF81600ADF81800ADF8E2
:1058D0001C000C20ADF81A0004A9154800F068F966
:1058E00026208DF80C0000208DF80D008DF80E009C
:1058F00001208DF80F0003A8FEF7ECFC012240F216
:1059000025510B4800F02FF90121094800F0E8F873
:1059100042F2CF016320FFF71BFE002005490880FB
:1059200000210548FFF745FE08B010BD0000024009
:1059300000440040302000200014004010B540F228
:105940002551164800F0E5F8F8B1144800F09AF92E
:10595000C4B21348008800F40040B0B91048008871
:10596000B0F5C87F12DA00210E48FFF748FE0C4858
:10597000008818B901210B48FFF71BFE0849088869
:10598000411C074A118008490C5405E0044800886E
:1059900040F400400249088010BD0000004400406F
:1059A00030200020001400405C26002010B588B094
:1059B000044601210220FFF793F901218804FFF733
:1059C0009FF907220A212348FDF78CFF07220B21AC
:1059D0002048FDF787FF02208DF8080003208DF88E
:1059E000090000208DF80A0001208DF80B004FF40B
:1059F0004060019001A91748FDF72CFF0494002096
:105A0000ADF81400ADF81600ADF81800ADF81C00A4
:105A10000C20ADF81A0004A90F4800F0C9F827209F
:105A20008DF80C0000208DF80D008DF80E0001207F
:105A30008DF80F0003A8FEF74DFC012240F225511E
:105A4000054800F090F80121034800F049F808B03B
:105A500010BD0000000402400048004010B540F2B4
:105A600025510F4800F055F8012818D10D4800685D
:105A7000FF2814DC0A4800F005F9C1B2094804689F
:105A8000601C084A10600848015510460068401E16
:105A90000549085C232802D101200449087010BD83
:105AA0000048004010000020742100201400002055
:105AB00001F40072B2F5007F00D100BFCA4302803A
:105AC000704710B50022002340F66A14A14200D1AD
:105AD00000BF0A1201249440A3B2DC43048010BD2D
