:020000040800F2
:1000000048640120610300085D440008793A000853
:100010005D3F00083D2C00080F5F00080000000055
:10002000000000000000000000000000A90200081D
:100030005D2C000800000000FD020008CD550008FE
:100040007B0300087B0300087B0300087B03000898
:100050007B0300087B0300087B0300087B03000888
:100060007B0300087B0300087B0300087B03000878
:100070007B0300087B0300087B0300087B03000868
:100080007B0300087B0300087B0300087B03000858
:100090007B0300087B0300087B0300087B03000848
:1000A0007B0300087B0300087B0300087B03000838
:1000B000695600087B0300087B0300087B030008E7
:1000C0007B0300087B0300087B0300087B03000818
:1000D0007B030008C15A0008B55B0008D55C000826
:1000E0007B0300087B0300087B0300087B030008F8
:1000F0007B0300087B0300087B0300087B030008E8
:100100007B0300087B0300087B0300087B030008D7
:10011000B15900087B03000859570008955700089B
:100120007B0300087B0300087B0300087B030008B7
:100130007B0300087B0300087B0300087B030008A7
:100140007B0300087B0300087B0300087B03000897
:100150007B0300087B0300087B0300087B03000887
:100160007B0300087B0300087B0300087B03000877
:100170007B0300087B0300087B0300087B03000867
:100180007B0300087B03000800F002F800F07DF814
:100190000AA090E8000C82448344AAF10107DA45E2
:1001A00001D100F072F8AFF2090EBAE80F0013F0B7
:1001B000010F18BFFB1A43F001031847B4A1000058
:1001C000D4A1000010F8013B0A4413F0030408BF57
:1001D00010F8014B1D1108BF10F8015B641E05D01B
:1001E00010F8016B641E01F8016BF9D1002D15D0D8
:1001F00010F8014B03F00C030C2BA1EB04040ABF15
:1002000010F8013BA4EB8314A4EB032405F10103D4
:1002100014F8016B5B1E01F8016BF9D5914238BFF0
:1002200010F8013BD1D3704700230024002500269D
:10023000103A28BF78C1FBD8520728BF30C148BF49
:100240000B607047642900F0DD81782900F041825D
:10025000732900F0BC85002070471FB509F07CFAB7
:100260009DE8030000F0F4FC00F03EFE04000020D6
:10027000002109F023F8401C60600020002109F0F3
:1002800033F8E0601FBD10B510BD01F0EAF811466B
:10029000FFF7E3FF06F014FE01F07EF903B4FFF769
:1002A000F2FF03BC06F01AF82A4B19680868B0E898
:1002B000F04F80F30988BFF36F8F4FF0000080F399
:1002C000118870470000000006480068006880F34D
:1002D000088862B661B6BFF34F8FBFF36F8F00DF40
:1002E00000BF00BF08ED00E0DFF80C00016841F43A
:1002F00070010160704700BF88ED00E0EFF30980F6
:10030000BFF36F8F134B1A681EF0100F08BF20ED5C
:10031000108A20E9F04F106008B44FF0500080F3CD
:100320001188BFF34F8FBFF36F8F08F08DFD4FF033
:10033000000080F3118808BC19680868B0E8F04F25
:100340001EF0100F08BFB0EC108A80F30988BFF3CD
:100350006F8F704798210020EFF3058070470000F1
:100360000948804709480047FEE7FEE7FEE7FEE749
:10037000FEE7FEE7FEE7FEE7FEE7FEE70448054985
:10038000054A064B70470000015600088901000825
:10039000485E012048640120486001204860012037
:1003A000704770B5064600F037FC056806F10B0093
:1003B00020F00704B4429CBF002070BD2B466A6841
:1003C000BAB11068A04210D304F1080188423CBFC2
:1003D0005068586007D35168101941601168091BB3
:1003E000016058601460101D70BD13465268002AE9
:1003F000E7D12146284600F017FC0028DED170BD69
:1004000070B50446051F00F007FC0068002C14BFFF
:10041000446870BD002C18BFAC423CBF20466468E5
:10042000F8D301680A18AA4218BF456003D12A68A8
:1004300005461144016028684119A1421CBF6C6047
:1004400070BD6168696021680844286070BD70B53E
:100450000D460646041F00F0DFFBD0F800C0C5B112
:10046000E6B105F10B0020F00703AB423CBF0020D2
:1004700070BD2068984238BFDCF8042013D3C11A3D
:1004800008292FD3E01840F8041B2360FFF7B8FFBA
:1004900028E03046FFF7B4FF002070BD2846BDE8D5
:1004A0007040FFF77EBF002A18BFA2423CBF9446AF
:1004B0005268F8D30119914216D111680844984244
:1004C00012D3C11A08293CBF2060506808D3516874
:1004D000E0184160216812681144C91A0160236064
:1004E000CCF80400201D70BD181FFFF75AFF05004F
:1004F00007D021680A1F211D00F0B3FA201DFFF765
:100500007FFF284670BD10B5044600F07DFB0068F3
:10051000005DC00602D504F1200010BD204610BDCC
:100520000FB4044910B503AA029800F055FC10BCA2
:100530005DF814FB882000200FB41CB5084B06AAF8
:100540007B4469460090059800F017FC04460020A3
:10055000694600F025FC20461CBC5DF814FB000039
:100560005D08000070B5044685690068C10601D5C4
:10057000302600E02026C00707D070BDD4E9012155
:1005800030469047206A401C20626D1EF6D570BD33
:1005900070B5044685690078C00707D170BDD4E9FD
:1005A000012120209047206A401C20626D1EF6D554
:1005B00070BD70B50C460546012A05D02878800626
:1005C00000D5EA69002302E0012305E05B1C9342A9
:1005D00002D2E05C0028F9D1A869E618C01AA86127
:1005E000286A184428622846FFF7BCFF04E0D5E9D2
:1005F000012114F8010B9047B442F8D32846FFF7C5
:10060000C7FF70BD2DE9F04106460024106875292A
:10061000314616A510D0AFF30080002802DA404220
:1006200013A507E031688A0701D512A502E0490742
:1006300004D511A5012401E0AFF3008000210A22B6
:1006400006F1240709E0B0FBF2FCB0FBF2F302FB79
:100650001C00303078541846491C0028F3D123463A
:100660002A463046BDE8F04100F028BB00000000FB
:100670002D0000002B00000020000000F0B40D460B
:100680000188090502D5214C7C4402E01F4C7C44C2
:100690000E34002100F1240608E002F00F071209D1
:1006A000E75D42EA03721B097754491C52EA0307CB
:1006B000F3D102780023120704D5702D06D009B1BA
:1006C000022311342246F0BC00F0F8BA01231034A2
:1006D000F8E770B504460D4621461068AFF3008078
:1006E000024629462046BDE870400023C6E7D21DD9
:1006F00022F00703D3E90023C0E70368126843F040
:10070000200303600823C3610023B7E7109A0000A9
:100710002DE9F05F894604464FF0000ADFF874B116
:10072000FB44C0F820A02046E1688847002874D028
:10073000252806D0D4E901219047206A401C206278
:10074000F1E700265F462046E168884720280546F5
:1007500007DB312D05D2781910F8200C08B10643BB
:10076000F1E7B00701D526F00406C4F81CA0002765
:10077000C4F818A02A2D09D0284605F0A8FD38B3E2
:1007800004EB8708303DC8F8185019E059F8041BED
:10079000204604EB87029161E1688847012F0546F6
:1007A00018D1E069002820DA26F020061DE0D8F8EC
:1007B000180000EB800005EB40003038C8F8180046
:1007C0002046E1688847054605F081FD0028EED106
:1007D000012F0AD02E2D08D12046E16888477F1CC2
:1007E0000546022F46F02006C4DBA069002803DA84
:1007F000404246F00106A061F00701D026F0100645
:100800006C2D0BD0682D09D04C2D39D06A2D35D0E8
:10081000742D35D07A2D33D016E038E0E1682F46BC
:1008200020468847B842054609D16C2F26D04FF4A0
:100830008060E168064320468847054604E06C2F47
:100840001AD04FF4807006430DB3A5F1410019286A
:1008500002D8203546F400664A46294620462660DE
:100860004E46FFF7EFFC80B101280BD0F61D26F0B5
:10087000070000F1080956E74020E4E78020D8E7A8
:100880000020D6E706F104094DE7284652E7206A22
:10089000BDE8F09FA099000030B505460B462A46FA
:1008A00013F8014B12F8010B08B1A042F8D01CB1AB
:1008B000002802D06D1CF1E7284630BD40EA010354
:1008C000024630B59B0710D14FF0013400E008C25A
:1008D00008C91D1B9D4315EAC41FF8D013F0FF0182
:1008E00002F8011B0DD01B0AF8E711F8013B002BA1
:1008F00002F8013B05D011F8013B002B02F8013B47
:10090000F3D130BD10B5431C02E010F8011B71B1EA
:100910008107FAD14FF0013202C88C1A8C4314EAD5
:10092000C211F9D0C01A0A0603D0C01E10BDC01AE9
:1009300010BD0A0401D0801E10BD0902FCD0401E6B
:1009400010BD40EA010370B59B072ED14FF0013670
:10095000042A2AD308C810C99D1B9D43121F15EAFB
:10096000C61517D0D8B2E1B2401A50EA056110D1CD
:1009700098B2A1B2401A50EA05410AD123F07F4053
:1009800024F07F41401A50EA052102D1180EA0EB55
:10099000146070BDA342DBD018BA21BA884201D9D5
:1009A000012070BD4FF0FF3070BD0AB9002070BD4E
:1009B00010F8013B11F8014B63B1A3420AD1521E5A
:1009C00008D010F8013B11F8014B1BB1A34201D133
:1009D000521EEDD1181B70BD032A40F2308010F07A
:1009E000030C00F0158011F8013BBCF1020F6244CA
:1009F00098BF11F801CB00F8013B38BF11F8013B5B
:100A0000A2F1040298BF00F801CB38BF00F8013B07
:100A100011F0030300F02580083AC0F0088051F877
:100A2000043B083A51F804CBA0E80810F5E7121D82
:100A30005CBF51F8043B40F8043BAFF30080D207A1
:100A400024BF11F8013B11F801CB48BF11F8012B6D
:100A500024BF00F8013B00F801CB48BF00F8012B90
:100A6000704710B5203AC0F00B80B1E81850203A1A
:100A7000A0E81850B1E81850A0E81850BFF4F5AF3E
:100A80005FEA027C24BFB1E81850A0E8185044BFC8
:100A900018C918C0BDE810405FEA827C24BF51F835
:100AA000043B40F8043B08BF7047D20728BF31F829
:100AB000023B48BF11F8012B28BF20F8023B48BF7A
:100AC00000F8012B704701F0FF03114601B543EA1E
:100AD000032242EA024200F00BF801BD02F0FF03DC
:100AE00043EA032242EA024200F002B84FF0000259
:100AF0000429C0F0128010F0030C00F01B80CCF130
:100B0000040CBCF1020F18BF00F8012BA8BF20F89D
:100B1000022BA1EB0C0100F00DB85FEAC17C24BFF1
:100B200000F8012B00F8012B48BF00F8012B70479B
:100B30004FF0000200B5134694469646203922BF76
:100B4000A0E80C50A0E80C50B1F12001BFF4F7AFC1
:100B5000090728BFA0E80C5048BF0CC05DF804EBA3
:100B6000890028BF40F8042B08BF704748BF20F811
:100B7000022B11F0804F18BF00F8012B70470000C6
:100B80004FF0013C50F8042B51F8043B9A4221D11C
:100B9000A2EB0C03934313EACC1317D150F8042BA8
:100BA00051F8043B9A4215D1A2EB0C03934313EA8C
:100BB000CC130BD150F8042B51F8043B9A4209D1C5
:100BC000A2EB0C03934313EACC13DBD04FF00000ED
:100BD000704700BFD01A01BAB1FA81F101F01801D3
:100BE00022FA01F0CB40C1F12001DBB2C0B2C01A41
:100BF0002CFA01F3D11A914311EAC311E6D17047DF
:100C0000704770477047000010B500F06DF9001D87
:100C100010BD00BFA986000000487047F05D0120AC
:100C2000704770477047704738B504460A46002041
:100C30006946AFF30080002808BF38BD024600991E
:100C4000204600F055F9012038BD012000F002BC1B
:100C5000F8B5AFF30080054600200C46102000BF19
:100C60000646A819A0420DD9324669460020AFF3C6
:100C70000080070008BF00F0EDFB0098A04218BFFD
:100C80000546C419FFF7C8FF05600746F01D20F0B0
:100C900007004619284600F00AF8B44208BFF8BD1C
:100CA000A21B31463868BDE8F84000F021B90021A8
:100CB0000160C0E901107047102070472DE9F0472E
:100CC0000D4699469246044600F1240801688806BC
:100CD00004D5E06921F01001216000E00120A84264
:100CE00001DD471B00E00027A1697A1902EB09002A
:100CF000081AA0612078C00602D42046FFF732FC13
:100D0000002608E0D4E901211AF806009047206A7D
:100D1000401C761C20624E45F4DB2078C0060AD5C4
:100D20002046FFF71FFC06E0D4E901213020904760
:100D3000206A401C2062381EA7F10107F4DC07E09E
:100D4000D4E9012118F805009047206A401C206270
:100D5000281EA5F10105F3DC2046FFF719FC2078D9
:100D6000000602D50220BDE8F0870120FBE7000065
:100D700001694A1C02610878704700B58FB0CDE95F
:100D800001310021059105497944CDE9031011464F
:100D90006846FFF7BDFC0FB000BD0000E5FFFFFF98
:100DA0000A6802F8010B0A60704710B5436913B175
:100DB000AFF3008001E0FFF7FCFB012010BD1278CB
:100DC00000F124010A7000224A700122EDE7116847
:100DD0004FF0FF32E9E70000074B70B50D467B444A
:100DE000FFF7CBFF0446284600F030FB10B14FF070
:100DF000FF3070BD204670BD1F5B0000426842B1ED
:100E0000016811F8013B23B1521EC0E900121846D7
:100E100070470121C160881E704742685AB1C3689B
:100E2000016843B983688B4205D0491E521CC0E952
:100E30000012002070474FF0FF3070470FB40023BE
:100E400000B589B00CA900910B99CB60214B7B4474
:100E50000693214B7B44079304236FF00042CDE9B6
:100E600001321E4A7A446B4608920246002008F07E
:100E7000E0FC09B05DF814FB70B506464FF0FF309A
:100E800015460C46324686B00091CDE9010169460F
:100E90000020049004A8FFF7D1FF0246049821180F
:100EA00025B108B1084600E02046286004980028D3
:100EB0000DD0002A02DD0098884208D03246081B77
:100EC00069460094CDE9010404A8FFF7B7FF06B016
:100ED00070BD0000ABFFFFFFC3FFFFFFBD000000C0
:100EE00000487047E85D012000487047085E012017
:100EF000034640688C46002818BF88423CBF034622
:100F00004068F8D318681844884207D00CF10300F1
:100F100020F00700001D411A521A0146081D0A6000
:100F2000FFF76EBA10B50446FFF76EFE0068005D6D
:100F300000F0010010BD3A2800D2303820F0200225
:100F4000412A01D3A2F13700884201D34FF0FF308C
:100F5000704700002DE9FF4F06468BB00878FF2848
:100F600006D0491C2D2805D000244FF0000908E0C8
:100F700000200CE00124F8E709EB8903491C00EB91
:100F800043090878FF28F7D114B1C9F10000814660
:100F9000107800252C46AA4629462D2801D02B285A
:100FA00004D1521C2D2813D0002082468B46107885
:100FB000FF280FD04FF0000C0A21521CA5FB01782E
:100FC00004FB018105FB0C11C5194BEB0104EEE795
:100FD0000120EAE7002108464FF00000BAF1000FB7
:100FE00002D000EB80004008C0F38157012F01DDE3
:100FF0004FF0FF370E9955EA040009EB01080BD0BA
:101000004FF0020918F5FA7F16DA4FEACA70002F7E
:10101000706008DD012007E04FEACA70C6E900B041
:101020000FB0BDE8F08F0020306000F03FFAC0F84C
:1010300000901821084616E0B8F5FA7F18DD002F59
:1010400002DAF748784401E0F6487844D0E9001025
:10105000C6E9001040EACA70706000F027FAC0F8D4
:101060000090142108460FB0BDE8F04F08F07EBB99
:10107000002108464FF00000B8F10001099002DAA3
:10108000C7F1000200E03A4601DAC8F1000106A803
:1010900000F010FA06AB93E8070003AB83E8070003
:1010A00044F23E005BEA04010090584604D144F249
:1010B0001E012C465D460091210C0904014306D116
:1010C0000099240444EA15442D041039009104F0D9
:1010D0007F41014306D10099240244EA15642D02A0
:1010E0000839009104F07041014306D100992401B0
:1010F00044EA15742D01091F009104F04041014399
:1011000006D10099A40044EA9574AD00891E0091AF
:1011100004F00041084304D100986D196441401E59
:1011200000904FF001033A466846B8F1000FCDE950
:10113000014503A902DD00F052FF01E000F025FFA8
:10114000BAF1000F04460D4601D084F0004400219E
:1011500008464FF00000099940F2FF77484010F030
:101160000C0F07D124F00040284303D0C4F30A50E9
:10117000B84212D100F09AF9C0F80090C4F30A50B6
:10118000B8420AD1A8487844D0E90010C6E9001056
:1011900004F000410843706042E7C6E900543FE7AD
:1011A0002DE9FF4F1F464FF0000A4FF0FF3845462C
:1011B00091B0D7E90146CDF83CA0FFF795FEC06895
:1011C0000168405C1090B96912986D1C8847396AB3
:1011D000814688470028F6D1B9F1FF3F0AD0002E9A
:1011E00024F4D06411DDB9F12B0F08D0B9F12D0F23
:1011F0000BD102E0404615B013E744F48064B969AE
:1012000012986D1C8847761E8146600504A901D599
:101210002D2000E02B20002E01F1010B0DF13008F4
:101220008DF810003FDDB9F1690F08D0B9F1490F11
:1012300005D0B9F16E0F02D0B9F14E0F1CD13B466B
:1012400001A8009580E85002DDE912126FF002005B
:1012500008F0F3FAC11CCED10EE0B96912986D1CEA
:10126000884781461398761E44F4007405600F98F1
:10127000401C002E0F9016DDB9F1300FEDD0B9F102
:10128000780F02D0B9F1580F0DD10F9801280AD16B
:101290003B46CDE90054DDE91212001F029608F02A
:1012A000CAFAC11CA7D1109989453ED144F08004E7
:1012B00006E01399681CAAF1010A44F4007408605E
:1012C000B9696D1C1298761E884730288146F0D087
:1012D0002BE01099894505D1200603D4761E44F0F1
:1012E000800418E0484604F0F2FF08B3761E0DF1C2
:1012F00023018B4544F4007408D2A9F130000BF8A7
:10130000010B200607D5AAF1010003E0200602D454
:101310000AF101008246A00502D51399681C0860F5
:10132000B96912986D1C88478146002ED1DC53E0C4
:10133000002E51DDB9F1650F02D0B9F1450F4BD147
:10134000A00549D5B9696D1C1298761E24F4407425
:101350008847002E81460CDD2B2804D0B9F12D0FD3
:1013600007D144F48074B96912986D1C8847761EC1
:101370008146E00501D52D2100E02B2108F8011B55
:10138000CDF8008021E0761E0DF13901884544F446
:1013900000740CD2A9F1300010F0FF0088F80000B2
:1013A00002D10099884509D908F1010806E0E00555
:1013B00001D51E4801E042F20F708246B9691298C9
:1013C0006D1C8847814613980560002E04DD484651
:1013D00004F07DFF0028D6D1F96912988847FF20D4
:1013E00053468BF8000088F8000000200A900B900C
:1013F00004AA0CA90AA8FFF7ADFDA00502D46FF05E
:101400000100F8E614F0240F12D0E0071CD1386870
:10141000DDE90A12031D3B600068C0E9001213E019
:10142000509300004293000006920000F1D8FFFFA5
:101430000AA9684604F038FFE00705D13868009A29
:10144000011D3960006802602846D4E6007B00F088
:101450008000704710B500F0ADF8BDE8104000F016
:10146000A4B87546FFF73CFDAE46050069465346F5
:1014700020F00700854618B020B5FEF77FFFBDE8D5
:1014800020404FF000064FF000074FF000084FF0EB
:10149000000B21F00701AC46ACE8C009ACE8C0097C
:1014A000ACE8C009ACE8C0098D46704700487047F9
:1014B000E85D01202DE9F047814616468AB035489F
:1014C00078440DC88DE80D0032487844801C03AC88
:1014D0000DC884E80D0041F69B300844372190FB8D
:1014E000F1F290FBF1F5A5F1800501FB12041B3C24
:1014F00002D56442012000E00020DFF898A0804679
:101500000027FA44AAF1BE0A0EE0E0070AD03246EC
:10151000684607EB470101230AEB810100F04AFD11
:101520008DE8070064107F1C002CEED1194F7F441A
:10153000AE3F19E0E80715D007EB04100DF1180ACB
:1015400090E80E008AE80E00C068F04201D19819B8
:1015500008903246012306A903A800F02BFD03AB37
:1015600083E807006D10641C002DE3D14FF00103E8
:1015700032466946B8F1000F03A802D000F0F0FC33
:1015800001E000F017FDC9E90001C9F808200AB020
:10159000BDE8F087908C000010B50446AFF30080E2
:1015A0002046BDE81040FEF779BE002801D004F0C7
:1015B00095BE704710B5012805D0002103A000F0AA
:1015C00057FA012010BD09A1F8E70000534947521E
:1015D000544D454D3A204F7574206F662068656103
:1015E00070206D656D6F7279000000003A204865CB
:1015F0006170206D656D6F727920636F72727570A6
:101600007465640010B5FFF751FF006810BD10B598
:101610000446FFF74BFF046010BD00002DE9FF4FAB
:101620001F464FF03C0987B04FF00042DDE914102F
:1016300001F10108DDF858A002EA405003900020B3
:1016400005908346054604460490B969461E0898ED
:101650008847AAF1010A0290BAF1000F3BDD029817
:101660002E2815D01021FFF766FC00282EDB4FF046
:10167000010B0599014317D0B9F1000F0BDB4A4666
:10168000C11700F00EFA05430C43A9F1040905E067
:10169000012004900BE008B145F001050120059000
:1016A000049820B9361D02E0049800B1361FB969CC
:1016B000089808F101088847BBF1000FAAF1010A58
:1016C0000290C9D00999C1F80080C5E70298702836
:1016D00008D0502806D0F96908988847BBF1000F58
:1016E00014D04FE0002002900120BBF1000F0490C5
:1016F00009D0B969089808F101088847AAF10109D9
:10170000B9F1000F07DCF969089888476FF001000C
:101710000BB0BDE8F08F2B2804D02D280CD14FF052
:10172000FF300490B969089808F101088847A9F1C9
:101730000109B9F1000FE6DD411CE4D00A21FFF7F1
:10174000FAFB0028DFDB029908F1010801EB8101B7
:1017500000EB41000290B969089888470A21FFF719
:10176000EAFB099AA9F10109B9F1000FC2F800805A
:1017700001DD0028E7DAF96908988847049902989A
:1017800000FB016655EA040004D004F04041090062
:1017900002D006E0039898E0A40044EA9574AD00F6
:1017A000B61E04F00041080002D16D196441761E96
:1017B000159810F0240F03D04FF00B095C4803E09C
:1017C0004FF028096FF07D008246564507DAAAEBF4
:1017D00006018944B9F1410F01DD4FF041090120B3
:1017E0000021A9F1010200F05CF9024628400B46F5
:1017F0002140084301D0012100E00021501E029148
:1018000043F1FF3128402140084301D0012000E08E
:1018100000200299834651EA0B014FD0002108466F
:101820004FF00000039900F4400039B100EB800054
:101830004FF4400100EBD07001EA600080150128F0
:1018400002DD4FF0FF3000E013D0401C36D002988C
:1018500060B3BBF1000F0CD14A460120002100F01B
:1018600020F928402140084301D0012000E0002059
:10187000E0B101204A46002100F013F90346401967
:101880000A4661412D1A8C4111D3B9F1400F09DD8F
:10189000159810F0240F02D0AAF1340603E0AAF143
:1018A000170600E0761C00254FF0004406E05B1EA2
:1018B00042F1FF3220EA030521EA0204CAF10100E5
:1018C000B04206DA1B4903980843019000200090BB
:1018D0000EE0039AC4F3D321E80A0A43164940EA0A
:1018E00044500A433146CDE90002684604F0E5FC65
:1018F000159810F0240F0BD01598C00715D1386833
:10190000DDE90012031D3B600068C0E900120CE035
:1019100002A8694604F0C8FC1598C00705D13868CC
:10192000029A011D3960006802604046F0E600003E
:1019300002FCFFFF0000F07F0000F03F2DE9FF4FA9
:1019400092461D4685B04FF00041DDE9124BDDE9BE
:1019500014727F1E01EA4B50414940F0FF4940EAB2
:101960000108002122F020004928049102D04E28CD
:1019700028D04CE03BA0012607C88DE80700A969E4
:101980000698641C88477F1E014606D41DF8060091
:1019900018B121F0200181420BD0E96906988847EF
:1019A000032E34D0082E32D06FF0010009B0BDE80C
:1019B000F08F761C032E01D0082EE0D1601CCAF8EF
:1019C0000000DCE7A9690698641C88477F1E2AD4BA
:1019D00020F02000412826D1A9690698641C884778
:1019E0007F1E20D420F020004E281CD1A969069823
:1019F000641C88477F1E48F4002849F48009CAF80F
:101A0000004001D4282806D0E969069888475FEA93
:101A1000CB7012D022E0A9690698641C88477F1E0B
:101A200001D4002803DAE96906988847BCE7292829
:101A3000F1D1641CCAF80040E9E71BF0240F07D07D
:101A400028680499031D2B600068C0E9001805E0B0
:101A50002868021D2A600068C0F800902046A5E7AB
:101A60000000F07F494E46494E495459000000009D
:101A700070B505460C460A2000E06D1C04F02FFCF2
:101A800035B128780028F8D102E0641C04F027FC66
:101A900014B120780028F8D1BDE870400A2004F085
:101AA0001EBCB2F120030AD5C2F1200301FA02F1F3
:101AB00020FA03F300FA02F041EA0301704700FA4A
:101AC00003F14FF00000704720F07F4C80EA0300E4
:101AD00023F07F47ACEB070303F57C5300F0004095
:101AE00003F1FF032DE980494FEA154B09B44FEA92
:101AF000144325EA0B4E24EA03480FF2042606EBB2
:101B0000132749083E785FEA320203FB0667C7F5F0
:101B1000000707FB06F64FEA54374FEAD64606F1B0
:101B2000020607FB066CCCF1005C4FEA1C472CEA6E
:101B3000074C07FB06F40CFB06F504EB15464FEAD1
:101B4000961634BF00204FF000404FEAD13706FB15
:101B500007FC4FEA1C4C0CFB0BF7D21B03FB0CF7EA
:101B600061EB07010CFB0EF7B0EB074072EB17427D
:101B70000CFB08F734BFA2EB0742B2EB074261EB64
:101B800017414FEA0C444FEA910706FB07FC4FEA66
:101B90001C4C0CFB0BF7B0EBC74072EB573203FB4E
:101BA0000CF734BFA2EBC742B2EBC74261EB57312F
:101BB0000CFB0EF7B0EBC70072EB57720CFB08F78B
:101BC00034BFA2EBC702B2EBC70261EB5771039FB0
:101BD0004FEA816141EA921104EBCC044FEAD1371C
:101BE0004FEA826206FB07FC42EA90124FEA8060ED
:101BF0004FEA1C4C0CFB0BF7D21B03FB0CF761EB01
:101C000007010CFB0EF7B0EB074072EB17420CFB21
:101C100008F734BFA2EB0742B2EB074261EB174172
:101C20004FEA8C554FEA910704EB9C2406FB07FC16
:101C30004FEA1C4C0CFB0BF7B0EBC74072EB573272
:101C400003FB0CF734BFA2EBC742B2EBC74261EB18
:101C500057310CFB0EF7B0EBC70072EB57720CFB61
:101C600008F734BFA2EBC702B2EBC70261EB5771B2
:101C700015EB4C254FEA816141EA92114FEA8262ED
:101C80004FEAD13742EA901206FB07FC44F1000408
:101C90004FEA80604FEA1C4C0CFB0BF7D21B03FB96
:101CA0000CF761EB07010CFB0EF7B0EB074072EB92
:101CB00017420CFB08F734BFA2EB0742B2EB074216
:101CC00061EB174115EB1C154FEA813141EA924156
:101CD0004FEA823242EA90424FEA80304FEA0C7675
:101CE00044F1000448EA03434EEA0B484FF0000E6B
:101CF000B2EB080C71EB030724BF624639464EEB8A
:101D00000E0E4FF0000B0018524149414BEB0B0BEC
:101D1000B2EB080C71EB03077BF1000B24BF6246AA
:101D200039464EEB0E0E4FF0000B00185241494160
:101D30004BEB0B0BB2EB080C71EB03077BF1000BC9
:101D400024BF624639464EEB0E0E51EA020718BF19
:101D500046F0010616EB0E7655F1000254F1000133
:101D600003D5BDE88901BDE80088BDE88901BDE86B
:101D70000048B619524141EB0101A3F1010370473C
:101D800080807F7E7D7C7B7A7978777676757473B8
:101D9000727171706F6E6E6D6C6C6B6A6A69686877
:101DA000676666656464636362616160605F5F5E0D
:101DB0005E5D5D5C5C5B5B5A5A5959585857575683
:101DC00056555555545453535252525151505050E8
:101DD0004F4F4F4E4E4D4D4D4C4C4C4B4B4B4A4A3A
:101DE0004A4949494848484747474746464645457E
:101DF00045444444444343434342424242414141B7
:101E000046EA0646A3F570534FEA164646EA42569E
:101E10004FEAD22242EA415210B54FEAD121A3F152
:101E2000010300F02FF820F0004000F1020C00F058
:101E3000004701EB00501146BCF5006F40EA070077
:101E400000D210BDBAF1000F0AD01CB503B44FF098
:101E500004004FF004014FF000000FBCBDE810403B
:101E60004FF00001BBF1010FB9BF04484FF0FF3143
:101E70000348002140EA070010BD00BFFFFFEF7FCD
:101E80000000F07F002B9C4630D477002BD01CB58F
:101E90004FEA370703B44FF010004FF01001BAF1CA
:101EA000000F06D0BCF1000FDCBF40F0080040F08E
:101EB00008014FF000000FBCBDE810400BF1010B12
:101EC000BBF1010F08BF5FEA170722BF12F1010241
:101ED00011F101014FF0004143F1000300F0004017
:101EE00043EA00007047F9D35708D0E746EA0646B0
:101EF00013F1400F4FEA16461FDD13F1200FDFBF2D
:101F000016430A46002120335B42BED0C3F12007AE
:101F100046EA064602FA07F74FEA164646EA070679
:101F2000C3F1200722FA03F201FA07F721FA03F1BD
:101F30004FF0000342EA0702A7E746EA020646EA34
:101F400006464FEA164646EA0106BCBF46EA064682
:101F5000360C4FF000034FF000024FF0000194E701
:101F60002DE9804C9A46934670B491E8380007C832
:101F700031EA400C48BF34EA430C03D5FFF7A4FD17
:101F8000FFF780FFF0BCBDE8008C2DE9804C9A463D
:101F9000934670B491E8380007C831EA400C48BF56
:101FA00034EA430C03D5FFF78FFDFFF729FFF0BCA0
:101FB000BDE8008C2DE9804C9A46934670B491E8B8
:101FC000380007C810F0804F08BF13F0804F03D1CE
:101FD00000F01AF8FFF756FFF0BCBDE8008C2DE9C1
:101FE000804C9A46934670B491E8380007C810F0C8
:101FF000804F08BF13F0804F03D100F005F8FFF7C2
:10200000FFFEF0BCBDE8008C20F07F4780EA0300B3
:1020100023F07F4C07EB0C03A3F57C5300F000404A
:10202000A3F1FE0392F0000F00F0B38095F0000FD3
:1020300000F077802DE901494FEA11404FEA14463C
:1020400021EA004800FB06FC24EA064708FB06F6E6
:1020500007FB08F800FB07F718EB06484CEB164C9B
:102060004FEA124B18EB07484FEA15464CEB174066
:1020700022EA0B4E0BFB06FC25EA06470EFB06F692
:1020800007FB0EFE0BFB07F71EEB064E4CEB164C48
:102090004FF000061EEB074E4CEB174B18EB0B08EE
:1020A00040F1000018EB0E0B58EB000840F1000067
:1020B0008F1A4FF000013CBFC943661B14BFB5EB3C
:1020C000040C00213CBFC943F61B4FEA17444EEAFB
:1020D0008E0E27EA04454FEA1C4704FB07622CEAF0
:1020E000074C05FB07F70CFB05F604FB0CFC16EB95
:1020F000074642EB174216EB0C4642EB1C421BEB29
:10210000060658EB0202414146EA9E0601D5BDE8AB
:102110000189B619524141EB0101A3F10103BDE868
:1021200001894FEA14454FEA114724EA054621EA9E
:10213000074C05FB07F406FB07F70CFB06F105FB54
:102140000CFC11EB074144EB17444FEA124711EB2B
:102150000C4144EB1C4422EA074C05FB07F206FB4A
:1021600007F70CFB06F605FB0CFC16EB074642EBEB
:10217000174216EB0C4642EB1C456A1854F100015D
:1021800048BF7047B619524141EB0101A3F1010369
:10219000704795F0000F37D04FEA11424FEA1447CD
:1021A00021EA024624EA074C02FB07F106FB07F787
:1021B0000CFB06F402FB0CFC14EB074441EB17414B
:1021C0004FEA154714EB0C4441EB1C4125EA074C40
:1021D00002FB07F506FB07F70CFB06F602FB0CFCFF
:1021E00016EB074645EB174516EB0C4645EB1C4234
:1021F000121951F1000148BF7047B619524141EB25
:102200000101A3F1010370474FEA14454FEA11475A
:1022100024EA054621EA074C05FB07F106FB07F710
:102220000CFB06F24FF0000605FB0CFC12EB07421C
:1022300041EB174112EB0C4251EB1C4148BF704778
:10224000921841EB0101A3F1010370477FB501250D
:1022500002F04CF963220321082002F059FA5922B6
:102260000321182002F054FA64220321282002F0EE
:102270004FFA65220321382002F04AFA6622032130
:10228000482002F045FA02220321582002F040FAC9
:102290005E220321682002F03BFAA8E003A9522045
:1022A00001F04DFD0546002DF7D152480078322847
:1022B0007EDA01A801F0EEFC4E49097801EB8101BC
:1022C0004D4A02EB81004DA1FEF736F9002410E0E3
:1022D0004849097801EB8101474B03EB8101891CD7
:1022E000022303FB041001A90A5D45A1FEF724F9AE
:1022F000641C042CECDB3F480078401C3D4908700E
:1023000002F0F4F84FF480713F4801F0B3FB642011
:1023100004F002F94FF480713B4801F0A9FB6522FB
:102320000221102002F0F4F966220221202002F09E
:10233000EFF902221146302002F0EAF95E22022172
:10234000402002F0E5F95F220221502002F0E0F97E
:1023500060220221104602F0DBF926480078401E78
:1023600000EB8000244901EB800210230421182097
:1023700002F098FA4FF4FA7004F0CEF84FF4FA70C5
:1023800004F0CAF802F0B2F800220321104602F06D
:10239000BFF901220321122002F0BAF91B480723DA
:1023A0005122012100902E2002F0BFF8022200E00D
:1023B0000AE003215C2002F0ABF9032211466E20F3
:1023C00002F0A6F9012513E002F090F8102310A204
:1023D0000221002002F066FA4FF4FA7004F09CF833
:1023E0004FF4FA7004F098F802F080F8012555E7F0
:1023F00000BF7FBD38000020F822002030780000A8
:10240000253032580000000000140240A4200020B3
:102410004E6F206D6F7265207468616E20353020BC
:102420006B6579206361726473000000F8B5012464
:102430000025002602F05AF81DE2052E56D2DFE8EC
:1024400006F00356B7FCFB0063220321202002F0B4
:102450005FF970220321302002F05AF9152203217E
:10246000402002F055F916220321502002F050F9C5
:1024700002F0B7FA04466CBB012002F08FFA044662
:10248000DCB902F033F815220321202002F040F9D4
:1024900016220321302002F03BF971220321402053
:1024A00002F036F972220321502002F031F94FF484
:1024B000FA7004F031F8012618E002F017F820460F
:1024C00003F07EF800264FF4FA7004F025F802F0CD
:1024D0000DF80BE002F00AF80026204603F070F831
:1024E0004FF4FA7004F018F802F000F8C2E101F0BD
:1024F000FDFF63220321182002F00AF97322032151
:10250000282002F005F970220321382002F000F99A
:1025100074220321482002F0FBF875220321582081
:1025200002F0F6F84FF4FA7003F0F6FF02F059FAF1
:1025300004467CBB022002F031FA0446ECB901F0FB
:10254000D5FF15220321202002F0E2F816220321F4
:10255000302002F0DDF871220321402002F0D8F88B
:1025600072220321502002F0D3F84FF4FA7003F0E6
:10257000D3FF01F0BBFF022619E001F0B7FF2046B0
:1025800003F01EF800264FF4FA7003F0C5FF01F0C7
:10259000ADFF0CE0FFE7012601F0A8FF204603F0A5
:1025A0000FF84FF4FA7003F0B7FF01F09FFF61E1FD
:1025B00001F09CFF76220321102002F0A9F8772277
:1025C0000321202002F0A4F878220321302002F019
:1025D0009FF875220321402002F09AF8152203216A
:1025E000502002F095F80B220321602002F090F8B1
:1025F0004FF4FA7003F090FF02F058FA0446ECB979
:1026000001F074FF76220321202002F081F8772266
:102610000321302002F07CF85F220321402002F0E9
:1026200077F860220321502002F072F84FF4FA701C
:1026300003F072FF032627E08DE026E001F056FF4D
:1026400076220321202002F063F877220321302034
:1026500002F05EF819220321402002F059F81A22F4
:102660000321502002F054F84FF4FA7003F054FFA5
:1026700001F03CFF204602F0A3FF4FF4FA7003F094
:102680004BFF01F033FF0026F4E001F02FFF792229
:102690000321102002F03CF85F220321202002F0E9
:1026A00037F815220321302002F032F816220321D8
:1026B000402002F02DF838220321502002F028F8A3
:1026C00039220321602002F023F84FF4FA7003F05E
:1026D00023FF02F008FA04467CBB01F007FF7922D1
:1026E0000321002002F014F85F220321102002F0E1
:1026F0000FF815220321202002F00AF816220321E8
:10270000302002F005F838220321402002F000F8C2
:1027100039220321502001F0FBFF5F2203216020BA
:1027200001F0F6FF60220321702001F0F1FF4FF469
:10273000FA7003F0F1FE04260CE0FFE701F0D6FE8C
:102740000026204602F03CFF4FF4FA7003F0E4FE4E
:1027500001F0CCFE8EE001F0C9FE102346A202215A
:10276000184602F09FF87A220221382001F0D0FFAB
:102770007B220221582001F0CBFF102340A204212C
:10278000002002F08FF83BE004F016F94148007891
:1027900020280BD03F480078422807D1002D01DDCA
:1027A000681EC5B220203B4908701BE039480078FC
:1027B00020280BD037480078412807D1632D01DA53
:1027C000681CC5B22020334908700BE031480078FE
:1027D000202807D02F4800782A2803D120202D490F
:1027E00008700EE010232CA20621184602F05AF8B9
:1027F000102002232A4606210090502002F00EF8F5
:10280000C2E700BF2946022002F08AF9044624BB31
:1028100001F06CFE13220321102001F079FF142235
:102820000321202001F074FF15220321302001F044
:102830006FFF16220321402001F06AFF5F2203216F
:10284000502001F065FF60220321104601F060FF77
:102850004FF4FA7003F060FEF8BD01F047FE002669
:10286000204602F0ADFE4FF4FA7003F055FE01F081
:102870003DFE00BF00BFE0E5412B422D2A000000D5
:102880002020303D3C204944203C3D393920202047
:102890000000000054000020594F55204944203DBD
:1028A0000000000010B5142002F014FD044604F0EE
:1028B000030018B90321142002F0FDFD10BD000033
:1028C0001CB50446204603F0ADF91BA11E4803F0D9
:1028D0004CFB13E0002101910BE00B21009102E081
:1028E0000099491E009100990029F9D10199491CCC
:1028F00001910199B1F57A7FEFD3401C0F28E9DBF4
:1029000012A1114803F031FB13E0002101910BE00B
:102910000B21009102E00099491E009100990029C5
:10292000F9D10199491C01910199B1F57A7FEFD351
:10293000401C0F28E9DB1CBD41542B4E414D45572F
:10294000474C57474C0D0A000048004041542B5259
:10295000455345540D0A00001CB50121202002F00A
:1029600097FA4FF48070009001208DF80400002049
:102970008DF8060003208DF8050000208DF8070073
:102980006946024801F000F81CBD00000014024036
:1029900038B593480078012878D192A19448FDF782
:1029A0007BFF002874D001F0A1FD022211462020F7
:1029B00001F0AEFE57220221302001F0A9FE58227C
:1029C0000221402001F0A4FE59220221502001F0F2
:1029D0009FFE5A220421202001F09AFE5B2204214E
:1029E000302001F095FE5C220421402001F090FE91
:1029F0005D220421502001F08BFE4FF400417D4800
:102A000001F038F87C480068401C7B49086004F0FD
:102A10007DFE4FF48071774801F02CF8C82003F058
:102A20007BFD4FF48071734801F022F8002404E02C
:102A30004FF4FA7003F070FD641C082CF8DD4FF4BD
:102A400000416C4801F014F800206C49087001F056
:102A50004DFD00220321104601F05AFE0122032100
:102A6000122001F055FE66480723512201210090F3
:102A70002E2001F05AFD022203215C2001F048FEC5
:102A8000032211466E2001F043FE9CE0A6E0FFE722
:102A90005CA15748FDF700FF28B101F061FA002062
:102AA000564908708FE059A15148FDF7F5FE28B14D
:102AB000FFF7CCFB00205149087084E056A14C4838
:102AC000FDF7EAFE28B100F0CBF800204B49087072
:102AD00079E054A14648FDF7DFFE18B3FFF7A6FCE6
:102AE00000204649087001F001FD00220321104634
:102AF00001F00EFE01220321122001F009FE4048E0
:102B000007235122012100902E2001F00EFD022208
:102B100003215C2001F0FCFD032211466E2001F030
:102B2000F7FD50E041A13248FDF7B6FE18B300F0C2
:102B300093F900203149087001F0D8FC00220321EC
:102B4000104601F0E5FD01220321122001F0E0FD15
:102B50002B4807235122012100902E2001F0E5FC93
:102B6000022203215C2001F0D3FD032211466E20D6
:102B700001F0CEFD27E021480078401C1F49087075
:102B80000846007808281ED12A480068401C2949B8
:102B9000086004F0BBFD002410E04FF4807115487C
:102BA00000F068FF322003F0B7FC4FF48071114849
:102BB00000F05EFF322003F0AFFC641C192CECDB4C
:102BC00000200E4908700020054908704FF48071FC
:102BD0000748FDF78BFF00201749086038BD00004B
:102BE000200000204F70656E446F6F72230000005C
:102BF000F821002000140240882100207C210020C0
:102C0000A42000204D6F6450776423004164644B1E
:102C1000657943617264230044656C4B6579436157
:102C2000726423004164645F4652230044656C5F14
:102C3000465223008C2100201C00002000BFFEE72C
:102C400070B505460C460026284602F043FB0646B2
:102C500026EA0401284603F009FA70BD7047000017
:102C600038B5002401F042FC36220021202001F07A
:102C70004FFD37220021302001F04AFD02220021C1
:102C8000402001F045FD5E220021502001F040FD72
:102C900004EB84006A4901EB800210230221182012
:102CA00001F000FE102367A20421184601F0FAFD8E
:102CB00061220421382001F02BFD622204215820DA
:102CC00001F026FDB8E003F077FE60480078202888
:102CD00017D05E480078412813D15D480078401E27
:102CE000A0420ADD641C04EB8400554901EB80021C
:102CF00010230221182001F0D5FD2020534908702F
:102D00009AE052480078202814D050480078422891
:102D100010D1002C0ADD641E04EB8400484901EB4D
:102D2000800210230221182001F0BCFD2020474919
:102D3000087081E04548007820287DD0434800781D
:102D40002A2879D1002C27DB41480078844223DAF5
:102D500025460CE06A1C02EB8202394B03EB820130
:102D600005EB850203EB8200FDF7A8FD6D1C3848DA
:102D70000078401EA842EDDC35490978491E01EB78
:102D800081012F4A02EB81001421FDF7AFFE30488C
:102D90000078401E2E49087001F0A8FB362202215F
:102DA000102001F0B5FC37220221202001F0B0FCF8
:102DB00002221146302001F0ABFC5E2202214020AD
:102DC00001F0A6FC5F220221502001F0A1FC60224C
:102DD0000221104601F09CFC04EB8400184901EB31
:102DE000800210230421182001F05CFD4FF4FA70DA
:102DF00003F092FB01F07AFB00220321104601F060
:102E000087FC01220321122001F082FC11480723D4
:102E10005122012100902E2001F087FB0222032184
:102E20005C2001F075FC032211466E2001F070FC5D
:102E300020200649087000E045E700BF38BD0000CB
:102E4000F8220020412B422D2A00000054000020CF
:102E500038000020A4200020F8B5002401F046FB33
:102E600010238DA20021184601F01CFD61220021D3
:102E7000382001F04DFC62220021582001F048FC6E
:102E8000102387A20221184601F00CFD6E220221B8
:102E9000182001F03DFC6F220221282001F038FCAF
:102EA00015220221382001F033FC1622022148208D
:102EB00001F02EFC3C220221582001F029FC1023B5
:102EC00078A20421184601F0EDFC7E220421202086
:102ED00001F01EFC7F220421302001F019FC0126A4
:102EE000D6E003F069FD7048007820280FD06E48C6
:102EF000007842280BD116B101F0F8FA0026002C18
:102F000001DD601E84B2202067490870B1E0664888
:102F1000007820280FD06448007841280BD116B1E2
:102F200001F0E4FA0026632C01DA601C84B2202050
:102F30005D4908709DE05C480078202807D05A4819
:102F40000078442803D1202057490870A1E0564852
:102F50000078202849D054480078232845D10026FD
:102F600001F0FFFC054685BB01F0C0FA3A220321BF
:102F7000002001F0CDFB3B220321102001F0C8FB13
:102F800015220321202001F0C3FB1622032130204B
:102F900001F0BEFB3C220321402001F0B9FB5F227F
:102FA0000321502001F0B4FB60220321104601F000
:102FB000AFFB002704E04FF4FA7003F0ADFA7F1C7A
:102FC000022FF8DB01F092FA0BE0FFE701F08EFA36
:102FD000284602F0F5FA4FF4FA7003F09DFA01F07A
:102FE00085FA20203049087043E02F4800782028D7
:102FF0003FD02D48007843283BD1002601212046B0
:1030000001F079FC054635BB01F070FA3622032148
:10301000102001F07DFB37220321202001F078FBF6
:1030200015220321302001F073FB162203214020DA
:1030300001F06EFB5F220321502001F069FB60224A
:103040000321104601F064FB4FF4FA7003F064FAB8
:1030500001F04CFA0AE001F049FA284602F0B0FA11
:103060004FF4FA7003F058FA01F040FA20200E49AC
:1030700008706EB910230DA20321202001F012FC6C
:1030800010200223224603210090482001F0C6FBB5
:1030900027E700BFF8BD0000412B422D2A000000A9
:1030A0002300000044000000540000204944203D5B
:1030B0002000000010B5002108E00C2200BF131E04
:1030C000A2F10104E2B2FAD14A1C91B28142F4DBCE
:1030D00010BD10B5002108E00C2200BF131EA2F1A4
:1030E0000104E2B2FAD14A1C91B28142F4DB10BD74
:1030F00010B50446212C7DD2DFE804F011183C65A0
:1031000090B4D8FEFDFCFBFA7C7C7C7CF9F87C7CDE
:103110007CF77C7CF6F5F4F3F27C7CF1F000102374
:10312000FEA20321382001F0BDFBF1E204220321BD
:10313000002001F0EDFA05220321102001F0E8FA49
:1031400006220321202001F0E3FA07220321302088
:1031500001F0DEFA08220321402001F0D9FA092209
:103160000321502001F0D4FA0A220321602001F04B
:10317000CFFACDE20B220321002001F0C9FA0C2284
:103180000321102001F0C4FA0D220321202001F0B8
:10319000BFFA0E220321302001F0BAFA0F220321D8
:1031A000402001F0B5FA10220321502001F0B0FABE
:1031B00011220321602001F0ABFA122203217020BA
:1031C00001F0A6FAA4E213220321002001F0A0FAE4
:1031D00014220321102001F09BFA15220321202044
:1031E00001F096FA16220321302001F091FA1722FD
:1031F000032100E068E2402001F08AFA182203214E
:10320000502001F085FA19220321602001F080FA94
:103210001A220321702001F07BFA79E215220321A2
:10322000002001F075FA16220321102001F070FA37
:103230001D220321202001F06BFA1B2203213020E4
:1032400001F066FA1C220321402001F061FA1D22E0
:103250000321502001F05CFA1E220321602001F0BE
:1032600057FA55E215220321002001F051FA1622E7
:103270000321102001F04CFA1D220321202001F02F
:1032800047FA1B220321302001F042FA1F220321BA
:10329000402001F03DFA1D220321502001F038FAB0
:1032A00020220321602001F033FA31E215220321AC
:1032B000002001F02DFA16220321102001F028FA37
:1032C00017220321202001F023FA182203213020A5
:1032D00001F01EFA1D22032140200EE0DFE1C9E1CA
:1032E000A4E17FE15FE144E128E1FBE0D6E0B6E064
:1032F0008CE06CE047E02CE007E001F009FA2122C5
:103300000321502001F004FA02E2152203210020DB
:1033100001F0FEF916220321102001F0F9F9222212
:103320000321202001F0F4F923220321302001F0B1
:10333000EFF924220321402001F0EAF91D220321A4
:10334000502001F0E5F925220321602001F0E0F989
:10335000DEE115220321002001F0DAF91622032113
:10336000102001F0D5F926220321202001F0D0F908
:1033700027220321302001F0CBF92822032140200D
:1033800001F0C6F9C4E10F220321002001F0C0F9C9
:1033900010220321104601F0BBF92922032120202D
:1033A00001F0B6F92A220321302001F0B1F92B22D5
:1033B0000321402001F0ACF915220321502001F037
:1033C000A7F916220321602001F0A2F9A0E1222230
:1033D0000321002001F09CF923220321102001F099
:1033E00097F92C220321202001F092F92D220321AC
:1033F000302001F08DF919220321402001F088F9D5
:103400001A220321502001F083F981E12E220321A9
:10341000002001F07DF92F220321102001F078F91E
:1034200030220321202001F073F9312203213020C2
:1034300001F06EF932220321402001F069F93322B4
:103440000321502001F064F934220321602001F0AF
:103450005FF935220321702001F05AF958E1362234
:103460000321102001F054F937220321202001F01C
:103470004FF938220321302001F04AF93922032183
:10348000402001F045F919220321502001F040F9B4
:103490001A220321602001F03BF939E13A2203218D
:1034A000002001F035F93B220321102001F030F912
:1034B00015220321202001F02BF9162203213020B0
:1034C00001F026F93C220321402001F021F91922C4
:1034D0000321502001F01CF91A220321602001F081
:1034E00017F915E13D220321002001F011F93E22D8
:1034F0000321102001F00CF93F220321202001F0CC
:1035000007F940220321302001F002F94122032172
:10351000402001F0FDF81022032101E04F4B000094
:10352000502001F0F5F842220321602001F0F0F86C
:1035300017220321702001F0EBF8E9E04322032178
:10354000002001F0E5F844220321102001F0E0F80A
:10355000102370A20321202001F0A4F933220321BB
:10356000482001F0D5F809220321582001F0D0F8B5
:10357000CEE045220321102001F0CAF846220321A3
:10358000202001F0C5F847220321302001F0C0F8C7
:1035900009220321402001F0BBF80A220321502018
:1035A00001F0B6F8B4E041220321102001F0B0F898
:1035B00042220321202001F0ABF8482203213020D1
:1035C00001F0A6F849220321402001F0A1F84A2287
:1035D0000321502001F09CF84B220321602001F0D0
:1035E00097F895E048220321002001F091F8492244
:1035F0000321102001F08CF84A220321202001F041
:1036000087F840220321302001F082F84C22032168
:10361000402001F07DF809220321502001F078F8C4
:103620000A220321602001F073F871E04D2203218A
:10363000002001F06DF84E220321102001F068F8FF
:103640004F220321202001F063F850220321302073
:1036500001F05EF851220321402001F059F80922BF
:103660000321502001F054F80A220321602001F0C8
:103670004FF84DE015220321202001F049F81622D1
:103680000321302001F044F83C220321402001F0C6
:103690003FF852220321502001F03AF838E02E2260
:1036A0000321202001F034F82F220321302001F0E3
:1036B0002FF809220321402001F02AF80A220321D1
:1036C000502001F025F823E053220321082001F0C7
:1036D0001FF854220321182001F01AF85522032163
:1036E000282001F015F856220321382001F010F8A7
:1036F00051220321482001F00BF810220321582009
:1037000001F006F80A220321682001F001F800BF49
:1037100000BF10BD464C41534800000010B503F0F7
:1037200089F804462CB145A0FCF7FAFE4FF0FF30B3
:1037300010BD4EA0FCF7F4FE4FF4FA7002F0ECFE60
:103740004FF4FA7002F0E8FE03F0A0F804462CB142
:1037500052A0FCF7E5FE6FF00100E9E755A0FCF789
:10376000DFFE4FF4FA7002F0D7FE4FF4FA7002F069
:10377000D3FE4FF4FA7002F0CFFE4FF4FA7002F06D
:10378000CBFE02F0F9FE04462CB150A0FCF7C8FEB7
:103790006FF00200CCE753A0FCF7C2FE4FF4FA70C2
:1037A00002F0BAFE4FF4FA7002F0B6FE4FF4FA706F
:1037B00002F0B2FE4FF4FA7002F0AEFE002002F00A
:1037C000D7FF04462CB14DA0FCF7AAFE6FF0030012
:1037D000AEE752A0FCF7A4FE4FF4FA7002F09CFE94
:1037E0004FF4FA7002F098FE4FF4FA7002F094FE73
:1037F0004FF4FA7002F090FE50A153A002F0F8FED0
:1038000004462CB151A0FCF78BFE6FF004008FE74B
:1038100055A0FCF785FE4FF4FA7002F07DFE4FF4E0
:10382000FA7002F079FE4FF4FA7002F075FE4FF470
:10383000FA7002F071FE00207AE7000065737038BC
:103840003236365F657869745F7472616E73706169
:1038500072656E745F7472616E736D697373696F94
:103860006E206661696C0D0A000000006573703897
:103870003236365F657869745F7472616E73706139
:1038800072656E745F7472616E736D697373696F64
:103890006E20737563636573730D0A00657370380A
:1038A0003236365F7265736574206661696C0D0A25
:1038B00000000000657370383236365F72657365DC
:1038C0007420737563636573730D0A0065737038D4
:1038D0003236365F636865636B206661696C0D0A1A
:1038E00000000000657370383236365F63686563C8
:1038F0006B20737563636573730D0A0065737038AD
:103900003236365F656E61626C655F6563686F282D
:103910003029206661696C0D0A00000065737038FB
:103920003236365F656E61626C655F6563686F280D
:103930003029737563636573730D0A003132333454
:10394000353535350000000077676C0065737038D9
:103950003236365F636F6E6E6563745F61702066CA
:1039600061696C0D0A000000657370383236365F8D
:10397000636F6E6E6563745F6170207375636365FA
:1039800073730D0A00000000F0B50A460021002301
:10399000002400BF3DE0012505FA01F3156805EAA2
:1039A00003049C4234D105684F000326BE40B54352
:1039B000056015794E00B5400668354305601579F8
:1039C000012D02D01579022D16D185684F000326EE
:1039D000BE40B543856055794E00B5408668354395
:1039E0008560456801268E40B543456045689679F7
:1039F0008E40B6B235434560C5684F000326BE40D1
:103A0000B543C560D5794E00B540C6683543C5603D
:103A1000491C1029BFD3F0BDF0B5002300244D0789
:103A2000ED0E02FA05F3CE1000F1200555F82650F0
:103A30004E07F70E0F26BE40B543CF1000F120060B
:103A400046F82750CE1000F1200555F8265045EADB
:103A50000304CE1000F1200545F82640F0BD0246D3
:103A6000002013690B400BB1012000E000207047DB
:103A7000418370470183704700BFFEE71CB50121F9
:103A8000102001F005FA00208DF8040001208DF8C7
:103A900007000002009069460148FFF775FF1CBD52
:103AA000001002401CB50121102001F0F1F90120A5
:103AB0008DF8040003208DF8050000208DF8060025
:103AC00001208DF807000002009069460148FFF7C9
:103AD0005BFF1CBD0010024010B5FFF7E3FF4FF481
:103AE00080710D48FFF7C6FF80210B48FFF7C2FF2A
:103AF0000520FFF7EEFA4FF480710748FFF7B8FF93
:103B00000520FFF7E6FA80210348FFF7B1FF052003
:103B1000FFF7DFFA10BD00000010024010B5FFF7FC
:103B2000C1FF4FF480710D48FFF7A2FF80210B48C1
:103B3000FFF79EFF0520FFF7CCFA80210748FFF72B
:103B400099FF0520FFF7C5FA4FF480710348FFF78E
:103B500091FF0520FFF7BDFA10BD000000100240E4
:103B600010B5FFF78BFF80211048FFF781FF05207C
:103B7000FFF7AFFA80210D48FFF77CFF0520FFF724
:103B8000A8FA4FF480710948FFF769FF08B10024D3
:103B900000E001240520FFF79CFA80210348FFF78D
:103BA00067FF0520FFF795FA204610BD0010024080
:103BB0007CB50546EF208DF8000001208DF801004E
:103BC0001A480068000E8DF8020018480068000CC2
:103BD0008DF8030015480088000A8DF8040013488A
:103BE00000788DF8050007208DF8060000208DF87C
:103BF00007000F49088012E0012002F08DFC0C48FC
:103C0000008800F4004050B100200949088069464E
:103C10000848FCF741FE04460CB120467CBD681EF6
:103C200080B2051EE8D100BFF8E7000010000020B8
:103C30007C200020EE2800201CB50121042001F08A
:103C400027F940F21A20009000208DF804008DF82A
:103C5000060003208DF8050001208DF80700694655
:103C60000B48FFF791FE4FF4F070009001208DF8A3
:103C7000040000208DF8060003208DF805000020C8
:103C80008DF8070069460248FFF77EFE1CBD000064
:103C9000000802402DE9FC4104460027082108469F
:103CA000FEF7CEFF80210E20FEF7CAFF00210D2077
:103CB00002F0DCF9932020702020607001A82346D8
:103CC0000222214600900C2000F09CF806465EB9C6
:103CD000002503E0605D4740681CC5B2042DF9DB98
:103CE000605DB84200D0022680210E2001F0E3FB87
:103CF0003046BDE8FC8110B501F062FB00F038F8F9
:103D00008D212A2002F0B2F93E212B2002F0AEF9DB
:103D100032212D2002F0AAF900212C2002F0A6F970
:103D20004021152002F0A2F93D21112002F09EF958
:103D30000021012002F09AF9FEF7B4FD10BD7CB518
:103D400006460C4607210D2002F090F9267001A8C6
:103D500023460122214600900C2000F053F805462E
:103D60001DB9BDF80400102800D0022528467CBDEE
:103D70001CB501212248FFF77DFE002001900BE0D9
:103D80000B20009002E00098401E00900098002850
:103D9000F9D10198401C019001980228F0D301212B
:103DA0001748FFF765FE002001900BE00B20009004
:103DB00002E00098401E009000980028F9D1019878
:103DC000401C019001980228F0D301210C48FFF714
:103DD00051FE002001900BE00B20009002E00098C3
:103DE000401E009000980028F9D10198401C0190D5
:103DF00001980228F0D30F21012002F037F91CBDF1
:103E0000001402402DE9FE4F0646884691469A4628
:103E1000DDF830B0022002900020019000900C2EBE
:103E200006D00E2E09D1122001901020009005E03E
:103E3000772001903020009000E000BF00BF019883
:103E400040F08001022002F011F980210420FEF7E9
:103E5000F7FE80210A2001F02EFB0021012002F054
:103E600005F9002506E018F80510092002F0FEF813
:103E7000681C85B24D45F6DB3146012002F0F6F8AC
:103E80000C2E03D180210D2001F015FB42F210759C
:103E900000BF042001F01EFA0446681E85B235B149
:103EA00004F0010018B9009820400028F1D08021CA
:103EB0000D20FEF7C5FE002D36D0062001F00AFACF
:103EC00000F01B0070BB0198204000F0010008B119
:103ED000012002900C2E22D10A2001F0FBF90446A9
:103EE0000C2001F0F7F900F007072FB1601E07EB77
:103EF000C000ABF8000002E0E000ABF8000004B93D
:103F00000124122C00DD1224002506E0092001F016
:103F1000E1F90AF80500681C85B2A542F6DB00202D
:103F2000029001E00220029080210C2002F09EF815
:103F30000021012002F09AF80298BDE8FE8F0000EF
:103F400000BF0549098801F040010029F9D0024964
:103F5000091D0880704700000044004000BFFEE7D4
:103F600038B510217548FCF7C1FD00207449086080
:103F700000F0BCFA63220221002000F0C9FB682295
:103F80000221102000F0C4FB14220221202000F0A6
:103F9000BFFB69220221302000F0BAFB6A22022115
:103FA000402000F0B5FB6B220221502000F0B0FB56
:103FB0006C220221602000F0ABFB6D2202217020F8
:103FC00000F0A6FB67220421002000F0A1FB512293
:103FD0000421102000F09CFB10235AA2062100208F
:103FE00000F060FC6E220621082000F091FB6F2299
:103FF0000621182000F08CFB6F2353A206212820F5
:1040000000F050FC61220621382000F081FB622282
:104010000621482000F07CFB01248CE002F0CCFC5F
:104020004A480078202826D0484800782A2822D0FC
:104030004648007823281ED014B100F057FA002417
:104040003F480068102812DA40490A783C4908685D
:10405000411C3B4B196039490A5400201A4612682A
:10406000885410230A460221082000F01BFC20205F
:10407000364908705FE0354800782A284BD103F0B4
:1040800045FB00F033FA67220321102000F040FBCB
:1040900051220321202000F03BFB6B220321302022
:1040A00000F036FB6C220321402000F031FB5F2240
:1040B0000321502000F02CFB60220321104600F069
:1040C00027FB4FF4FA7002F027FA4FF4FA7002F06F
:1040D00023FA00F00BFA00220321104600F018FB2F
:1040E00001220321122000F013FB1948072351225B
:1040F000012100902E2000F018FA022203215C20FA
:1041000000F006FB032211466E2000F001FB202088
:104110000E49087010E00D48007823280BD100F0FC
:10412000E5F910210548FCF7E1FC0020044908608E
:1041300020200649087071E700BF38BD210000202B
:1041400034000020230000002A000000540000205A
:10415000A420002010B5002440F25B723BA147A0D0
:1041600002F0AEFA04462CB145A0FCF7D9F96FF085
:10417000040010BD4AA0FCF7D3F94FF4967002F08A
:10418000CBF902F00FFA04463CB14EA0FCF7C8F997
:1041900000BFFFF7C3FA0028FBD154A0FCF7C0F919
:1041A0004FF4FA7002F0B8F94FF4FA7002F0B4F973
:1041B0004FF4FA7002F0B0F94FF4FA7002F0ACF973
:1041C00002F0F6FA04462CB153A0FCF7A9F96FF0FF
:1041D0000500CEE75CA0FCF7A3F94FF4FA7002F0FB
:1041E0009BF94FF4FA7002F097F94FF4FA7002F06D
:1041F00093F94FF4FA7002F08FF9604A60A16848B1
:1042000003F012F828B167A0FCF78AF96FF00600F6
:10421000AFE76BA0FCF784F94FF4FA7002F07CF979
:104220004FF4FA7002F078F9012200216AA003F03D
:10423000E7FA28B178A0FCF773F96FF0070098E768
:104240007EA0FCF76DF9002093E70000696F742DE4
:1042500030367A3030693268696B62316430382EBA
:104260006D7174742E696F746875622E616C6979F2
:10427000756E63732E636F6D000000005443500031
:10428000657370383236365F636F6E6E6563745F68
:10429000736572766572206661696C0D0A000000B4
:1042A000657370383236365F636F6E6E6563745F48
:1042B00073657276657220737563636573730D0A37
:1042C00000000000657370383236365F63686563DE
:1042D0006B5F636F6E6E656374696F6E5F7374613D
:1042E000747573206661696C0D0A0000657370381F
:1042F0003236365F636865636B5F636F6E6E6563EE
:1043000074696F6E5F737461747573207375636322
:104310006573730D0A000000657370383236365FBE
:10432000656E7472795F7472616E73706172656EBE
:10433000745F7472616E736D697373696F6E2066FA
:1043400061696C0D0A000000657370383236365FA3
:10435000656E7472795F7472616E73706172656E8E
:10436000745F7472616E736D697373696F6E2073BD
:104370007563636573730D0A0000000044A20008B2
:10438000496E74656C6C6967656E74446F6F724CCE
:104390006F636B266B3078316242486E524F770004
:1043A00088A200086D7174745F636F6E6E656374CC
:1043B0002044455649434531206661696C0D0A0029
:1043C0006D7174745F636F6E6E6563742073756373
:1043D000636573730D0A00002F7379732F6B307848
:1043E000316242486E524F772F496E74656C6C692A
:1043F00067656E74446F6F724C6F636B2F7468697E
:104400006E672F736572766963652F70726F706562
:104410007274792F736574006D7174745F73756253
:104420007363726962655F746F7069632044455697
:1044300049434531206661696C0D0A006D717474E1
:104440005F7375627363726962655F746F706963CD
:1044500020737563636573730D0A00007047000075
:1044600070B5002100230F22C4781CB3174C2468B8
:1044700004F4E064C4F5E064C4F30721C1F104046A
:10448000E3B20A4144789C40E1B28478144021436D
:104490000C07210E0E4C05786155047804F01F05B9
:1044A0000124AC4005786D11AD0005F1E025C5F89B
:1044B000004109E0047804F01F050124AC40054DDB
:1044C0000678761145F8264070BD00000CED00E03E
:1044D00000E400E080E100E002490143024A11608B
:1044E000704700000000FA050CED00E070B50024F4
:1044F00018E004F1B000002100F0F1F900210846B5
:1045000000F0EDF90021102000F0E9F9002505E0A8
:104510000121002000F0E3F9681CC5B2802DF7DB13
:10452000601CC4B2082CE4DB70BD2DE9F05F0646C8
:104530000F4690461C46DDF828A04FF0000BE1170F
:1045400004EB5171C910A4EBC10131B92046E11748
:1045500004EB5171C1F3C70506E02046E11704EBF7
:104560005171C910491CCDB23D4615E0294630466F
:1045700000F0BAF8B1460BE059460BF1010B1AF8FE
:104580000100012100F0ABF909F1010000F0FF0981
:10459000C145F1DB681CC5B2A542E7DBBDE8F09F71
:1045A0001FB50121102000F073FC01208DF80C00D4
:1045B00003208DF80D0000208DF80E0001208DF8ED
:1045C0000F000002029002A94648FFF7DDF98020A3
:1045D000029002A94348FFF7D7F913E000210191A7
:1045E0000BE00B21009102E00099491E0091009917
:1045F0000029F9D10199491C01910199B1F57A7FFE
:10460000EFD3401CB0F5967FE8DB0021AE2000F030
:1046100066F90021084600F062F90021102000F040
:104620005EF90021402000F05AF90021B02000F08E
:1046300056F90021812000F052F90021FF2000F0FE
:104640004EF90021A12000F04AF90021A62000F037
:1046500046F90021A82000F042F900213F2000F097
:104660003EF90021C82000F03AF90021D32000F0E3
:1046700036F90021084600F032F90021D52000F07B
:104680002EF90021802000F02AF90021D82000F026
:1046900026F90021052000F022F90021D92000F0A0
:1046A0001EF90021F12000F01AF90021DA2000F0B3
:1046B00016F90021122000F012F90021DB2000F091
:1046C0000EF90021302000F00AF900218D2000F0C1
:1046D00006F90021142000F002F90021AF2000F0BB
:1046E000FEF81FBD0010024070B504460D4605F1EE
:1046F000B000002100F0F3F8102141EA141000216D
:1047000000F0EDF804F00F00002100F0E8F870BDB3
:104710002DE9F04180460E461546002731464046B9
:10472000FFF7E2FF00240AE0124A02EB8511085D60
:10473000012100F0D4F8781CC7B2601CC4B2102C60
:10474000F2DB701CC1B24046FFF7CEFF00240CE044
:104750006900491C074A02EB4111085D012100F084
:10476000BEF8781CC7B2601CC4B2102CF0DBBDE8E8
:10477000F08100006C0000202DE9F04707460E464E
:104780009046994600250024A8F12000C5B27F2F4D
:1047900002DD0027B01CC6B2B9F1100F24D131469A
:1047A0003846FFF7A1FF002408E004EB0511194A81
:1047B000505C012100F093F8601CC4B2082CF4DBBB
:1047C000701CC1B23846FFF78FFF002409E004EBEC
:1047D000051108310F4A505C012100F080F8601C7F
:1047E000C4B2082CF3DB12E031463846FFF77CFFF9
:1047F00000240AE005EB4501074A02EB4101085D90
:10480000012100F06CF8601CC4B2062CF2DBBDE89C
:10481000F0870000969A00086E9800082DE9FF5F67
:10482000074691461E460E9D4FF0000A002435E0D3
:10483000301B401EC1B20A2003F0F4F8B9FBF0F0BF
:104840000A21B0FBF1F201FB1208BAF1000F14D1FA
:10485000701EA04211DDB8F1000F0CD1AB4605EB84
:10486000DB71491001FB0471C8B22B46202201996B
:10487000FFF782FF10E04FF0010AAB4605EBDB715A
:10488000491001FB0471C8B208F13001CAB22B46CD
:104890000199FFF771FF00BF601CC4B2B442C7DBCF
:1048A000BDE8FF9F2DE9F04104460F4615469846A6
:1048B00000260FE0AA5D434639462046FFF75CFF1D
:1048C00004F10800C4B2782C02DD0024B81CC7B281
:1048D000701CC6B2A85D0028ECD1BDE8F08170B5AF
:1048E00004460D461DB1E0B201F0AAFB02E0E0B2C1
:1048F00001F090FB70BD2DE9F04104460D4600F03B
:10490000C2FD00F097FD012000F0B7FD072000F088
:10491000C2FD0C2000F0C9FD2012FFF711FBE0B230
:10492000FFF70EFB2812FFF70BFBE8B2FFF708FBBF
:10493000142000EB2420E1B2084400EB2520E9B26A
:1049400000EB0108404600F08FFD4FF4FA60FFF7DE
:104950002FF907460FB17E7A00E0FF263046BDE80A
:10496000F08170B500F08FFD00F064FD012000F0D3
:1049700084FD032000F08FFD0D2000F096FD112630
:10498000304600F071FD4FF4FA60FFF711F905466B
:104990000DB16C7A00E0FF24204670BD2DE9F04196
:1049A000054600F070FD00F045FD012000F065FDBA
:1049B000042000F070FD022000F077FD2846FFF78C
:1049C000BFFAEF1D384600F04FFD4FF4FA60FFF7D5
:1049D000EFF806460EB1747A00E0FF242046BDE8E9
:1049E000F08170B500F04FFD00F024FD012000F0D3
:1049F00044FD032000F04FFD012000F056FD052688
:104A0000304600F031FD4FF4FA60FFF7D1F805466B
:104A10000DB16C7A00E0FF24204670BD2DE9F0470F
:104A200081460D4616461F4600F02DFD00F002FDA2
:104A3000012000F022FD082000F02DFD1B2000F0D9
:104A400034FD4846FFF77CFA2812FFF779FAE8B2FE
:104A5000FFF776FA3012FFF773FAF0B2FFF770FA49
:104A600009F1240000EB2520E9B2084400EB2620E0
:104A7000F1B200EB010A504600F0F6FC4FF4FA6088
:104A8000FFF796F8044664B194F80980E07AA17AB9
:104A900000EB01203880607B217B00EB01207880D7
:104AA00001E04FF0FF084046BDE8F08770B500F028
:104AB000EAFC00F0BFFC012000F0DFFC032000F066
:104AC000EAFC032000F0F1FC0726304600F0CCFCA5
:104AD0004FF4FA60FFF76CF805460DB16C7A00E010
:104AE000FF24204670BD70B500F0CDFC00F0A2FCA4
:104AF000012000F0C2FC032000F0CDFC052000F0F6
:104B0000D4FC0926304600F0AFFC4FF4FA60FFF702
:104B10004FF805460DB16C7A00E0FF24204670BDC9
:104B20002DE9F04106460C4600F0ADFC00F082FC99
:104B3000012000F0A2FC062000F0ADFC062000F0F1
:104B4000B4FC3046FFF7FCF92012FFF7F9F9E0B2A8
:104B5000FFF7F6F906F10D0000EB2420E1B200EBBF
:104B60000108404600F080FC4FF4FA60FFF720F89F
:104B700007460FB17D7A00E0FF252846BDE8F081A9
:104B800038B5BA48007820287ED0B84800782A285E
:104B9000FAD0B64800782328F6D0FFF7A7FC002506
:104BA0001021B348FBF7A2FF0020B2490860AF49CB
:104BB0000A78B0490868411CAE4B1960AC490A54E8
:104BC00000201A461268885410230A460221082041
:104BD000FFF768FE2020A549087043E101F0ECFED4
:104BE000A2480078202827D0A04800782A2823D07F
:104BF0009E48007823281FD015B1FFF777FC0025C9
:104C00009C480068102813DA98490A78994908687E
:104C1000411C984B196096490A54002194481A4641
:104C2000126881541023024602210820FFF73AFE41
:104C300020208E49087015E18C4800782A287AD106
:104C4000FFF754FC8C498A48FBF726FE002874D0F5
:104C5000022211462020FFF75BFD5722022130205F
:104C6000FFF756FD582202214020FFF751FD59223F
:104C700002215020FFF74CFD5A2204212020FFF78B
:104C800047FD5B22042100E0EFE03020FFF740FD0C
:104C90005C2204214020FFF73BFD5D2204215020CF
:104CA000FFF736FD4FF400417448FEF7E3FE744809
:104CB0000068401C7249086002F028FD4FF48071C2
:104CC0006E48FEF7D7FEC82001F026FC4FF4807135
:104CD0006A48FEF7CDFE002404E04FF4FA7001F0BC
:104CE0001BFC641C082CF8DD4FF400416348FEF700
:104CF000BFFE002063490870FFF7F8FB0022032184
:104D00001046FFF705FD012203211220FFF700FDE9
:104D10005D4807235122012100902E20FFF705FC5A
:104D2000022203215C20FFF7F3FC032211466E20D0
:104D3000FFF7EEFC64E067E0FFE767220321202035
:104D4000FFF7E6FC512203213020FFF7E1FC0922A6
:104D500003214020FFF7DCFC0A2203215020FFF74B
:104D6000D7FC48480078401C46490870084600783F
:104D700008281ED145480068401C4449086002F0DC
:104D8000C5FC002410E04FF480713C48FEF772FE31
:104D9000322001F0C1FB4FF480713848FEF768FE05
:104DA000322001F0B9FB641C192CECDB00203549E2
:104DB0000870002404E04FF4FA7001F0ADFB641CAD
:104DC000042CF8DBFFF792FB002203211046FFF7CB
:104DD0009FFC012203211220FFF79AFC2A48072397
:104DE0005122012100902E20FFF79FFB0222032178
:104DF0005C20FFF78DFC032211466E20FFF788FC34
:104E000020201A4908702EE018480078232829D15C
:104E1000FFF76CFB102117480068FBF767FE0020C6
:104E2000144908602020114908700022032110460F
:104E3000FFF76EFC012203211220FFF769FC1248E4
:104E400007235122012100902E20FFF76EFB022242
:104E500003215C20FFF75CFC032211466E20FFF764
:104E600057FC0125BAE600BF00BF38BD5400002042
:104E70000E31002078210020210000200014024083
:104E8000882100207C210020A42000208C210020EB
:104E900029B1064A12680243044B1A6004E0034A2F
:104EA00012688243014B1A6070470000303802409C
:104EB00029B1064A12680243044B1A6004E0034A0F
:104EC00012688243014B1A6070470000403802406C
:104ED00029B1064A12680243044B1A6004E0034AEF
:104EE00012688243014B1A60704700004438024048
:104EF000F0B5002100220024022500260223324FB3
:104F00003F6807F00C0121B1042905D0082937D1E9
:104F100005E02E4F076036E02D4F076033E02A4F43
:104F20003F1F3F68C7F38056274F3F1F3F6807F07A
:104F30003F036EB1264FB7FBF3F7DFF88CC0ACF13F
:104F4000040CDCF800C0CCF3881C07FB0CF40CE06C
:104F50001E4FB7FBF3F7DFF870C0ACF1040CDCF8C0
:104F600000C0CCF3881C07FB0CF4174F3F1F3F68B1
:104F7000C7F301477F1C7D00B4FBF5F7076002E033
:104F8000124F076000BF00BF0F4F3F6807F0F001EE
:104F90000909104F7A5C0768D74047600A4F3F689D
:104FA00007F4E051890A0B4F7A5C4768D740876065
:104FB000054F3F6807F46041490B064F7A5C47682C
:104FC000D740C760F0BD0000083802400024F4005C
:104FD00000127A000000002030B587B0B04952209E
:104FE000FEF7ADFEAF4908700846007800287DD175
:104FF000AD48FEF74FFE1422AC4902A8FBF731FD85
:1050000000240AE0A8490A5D0DF10A01022303FB0E
:105010000410A7A1FBF790FA641C042CF2DB002417
:105020008AE004EB8400A44A02EB800102A8FBF7AB
:1050300033FC00287FD0FFF759FA022211462020C6
:10504000FFF766FB572202213020FFF761FB582251
:1050500002214020FFF75CFB592202215020FFF77C
:1050600057FB5A2204212020FFF752FB5B22042128
:105070003020FFF74DFB5C2204214020FFF748FB66
:105080005D2204215020FFF743FB102302AA0621D2
:105090002020FFF707FC4FF400418848FEF7EAFCA8
:1050A00087480068401C8649086002F02FFB4FF4D7
:1050B00080718248FEF7DEFCC82001F02DFA4FF423
:1050C00080717E48FEF7D4FC002504E04FF4FA70AE
:1050D00001F022FA6D1C082DF8DD4FF400417748ED
:1050E000FEF7C6FC00207749087000E0D5E0FFF726
:1050F000FDF9002203211046FFF70AFB01220321DC
:105100001220FFF705FB7048072351220121009070
:105110002E20FFF70AFA022203215C20FFF7F8FA9B
:10512000032211466E20FFF7F3FA01205D49087053
:1051300007B030BDFFE7641C644800788442FFF686
:1051400070AFFFF7D3F9022203211020FFF7E0FA36
:105150005E2203212020FFF7DBFA0F2203213020FB
:10516000FFF7D6FA102203214020FFF7D1FA65227B
:1051700003215020FFF7CCFA662203216020FFF7BD
:10518000C7FA4FF4FA7001F0C7F9FFF7AFF9002240
:1051900003211046FFF7BCFA012203211220FFF77A
:1051A000B7FA494807235122012100902E20FFF72A
:1051B000BCF9022203215C20FFF7AAFA0322114660
:1051C0006E20FFF7A5FA3F480078401C3D49087063
:1051D0000846007808285CD1FFF788F902220321ED
:1051E0001020FFF795FA5E2203212020FFF790FAA6
:1051F0000F2203213020FFF78BFA102203214020D9
:10520000FFF786FA652203215020FFF781FA662214
:1052100003216020FFF77CFA2D480068401C2C49D0
:10522000086002F073FA002410E04FF48071234804
:10523000FEF720FC322001F06FF94FF480711F4817
:10524000FEF716FC322001F067F9641C192CECDB28
:10525000FFF74CF9002203211046FFF759FA01220B
:1052600003211220FFF754FA174807235122012186
:1052700000902E20FFF759F9022203215C20FFF74E
:1052800047FA032211466E20FFF742FA00200D492B
:10529000087001200349087000BF00BF48E7000004
:1052A0007E2100207D2100208021002088A0000890
:1052B0002530325800000000F8220020001402407F
:1052C000882100207C210020A4200020380000201C
:1052D0008C21002070B504464FF400610A48FEF7A7
:1052E000C7FB7E2101EA440141F0800000F02AF86A
:1052F000FF2000F027F805464FF400610248FEF752
:10530000B9FB284670BD0000001402401CB5012105
:105310002020FFF7BDFD4FF40040009001208DF8E4
:10532000040000208DF8060003208DF80500002001
:105330008DF8070069460248FEF726FB1CBD0000F9
:105340000014024070B50446002500264FF4805139
:105350001A48FEF78DFB0520FDF7ACFE00BF28E0E4
:1053600004F0800020B110211448FEF783FB03E015
:1053700010211248FEF77CFB6006040E0520FDF7A5
:1053800099FE4FF480510D48FEF774FB0520FDF7A0
:1053900091FE6806050E04210848FEF760FB0543F0
:1053A0004FF480510548FEF763FB0520FDF782FEB0
:1053B000761C082ED4DB284670BD00000014024085
:1053C0001CB501210220FFF763FD01212020FFF71A
:1053D0005FFD01208DF8040003208DF805000020FA
:1053E0008DF8060001208DF80700009069461048EE
:1053F000FEF7CAFA4FF48050009069460C48FEF759
:10540000C3FA4FF40060009069460948FEF7BCFA01
:105410001020009069460648FEF7B6FA00208DF885
:1054200004000420009069460148FEF7ADFA1CBD57
:105430000014024010B50B490968080EFEF780FD04
:1054400008480068C0F30740FEF77AFD0548008869
:10545000C0F30720FEF774FD02490878FEF770FDDF
:1054600010BD00001000002010B504462012FEF709
:1054700067FDE0B2FEF764FD10BD10B5044620469E
:10548000FEF75EFD10BD10B5EF20FEF759FD0120BF
:10549000FEF756FD10BD10B50446C4F30720FEF715
:1054A0004FFDE0B2FEF74CFD10BD10B5044620469E
:1054B000FEF746FD10BD70B505460C460026284691
:1054C000FFF708FF064646EA0401284600F0CEFD35
:1054D00070BD00000CB500200190009034480068B9
:1054E00040F480303249086000BF3148006800F461
:1054F000003000900198401C0190009818B9019864
:10550000B0F5A04FF1D12A48006800F4003010B186
:105510000120009001E0002000900098012846D171
:1055200023484030006840F08050214940310860F5
:105530002048006840F440401E4908601C4808307C
:1055400000681B49083108600846006840F40040C4
:1055500008600846006840F4A05008601648091F1B
:105560000860081F006840F08070091F086000BFD5
:105570000F48006800F000700028F9D040F2057074
:105580000E4908600A480830006820F00300084906
:10559000083108600846006840F00200086000BF5B
:1055A00003480830006800F00C000828F8D10CBD52
:1055B000003802400070004008544007003C0240A0
:1055C00010B504462046FDF793FD10BD10B500BF91
:1055D000502080F31188BFF34F8FBFF36F8F00BF50
:1055E00003F046FD18B14FF080500449086000BF39
:1055F000002080F3118800BF10BD000004ED00E022
:1056000010B51548006840F470001349086013484D
:10561000006840F001001149086000200F4908317E
:1056200008600E4800680E4908400C4908600D48A3
:10563000091D0860081F006820F48020091F086009
:10564000002006490C310860FFF744FF4FF000606E
:1056500001498039086010BD88ED00E00038024043
:10566000FFFFF6FE1030002410B50121880700F07E
:10567000E8F880B108480068401C074908600846FF
:1056800000680A2803DD0020086002F09FF801216D
:10569000880700F0C7F810BD782000201FB5012151
:1056A0000846FFF705FC42F2CF00ADF8040047F2D0
:1056B0002F5002900020ADF80C00ADF8060001A9B3
:1056C0004FF0804000F0DAF801221146900700F018
:1056D000C9F81C208DF8000001208DF80100002081
:1056E0008DF8020001208DF803006846FEF7B8FE31
:1056F0000121880700F099F81FBD00001FB50121A6
:105700001020FFF7D5FB42F2CF00ADF8000044F6C1
:105710001F6001900020ADF80800ADF80200694656
:105720000C4800F0ABF836208DF80C0001208DF805
:105730000D008DF80E008DF80F0003A8FEF790FE07
:1057400001221146034800F08DF80121014800F0C4
:105750006CF81FBD0010004010B501210A4800F090
:1057600070F878B109480068401C0849086008468C
:105770000068282802DD012005490860012102484F
:1057800000F050F810BD0000001000407420002010
:105790007020002010B50121094800F052F868B1CE
:1057A0000848008840F40040064908800121044868
:1057B00000F038F80021024800F037F810BD000072
:1057C000001400407C2000207FB504460D460121D6
:1057D0002020FFF76DFBADF8005001940020ADF8DC
:1057E0000800ADF8020069460D4800F047F8372080
:1057F0008DF80C0000208DF80D0001208DF80E00B2
:105800008DF80F0003A8FEF72BFE01221146044875
:1058100000F028F80121024800F007F87FBD0000E1
:1058200000140040CA430282704721B1028842F04E
:105830000102028004E002884FF6FE731A400280E3
:10584000704730B50246002000230024158A05EA7F
:105850000103958905EA010413B10CB1012000E0B0
:10586000002030BD1AB183890B43838102E0838914
:105870008B43838170474162704700000022028899
:10588000184B98420ED0184B98420BD0B0F1804F75
:1058900008D0164B984205D0154B984202D0154BB4
:1058A000984204D14FF68F731A404B881A43124B1B
:1058B000984207D0114B984204D04FF6FF431A404C
:1058C0000B891A4302804B68C3620B880385054B22
:1058D000984202D0044B984201D18B7A038601236F
:1058E0008382704700000140000401400004004032
:1058F00000080040000C0040001000400014004070
:1059000010B588B0044601210420FFF7C1FA012137
:10591000C804FFF7CDFA08220A212348FEF77CF8D5
:1059200008220B212048FEF777F802208DF80800A6
:1059300003208DF8090000208DF80A0001208DF861
:105940000B004FF44060019001A91748FEF71CF8C6
:1059500004940020ADF81400ADF81600ADF818005E
:10596000ADF81C000C20ADF81A0004A90F4800F097
:105970005BFA34208DF80C0000208DF80D008DF8B6
:105980000E0001208DF80F0003A8FEF769FD01222B
:1059900040F22551054800F022FA0121034800F0A9
:1059A000DBF908B010BD000000080240004C0040C8
:1059B00010B540F22551114800F0E7F9B8B10F4891
:1059C00000F09CFA0E4908700A780E490868411CDC
:1059D0000C4B19600C490A5418460068B0F5007F5A
:1059E00005D300201946086001200849087040F2DC
:1059F0002551024800F0A1F910BD0000004C004004
:105A000084200020802000200E2F002085200020F0
:105A100010B588B0044601210846FFF739FA012184
:105A20001020FFF755FA072209212348FDF7F4FF5C
:105A300007220A212048FDF7EFFF02208DF8080019
:105A400003208DF8090000208DF80A0001208DF850
:105A50000B004FF4C060019001A91748FDF794FFB7
:105A600004940020ADF81400ADF81600ADF818004D
:105A7000ADF81C000C20ADF81A0004A90F4800F086
:105A8000D3F925208DF80C0000208DF80D008DF83D
:105A90000E0001208DF80F0003A8FEF7E1FC0122A3
:105AA00040F22551054800F09AF90121034800F021
:105AB00053F908B010BD0000000002400010014082
:105AC00010B5002440F22551064800F05EF9012887
:105AD00007D1044800F012FAC4B22146014800F090
