:020000040800F2
:10000000B02F002081020008B1230008391D00082C
:10001000C521000885110008633A000800000000AF
:10002000000000000000000000000000FD32000899
:10003000A511000800000000992D00089902000891
:100040009B0200089B0200089B0200089B0200081C
:100050009B0200089B0200089B0200089B0200080C
:100060009B0200089B0200089B0200089B020008FC
:100070009B0200089B0200089B0200089B020008EC
:100080009B0200089B0200089B0200089B020008DC
:100090009B0200089B0200089B0200089B020008CC
:1000A0009B0200089B0200089B0200089B020008BC
:1000B0009B0200089B0200089B0200089B020008AC
:1000C0009B0200089B0200089B0200089B0200089C
:1000D0009B0200089B0200083937000859380008C5
:1000E0009B0200089B0200089B0200089B0200087C
:1000F0009B0200089B0200089B0200089B0200086C
:100100009B0200089B0200089B0200089B0200085B
:100110009B0200089B0200089B02000801350008B2
:100120009B0200089B0200089B0200089B0200083B
:100130009B0200089B0200089B0200089B0200082B
:100140009B0200089B0200089B0200089B0200081B
:100150009B0200089B0200089B0200089B0200080B
:100160009B0200089B0200089B0200089B020008FB
:100170009B0200089B0200089B0200089B020008EB
:100180009B0200089B02000800F002F800F068F8EB
:100190000AA090E8000C82448344AAF10107DA45E2
:1001A00001D100F05DF8AFF2090EBAE80F0013F0CC
:1001B000010F18BFFB1A43F001031847904A0000D3
:1001C000B04A000010F8013B0A4413F0030408BFD2
:1001D00010F8014B1D1108BF10F8015B641E05D01B
:1001E00010F8016B641E01F8016BF9D1002D15D0D8
:1001F00010F8014B03F00C030C2BA1EB04040ABF15
:1002000010F8013BA4EB8314A4EB032405F10103D4
:1002100014F8016B5B1E01F8016BF9D5914238BFF0
:1002200010F8013BD1D3704700230024002500269D
:10023000103A28BF78C1FBD8520728BF30C148BF49
:100240000B607047642900F07780782900F0B08057
:10025000002070471FB504F0BFF81FBD10B510BDDA
:1002600000F098FA1146FFF7F5FF03F03BFF00F0AE
:10027000B6FA03B4FFF7F2FF03BC00F0BFFA0000C8
:100280000948804709480047FEE7FEE7FEE7FEE72A
:10029000FEE7FEE7FEE7FEE7FEE7FEE70448054966
:1002A000054A064B70470000993400088901000890
:1002B000B0290020B02F0020B02B0020B02B002050
:1002C0000FB41CB5074B06AA7B44694600900598FD
:1002D00000F021FA0020694600F030FA1CBC5DF8FD
:1002E00014FB00007104000070B5044685690068C5
:1002F000C10601D5302600E02026C00707D070BD1A
:10030000D4E9012130469047206A401C20626D1ECE
:10031000F6D570BD70B5044685690078C00707D171
:1003200070BDD4E9012120209047206A401C206242
:100330006D1EF6D570BD00002DE9F0410646002483
:1003400010687529314616A510D0AFF3008000283B
:1003500002DA404213A507E031688A0701D512A5E9
:1003600002E0490704D511A5012401E0AFF30080A4
:1003700000210A2206F1240709E0B0FBF2FCB0FBE1
:10038000F2F302FB1C00303078541846491C002858
:10039000F3D123462A463046BDE8F04100F05DB96E
:1003A000000000002D0000002B00000020000000D5
:1003B00070B504460D4621461068AFF300802188D1
:1003C000090502D50F4A7A4402E00E4A7A440E32F9
:1003D000002104F1240305E000F00F060009965DFA
:1003E0005E54491C0028F7D120780023000704D56B
:1003F000702D02D009B1022311322046BDE87040B1
:1004000000F02BB9464800002DE9F05F894604460C
:100410004FF0000ADFF824B1FB44C0F820A02046CA
:10042000E168884700287DD0252806D0D4E901213D
:100430009047206A401C2062F1E700255F46204675
:10044000E16888472028064607DB312E05D2B81917
:1004500010F8200C08B10543F1E7A80701D525F0F5
:100460000405C4F81CA00027C4F818A02A2E09D03F
:10047000304603F09DFB38B304EB8708303EC8F8E4
:10048000186019E059F8041B204604EB87029161BB
:10049000E1688847012F064618D1E069002820DA74
:1004A00025F020051DE0D8F8180000EB800006EBD1
:1004B00040003038C8F818002046E16888470646F2
:1004C00003F076FB0028EED1012F0AD02E2E08D1A2
:1004D0002046E16888477F1C0646022F45F020052C
:1004E000C4DBA069002803DA404245F00105A061A1
:1004F000E80701D025F01005A6B1A6F141001928A2
:1005000002D8203645F400654A463146204625602B
:100510004D46FFF797FE60B1012807D0ED1D25F08D
:10052000070000E007E000F1080978E705F1040999
:1005300075E730467AE7206ABDE8F09F1C48000066
:1005400030B505460B462A4613F8014B12F8010B4D
:1005500008B1A042F8D01CB1002802D06D1CF1E710
:10056000284630BD40EA0103024630B59B0710D152
:100570004FF0013400E008C208C91D1B9D4315EA75
:10058000C41FF8D013F0FF0102F8011B0DD01B0AA5
:10059000F8E711F8013B002B02F8013B05D011F8F8
:1005A000013B002B02F8013BF3D130BD10B5203ADE
:1005B000C0F00B80B1E81850203AA0E81850B1E81C
:1005C0001850A0E81850BFF4F5AF5FEA027C24BFD2
:1005D000B1E81850A0E8185044BF18C918C0BDE8C9
:1005E00010405FEA827C24BF51F8043B40F8043B92
:1005F00008BF7047D20728BF31F8023B48BF11F847
:10060000012B28BF20F8023B48BF00F8012B7047A0
:100610004FF000020429C0F0128010F0030C00F02B
:100620009480CCF1040CBCF1020F18BF00F8012B30
:10063000A8BF20F8022BA1EB0C0100F086B85FEAFE
:10064000C17C24BF00F8012B00F8012B48BF00F843
:10065000012B70477047704770472DE9F0470D46F2
:1006600099469246044600F124080168880604D59C
:10067000E06921F01001216000E00120A84201DDC5
:10068000471B00E00027A1697A1902EB0900081A4C
:10069000A0612078C00602D42046FFF725FE002680
:1006A00008E0D4E901211AF806009047206A401CAE
:1006B000761C20624E45F4DB2078C0060AD5204621
:1006C000FFF712FE06E0D4E9012130209047206AAE
:1006D000401C2062381EA7F10107F4DC07E0D4E9D2
:1006E000012118F805009047206A401C2062281E4E
:1006F000A5F10105F3DC2046FFF70CFE207800068B
:1007000002D50220BDE8F0870120FBE701694A1C01
:1007100002610878704700B58FB0CDE90131002142
:10072000059105497944CDE9031011466846FFF764
:100730006BFE0FB000BD0000E5FFFFFF0A6802F886
:10074000010B0A6070474FF0000200B51346944653
:100750009646203922BFA0E80C50A0E80C50B1F119
:100760002001BFF4F7AF090728BFA0E80C5048BF2D
:100770000CC05DF804EB890028BF40F8042B08BFCB
:10078000704748BF20F8022B11F0804F18BF00F8C7
:10079000012B7047754600F02BF8AE460500694600
:1007A000534620F00700854618B020B5FFF776FDC8
:1007B000BDE820404FF000064FF000074FF0000862
:1007C0004FF0000B21F00701AC46ACE8C009ACE8E3
:1007D000C009ACE8C009ACE8C0098D46704710B547
:1007E0000446AFF300802046BDE81040FFF741BD4E
:1007F000004870474C29002070470000014918202C
:10080000ABBEFEE7260002007FB5012501F018FE11
:1008100063220321082001F011FF5922032118202F
:1008200001F00CFF64220321282001F007FF65225C
:100830000321382001F002FF66220321482001F045
:10084000FDFE02220321582001F0F8FE5E22032162
:10085000682001F0F3FEA8E003A9522001F0CFFBCD
:100860000546002DF7D15248007832287EDA01A8DB
:1008700001F070FB4E49097801EB81014D4A02EB12
:1008800081004DA1FFF71CFD002410E048490978C4
:1008900001EB8101474B03EB8101891C022303FB20
:1008A000041001A90A5D45A1FFF70AFD641C042C90
:1008B000ECDB3F480078401C3D49087001F0C0FD6A
:1008C0004FF480713F4801F035FA642003F077F966
:1008D0004FF480713B4801F02BFA65220221102071
:1008E00001F0ACFE66220221202001F0A7FE0222C8
:1008F0001146302001F0A2FE5E220221402001F0CC
:100900009DFE5F220221502001F098FE602202210C
:10091000104601F093FE26480078401E00EB800050
:10092000244901EB800210230421182001F050FF1C
:100930004FF4FA7003F043F94FF4FA7003F03FF903
:1009400001F07EFD00220321104601F077FE012216
:100950000321122001F072FE1B48072351220121BE
:1009600000902E2001F08BFD022200E00AE003211E
:100970005C2001F063FE032211466E2001F05EFE52
:10098000012513E001F05CFD102310A202210020DC
:1009900001F01EFF4FF4FA7003F011F94FF4FA70F2
:1009A00003F00DF901F04CFD012555E700BF7FBDB7
:1009B0002C000020342200203078000025303258EE
:1009C0000000000000140240502000204E6F206DF7
:1009D0006F7265207468616E203530206B657920F8
:1009E0006361726473000000F8B5012400250026DD
:1009F00001F026FD1DE2052E56D2DFE806F0035673
:100A0000B7FCFB0063220321202001F017FE7022B7
:100A10000321302001F012FE15220321402001F0B5
:100A20000DFE16220321502001F008FE01F06FFF99
:100A300004466CBB012001F047FF0446DCB901F01D
:100A4000FFFC15220321202001F0F8FD16220321CE
:100A5000302001F0F3FD71220321402001F0EEFD72
:100A600072220321502001F0E9FD4FF4FA7003F0E7
:100A7000A6F8012618E001F0E3FC204602F006FD8E
:100A800000264FF4FA7003F09AF801F0D9FC0BE05D
:100A900001F0D6FC0026204602F0F8FC4FF4FA7074
:100AA00003F08DF801F0CCFCC2E101F0C9FC632237
:100AB0000321182001F0C2FD73220321282001F038
:100AC000BDFD70220321382001F0B8FD74220321FE
:100AD000482001F0B3FD75220321582001F0AEFD3E
:100AE0004FF4FA7003F06BF801F011FF04467CBB81
:100AF000022001F0E9FE0446ECB901F0A1FC152248
:100B00000321202001F09AFD16220321302001F05C
:100B100095FD71220321402001F090FD72220321F6
:100B2000502001F08BFD4FF4FA7003F048F801F00B
:100B300087FC022619E001F083FC204602F0A6FCA7
:100B400000264FF4FA7003F03AF801F079FC0CE05B
:100B5000FFE7012601F074FC204602F097FC4FF4F9
:100B6000FA7003F02CF801F06BFC61E101F068FC15
:100B700076220321102001F061FD7722032120203D
:100B800001F05CFD78220321302001F057FD752231
:100B90000321402001F052FD15220321502001F0D5
:100BA0004DFD0B220321602001F048FD4FF4FA7047
:100BB00003F005F801F010FF0446ECB901F040FC29
:100BC00076220321202001F039FD772203213020F5
:100BD00001F034FD5F220321402001F02FFD60224F
:100BE0000321502001F02AFD4FF4FA7002F0E7FFD4
:100BF000032627E08DE026E001F022FC7622032187
:100C0000202001F01BFD77220321302001F016FD8A
:100C100019220321402001F011FD1A220321502046
:100C200001F00CFD4FF4FA7002F0C9FF01F008FC6E
:100C3000204602F02BFC4FF4FA7002F0C0FF01F0E6
:100C4000FFFB0026F4E001F0FBFB792203211020DA
:100C500001F0F4FC5F220321202001F0EFFC1522BB
:100C60000321302001F0EAFC16220321402001F08C
:100C7000E5FC38220321502001F0E0FC3922032159
:100C8000602001F0DBFC4FF4FA7002F098FF01F0F5
:100C9000C0FE04467CBB01F0D3FB79220321002077
:100CA00001F0CCFC5F220321102001F0C7FC1522CB
:100CB0000321202001F0C2FC16220321302001F084
:100CC000BDFC38220321402001F0B8FC3922032169
:100CD000502001F0B3FC5F220321602001F0AEFC44
:100CE00060220321702001F0A9FC4FF4FA7002F099
:100CF00066FF04260CE0FFE701F0A2FB0026204679
:100D000002F0C4FB4FF4FA7002F059FF01F098FBB7
:100D10008EE001F095FB102346A20221184601F057
:100D200057FD7A220221382001F088FC7B22022123
:100D3000582001F083FC102340A20421002001F080
:100D400047FD3BE002F074FF4148007820280BD0BB
:100D50003F480078422807D1002D01DD681EC5B24A
:100D600020203B4908701BE03948007820280BD030
:100D700037480078412807D1632D01DA681CC5B2D5
:100D80002020334908700BE031480078202807D034
:100D90002F4800782A2803D120202D4908700EE022
:100DA00010232CA20621184601F012FD1020022368
:100DB0002A4606210090502001F0C6FCC2E700BF81
:100DC0002946022001F042FE044624BB01F038FB14
:100DD00013220321102001F031FC142203212020D2
:100DE00001F02CFC15220321302001F027FC1622F3
:100DF0000321402001F022FC5F220321502001F05A
:100E00001DFC60220321104601F018FC4FF4FA701B
:100E100002F0D5FEF8BD01F013FB0026204602F0DB
:100E200035FB4FF4FA7002F0CAFE01F009FB00BF77
:100E300000BFE0E5412B422D2A0000002020303D7C
:100E40003C204944203C3D3939202020000000004E
:100E500030200020594F55204944203D000000001B
:100E600010B5142002F09AF9044604F0030018B9F2
:100E70000321142002F085FA10BD000010B50446CD
:100E8000204602F091FC07A10A4802F0FBFD0A206F
:100E900002F095FE08A1074802F0F4FD0A2002F0D6
:100EA0008EFE10BD41542B4E414D4557474C574780
:100EB0004C0D0A000048004041542B524553455404
:100EC0000D0A00001CB50121202001F067FF4FF43E
:100ED0008070009001208DF8040000208DF806003D
:100EE00003208DF8050000208DF8070069460248B0
:100EF00000F0AAFE1CBD00000014024038B58C486A
:100F00000078012871D18BA18D48FFF719FB0028CB
:100F10006DD001F095FA02221146202001F08EFBDF
:100F200057220221302001F089FB58220221402063
:100F300001F084FB59220221502001F07FFB5A224C
:100F40000421202001F07AFB5B220421302001F0F3
:100F500075FB5C220421402001F070FB5D2204211E
:100F6000502001F06BFB4FF40041764800F0E2FEA8
:100F70004FF48071734800F0DDFEC82002F01FFEC0
:100F80004FF480716F4800F0D3FE002404E04FF46A
:100F9000FA7002F014FE641C082CF8DD4FF40041D6
:100FA000684800F0C5FE00206749087001F048FA63
:100FB00000220321104601F041FB012203211220EF
:100FC00001F03CFB614807235122012100902E20B3
:100FD00001F055FA022203215C2001F02FFB0322CD
:100FE00011466E2001F02AFB95E09FE0FFE758A133
:100FF0005348FFF7A5FA28B101F0E6F8002052495E
:10100000087088E054A14E48FFF79AFA28B1FFF71C
:10101000FBFB00204C4908707DE052A14848FFF7D7
:101020008FFA28B100F0C0F800204749087072E03C
:101030004FA14348FFF784FA18B3FFF7D5FC00200F
:101040004149087001F0FCF900220321104601F02B
:10105000F5FA01220321122001F0F0FA3B480723A0
:101060005122012100902E2001F009FA02220321D1
:101070005C2001F0E3FA032211466E2001F0DEFA53
:1010800049E03DA12E48FFF75BFA18B300F088F95C
:1010900000202D49087001F0D3F9002203211046E9
:1010A00001F0CCFA01220321122001F0C7FA2748EF
:1010B00007235122012100902E2001F0E0F90222A5
:1010C00003215C2001F0BAFA032211466E2001F0E0
:1010D000B5FA20E01C480078401C1B4908700846FF
:1010E0000078082817D1002410E04FF480711548CB
:1010F00000F020FE322002F062FD4FF480711148B2
:1011000000F016FE322002F05AFD641C192CECDBB4
:1011100000200D4908700020054908704FF48071C7
:101120000748FFF775FA00201549086038BD000030
:10113000140000204F70656E446F6F722300000032
:1011400034210020001402402821002050200020DB
:101150004D6F6450776423004164644B657943614B
:101160007264230044656C4B6579436172642300AB
:101170004164645F4652230044656C5F465223001D
:101180001000002000BFFEE770B505460C460026A3
:10119000284602F003F8064626EA0401284602F033
:1011A000EFFC70BD7047000038B5002401F048F92D
:1011B00036220021202001F041FA37220021302080
:1011C00001F03CFA02220021402001F037FA5E22B1
:1011D0000021502001F032FA04EB84006A4901EB4F
:1011E000800210230221182001F0F2FA102367A2D6
:1011F0000421184601F0ECFA61220421382001F0A4
:101200001DFA62220421582001F018FAB8E002F019
:101210000FFD60480078202817D05E4800784128EC
:1012200013D15D480078401EA0420ADD641C04EB27
:101230008400554901EB800210230221182001F09F
:10124000C7FA2020534908709AE0524800782028B5
:1012500014D050480078422810D1002C0ADD641EBA
:1012600004EB8400484901EB80021023022118207E
:1012700001F0AEFA20204749087081E04548007827
:1012800020287DD0434800782A2879D1002C27DBFC
:1012900041480078844223DA25460CE06A1C02EBC0
:1012A0008202394B03EB820105EB850203EB8200DE
:1012B000FFF758F96D1C38480078401EA842EDDC55
:1012C00035490978491E01EB81012F4A02EB810063
:1012D0001421FFF79DF930480078401E2E49087010
:1012E00001F0AEF836220221102001F0A7F93722D2
:1012F0000221202001F0A2F902221146302001F043
:101300009DF95E220221402001F098F95F2202211E
:10131000502001F093F960220221104601F08EF96D
:1013200004EB8400184901EB8002102304211820EB
:1013300001F04EFA4FF4FA7002F041FC01F080F82F
:1013400000220321104601F079F901220321122025
:1013500001F074F9114807235122012100902E2039
:1013600001F08DF8022203215C2001F067F90322CD
:1013700011466E2001F062F920200649087000E055
:1013800045E700BF38BD000034220020412B422D2C
:101390002A000000302000202C00002050200020D7
:1013A000F8B5002401F04CF810238DA20021184656
:1013B00001F00EFA61220021382001F03FF962228B
:1013C0000021582001F03AF9102387A20221184683
:1013D00001F0FEF96E220221182001F02FF96F2290
:1013E0000221282001F02AF915220221382001F0DB
:1013F00025F916220221482001F020F93C22022181
:10140000582001F01BF9102378A20421184601F09E
:10141000DFF97E220421202001F010F97F2204212F
:10142000302001F00BF90126D6E002F001FC7048F3
:10143000007820280FD06E48007842280BD116B1D2
:1014400000F0FEFF0026002C01DD601E84B220208B
:1014500067490870B1E06648007820280FD06448DA
:10146000007841280BD116B100F0EAFF0026632C6A
:1014700001DA601C84B220205D4908709DE05C4860
:101480000078202807D05A480078442803D120202B
:1014900057490870A1E056480078202849D05448A0
:1014A0000078232845D1002601F0F1F9054685BBD7
:1014B00000F0C6FF3A220321002001F0BFF83B22D2
:1014C0000321102001F0BAF815220321202001F099
:1014D000B5F816220321302001F0B0F83C22032198
:1014E000402001F0ABF85F220321502001F0A6F864
:1014F00060220321104601F0A1F8002704E04FF418
:10150000FA7002F05CFB7F1C022FF8DB00F098FF02
:101510000BE0FFE700F094FF284601F0B7FF4FF41F
:10152000FA7002F04CFB00F08BFF2020304908706D
:1015300043E02F48007820283FD02D4800784328EA
:101540003BD100260121204601F06BF9054635BB51
:1015500000F076FF36220321102001F06FF83722C9
:101560000321202001F06AF815220321302001F028
:1015700065F816220321402001F060F85F22032164
:10158000502001F05BF860220321104601F056F86C
:101590004FF4FA7002F013FB00F052FF0AE000F083
:1015A0004FFF284601F072FF4FF4FA7002F007FB7C
:1015B00000F046FF20200E4908706EB910230DA2DE
:1015C0000321202001F004F91020022322460321E8
:1015D0000090482001F0B8F827E700BFF8BD0000F0
:1015E000412B422D2A00000023000000440000008F
:1015F000302000204944203D2000000010B500218B
:1016000008E00C2200BF131EA2F10104E2B2FAD1DD
:101610004A1C91B28142F4DB10BD000010B50446B3
:10162000212C7DD2DFE804F011183C6590B4D8FE7F
:10163000FDFCFBFA7C7C7C7CF9F87C7C7CF77C7C78
:10164000F6F5F4F3F27C7CF1F0001023FEA2032106
:10165000382001F0BDF8F1E204220321002000F05F
:10166000EDFF05220321102000F0E8FF06220321F0
:10167000202000F0E3FF07220321302000F0DEFFEE
:1016800008220321402000F0D9FF09220321502025
:1016900000F0D4FF0A220321602000F0CFFFCDE24A
:1016A0000B220321002000F0C9FF0C22032110208F
:1016B00000F0C4FF0D220321202000F0BFFF0E2206
:1016C0000321302000F0BAFF0F220321402000F058
:1016D000B5FF10220321502000F0B0FF112203219A
:1016E000602000F0ABFF12220321702000F0A6FF63
:1016F000A4E213220321002000F0A0FF1422032102
:10170000102000F09BFF15220321202000F096FFFF
:1017100016220321302000F091FF1722032100E060
:1017200068E2402000F08AFF18220321502000F0D8
:1017300085FF19220321602000F080FF1A22032177
:10174000702000F07BFF79E215220321002000F0D9
:1017500075FF16220321102000F070FF1D220321C7
:10176000202000F06BFF1B220321302000F066FFD9
:101770001C220321402000F061FF1D220321502084
:1017800000F05CFF1E220321602000F057FF55E2AD
:1017900015220321002000F051FF16220321102002
:1017A00000F04CFF1D220321202000F047FF1B22E8
:1017B0000321302000F042FF1F220321402000F0CF
:1017C0003DFF1D220321502000F038FF202203217D
:1017D000602000F033FF31E215220321002000F0E9
:1017E0002DFF16220321102000F028FF17220321CD
:1017F000202000F023FF18220321302000F01EFFDC
:101800001D22032140200EE0DFE1C9E1A4E17FE1D8
:101810005FE144E128E1FBE0D6E0B6E08CE06CE07B
:1018200047E02CE007E000F009FF212203215020CF
:1018300000F004FF02E215220321002000F0FEFE6A
:1018400016220321102000F0F9FE2222032120207D
:1018500000F0F4FE23220321302000F0EFFE2422CA
:101860000321402000F0EAFE1D220321502000F059
:10187000E5FE25220321602000F0E0FEDEE11522D6
:101880000321002000F0DAFE16220321102000F0D0
:10189000D5FE26220321202000F0D0FE272203219E
:1018A000302000F0CBFE28220321402000F0C6FEAD
:1018B000C4E10F220321002000F0C0FE102203210A
:1018C000104600F0BBFE29220321202000F0B6FEC6
:1018D0002A220321302000F0B1FE2B2203214020D8
:1018E00000F0ACFE15220321502000F0A7FE1622C6
:1018F0000321602000F0A2FEA0E1222203210020AB
:1019000000F09CFE23220321102000F097FE2C22E1
:101910000321202000F092FE2D220321302000F030
:101920008DFE19220321402000F088FE1A22032197
:10193000502000F083FE81E12E220321002000F0E0
:101940007DFE2F220321102000F078FE302203219B
:10195000202000F073FE31220321302000F06EFEC3
:1019600032220321402000F069FE3322032150205F
:1019700000F064FE34220321602000F05FFE352277
:101980000321702000F05AFE58E136220321102076
:1019900000F054FE37220321202000F04FFE3822B1
:1019A0000321302000F04AFE39220321402000F0BC
:1019B00045FE19220321502000F040FE1A22032187
:1019C000602000F03BFE39E13A220321002000F0C4
:1019D00035FE3B220321102000F030FE15220321AA
:1019E000202000F02BFE16220321302000F026FEDE
:1019F0003C220321402000F021FE19220321502027
:101A000000F01CFE1A220321602000F017FE15E1F1
:101A10003D220321002000F011FE3E220321102070
:101A200000F00CFE3F220321202000F007FE4022A0
:101A30000321302000F002FE41220321402000F06B
:101A4000FDFD1022032101E04F4B0000502000F06B
:101A5000F5FD42220321602000F0F0FD1722032152
:101A6000702000F0EBFDE9E043220321002000F0AC
:101A7000E5FD44220321102000F0E0FD102370A2B8
:101A80000321202000F0A4FE33220321482000F08F
:101A9000D5FD09220321582000F0D0FDCEE04522DB
:101AA0000321102000F0CAFD46220321202000F06F
:101AB000C5FD47220321302000F0C0FD092203218B
:101AC000402000F0BBFD0A220321502000F0B6FDAB
:101AD000B4E041220321102000F0B0FD4222032196
:101AE000202000F0ABFD48220321302000F0A6FDAD
:101AF00049220321402000F0A1FD4A220321502069
:101B000000F09CFD4B220321602000F097FD95E042
:101B100048220321002000F091FD492203211020DA
:101B200000F08CFD4A220321202000F087FD402296
:101B30000321302000F082FD4C220321402000F0E0
:101B40007DFD09220321502000F078FD0A220321A7
:101B5000602000F073FD71E04D220321002000F0B1
:101B60006DFD4E220321102000F068FD4F2203215D
:101B7000202000F063FD50220321302000F05EFDA4
:101B800051220321402000F059FD09220321502059
:101B900000F054FD0A220321602000F04FFD4DE0CB
:101BA00015220321202000F049FD162203213020B8
:101BB00000F044FD3C220321402000F03FFD522272
:101BC0000321502000F03AFD38E02E22032120208E
:101BD00000F034FD2F220321302000F02FFD0922D8
:101BE0000321402000F02AFD0A220321502000F0AA
:101BF00025FD23E053220321082000F01FFD54227D
:101C00000321182000F01AFD55220321282000F09E
:101C100015FD56220321382000F010FD512203212A
:101C2000482000F00BFD10220321582000F006FD93
:101C30000A220321682000F001FD00BF00BF10BD93
:101C4000464C415348000000F0B50A4600210023ED
:101C5000002400BF3DE0012505FA01F3156805EAFF
:101C600003049C4234D105684F000326BE40B543AF
:101C7000056015794E00B540066835430560157955
:101C8000012D02D01579022D16D185684F0003264B
:101C9000BE40B543856055794E00B54086683543F2
:101CA0008560456801268E40B54345604568967954
:101CB0008E40B6B235434560C5684F000326BE402E
:101CC000B543C560D5794E00B540C6683543C5609B
:101CD000491C1029BFD3F0BDF0B5002300244D07E7
:101CE000ED0E02FA05F3CE1000F1200555F826504E
:101CF0004E07F70E0F26BE40B543CF1000F1200669
:101D000046F82750CE1000F1200555F8265045EA38
:101D10000304CE1000F1200545F82640F0BD024630
:101D2000002013690B400BB1012000E00020704738
:101D3000418370470183704700BFFEE71CB5012156
:101D4000102001F02BF800208DF8040001208DF800
:101D500007000002009069460148FFF775FF1CBDAF
:101D6000001002401CB50121102001F017F80120DD
:101D70008DF8040003208DF8050000208DF8060082
:101D800001208DF807000002009069460148FFF726
:101D90005BFF1CBD0010024010B5FFF7E3FF4FF4DE
:101DA00080710D48FFF7C6FF80210B48FFF7C2FF87
:101DB000052001F022FF4FF480710748FFF7B8FFBC
:101DC000052001F01AFF80210348FFF7B1FF05202D
:101DD00001F013FF10BD00000010024010B5FFF726
:101DE000C1FF4FF480710D48FFF7A2FF80210B481F
:101DF000FFF79EFF052001F000FF80210748FFF755
:101E000099FF052001F0F9FE4FF480710348FFF7B8
:101E100091FF052001F0F1FE10BD0000001002400E
:101E200010B5FFF78BFF80211048FFF781FF0520D9
:101E300001F0E3FE80210D48FFF77CFF052001F053
:101E4000DCFE4FF480710948FFF769FF08B10024F8
:101E500000E00124052001F0D0FE80210348FFF7B7
:101E600067FF052001F0C9FE204610BD00100240AA
:101E70007CB50546EF208DF8000001208DF80100AB
:101E80001A480068000E8DF8020018480068000C1F
:101E90008DF8030015480088000A8DF804001348E7
:101EA00000788DF8050007208DF8060000208DF8D9
:101EB00007000F49088012E0012001F080FE0C4865
:101EC000008800F4004050B10020094908806946AC
:101ED0000848FEF735FB04460CB120467CBD681E61
:101EE00080B2051EE8D100BFF8E7000044200020C2
:101EF0002E2000201C2600201CB50121042000F00B
:101F00004DFF40F21A20009000208DF804008DF85B
:101F1000060003208DF8050001208DF807006946B2
:101F20000B48FFF791FE4FF4F070009001208DF800
:101F3000040000208DF8060003208DF80500002025
:101F40008DF8070069460248FFF77EFE1CBD0000C1
:101F5000000802402DE9FC410446002708210846FC
:101F6000FFF712F980210E20FFF70EF900210D2056
:101F700001F006FE932020702020607001A8234607
:101F80000222214600900C2000F070F806465EB94F
:101F9000002503E0605D4740681CC5B2042DF9DBF5
:101FA000605DB84200D0022680210E2001F0E9F9E0
:101FB0003046BDE8FC8110B501F066F900F038F854
:101FC0008D212A2001F0DCFD3E212B2001F0D8FDDF
:101FD00032212D2001F0D4FD00212C2001F0D0FD74
:101FE0004021152001F0CCFD3D21112001F0C8FD5C
:101FF0000021012001F0C4FDFEF732FF10BD7CB5C9
:1020000006460C4607210D2001F0BAFD267001A8F6
:1020100023460122214600900C2000F027F80546B7
:102020001DB9BDF80400102800D0022528467CBD4B
:1020300010B501210C48FFF77DFE0120FFF7DEFA05
:1020400001210948FFF774FE0120FFF7D7FA0121AB
:102050000548FFF76FFE0120FFF7D0FA0F2101209E
:1020600001F08EFD10BD0000001402402DE9FE4F6E
:102070000646884691469A46DDF830B00220029026
:102080000020019000900C2E06D00E2E09D11220B7
:1020900001901020009005E0772001903020009002
:1020A00000E000BF00BF019840F08001022001F075
:1020B00067FD80210420FFF767F880210A2001F0E6
:1020C00060F90021012001F05BFD002506E018F811
:1020D0000510092001F054FD681C85B24D45F6DB62
:1020E0003146012001F04CFD0C2E03D180210D2042
:1020F00001F047F942F2107500BF042001F04EF8DC
:102100000446681E85B235B104F0010018B9009884
:1021100020400028F1D080210D20FFF735F8002D58
:1021200036D0062001F03AF800F01B0070BB019891
:10213000204000F0010008B1012002900C2E22D1B5
:102140000A2001F02BF804460C2001F027F800F0DB
:1021500007072FB1601E07EBC000ABF8000002E0DC
:10216000E000ABF8000004B90124122C00DD1224B9
:10217000002506E0092001F011F80AF80500681CA6
:1021800085B2A542F6DB0020029001E00220029019
:1021900080210C2001F0F4FC0021012001F0F0FC72
:1021A0000298BDE8FE8F000000BF0549098801F0D4
:1021B00040010029F9D00249091D0880704700003C
:1021C0000044004000BFFEE738B510217248FEF71A
:1021D0001FFA00207149086000F032F963220221E1
:1021E000002000F02BFA68220221102000F026FACD
:1021F00014220221202000F021FA6922022130203D
:1022000000F01CFA6A220221402000F017FA6B222B
:102210000221502000F012FA6C220221602000F00E
:102220000DFA6D220221702000F008FA67220421C5
:10223000002000F003FA51220421102000F0FEF9E2
:10224000102357A20621002000F0C2FA6E220621B8
:10225000082000F0F3F96F2352A20621182000F0A5
:10226000B7FA61220621282000F0E8F9622206214F
:10227000382000F0E3F901248AE001F0D9FC4A4853
:102280000078202826D0484800782A2822D04648BE
:10229000007823281ED014B100F0D2F800243F4863
:1022A0000068102812DA40490A783C490868411C45
:1022B0003A4B196038490A5400201A46126888546B
:1022C00010230A460221082000F082FA2020364915
:1022D00008705DE0344800782A2849D100F0B0F851
:1022E00067220321102000F0A9F9512203212020A8
:1022F00000F0A4F96B220321302000F09FF96C223A
:102300000321402000F09AF95F220321502000F0C1
:1023100095F960220321104600F090F94FF4FA700D
:1023200001F04DFC4FF4FA7001F049FC00F088F820
:1023300000220321104600F081F90122032112201E
:1023400000F07CF9194807235122012100902E202A
:1023500000F095F8022203215C2000F06FF90322BF
:1023600011466E2000F06AF920200F49087010E035
:102370000D48007823280BD100F062F810210648A0
:10238000FEF746F90020054908602020064908703C
:1023900073E700BF38BD00001500002028000020B2
:1023A000230000002A0000003020002050200020E0
:1023B0007047000070B5002100230F22C4781CB3C1
:1023C000174C246804F4E064C4F5E064C4F3072106
:1023D000C1F10404E3B20A4144789C40E1B284783C
:1023E000144021430C07210E0E4C057861550478EA
:1023F00004F01F050124AC4005786D11AD0005F116
:10240000E025C5F8004109E0047804F01F05012427
:10241000AC40054D0678761145F8264070BD0000A9
:102420000CED00E000E400E080E100E0024901433F
:10243000024A1160704700000000FA050CED00E050
:1024400070B5002418E004F1B000002100F0DDF9BF
:102450000021084600F0D9F90021102000F0D5F93C
:10246000002505E00121002000F0CFF9681CC5B26D
:10247000802DF7DB601CC4B2082CE4DB70BD2DE9B5
:10248000F05F06460F4690461C46DDF828A04FF048
:10249000000BE11704EB5171C910A4EBC10131B974
:1024A0002046E11704EB5171C1F3C70506E0204651
:1024B000E11704EB5171C910491CCDB23D4615E03E
:1024C0002946304600F0A6F8B1460BE059460BF11C
:1024D000010B1AF80100012100F097F909F1010040
:1024E00000F0FF09C145F1DB681CC5B2A542E7DB7E
:1024F000BDE8F09F1CB50121102000F04FFC012029
:102500008DF8040003208DF8050000208DF80600EA
:1025100001208DF807000002009069463C48FFF753
:1025200093FB8020009069463948FFF78DFBC82057
:1025300001F045FB0021AE2000F067F900210846BC
:1025400000F063F90021102000F05FF90021402025
:1025500000F05BF90021B02000F057F90021812044
:1025600000F053F90021FF2000F04FF90021A120D5
:1025700000F04BF90021A62000F047F90021A82027
:1025800000F043F900213F2000F03FF90021C8206E
:1025900000F03BF90021D32000F037F90021084674
:1025A00000F033F90021D52000F02FF90021802020
:1025B00000F02BF90021D82000F027F90021052098
:1025C00000F023F90021D92000F01FF90021F120AB
:1025D00000F01BF90021DA2000F017F90021122089
:1025E00000F013F90021DB2000F00FF9002130206A
:1025F00000F00BF900218D2000F007F900211420D4
:1026000000F003F90021AF2000F0FFF81CBD00002E
:102610000010024070B504460D4605F1B0000021DF
:1026200000F0F3F8102141EA1410002100F0EDF859
:1026300004F00F00002100F0E8F870BD2DE9F04132
:1026400080460E461546002731464046FFF7E2FF1A
:1026500000240AE0124A02EB8511085D012100F016
:10266000D4F8781CC7B2601CC4B2102CF2DB701C0A
:10267000C1B24046FFF7CEFF00240CE06900491CC0
:10268000074A02EB4111085D012100F0BEF8781CF9
:10269000C7B2601CC4B2102CF0DBBDE8F0810000B2
:1026A0002D0000202DE9F04707460E46904699463A
:1026B00000250024A8F12000C5B27F2F02DD0027ED
:1026C000B01CC6B2B9F1100F24D131463846FFF71D
:1026D000A1FF002408E004EB0511194A505C012118
:1026E00000F093F8601CC4B2082CF4DB701CC1B27B
:1026F0003846FFF78FFF002409E004EB051108318D
:102700000F4A505C012100F080F8601CC4B2082C14
:10271000F3DB12E031463846FFF77CFF00240AE085
:1027200005EB4501074A02EB4101085D012100F07C
:102730006CF8601CC4B2062CF2DBBDE8F087000028
:102740000A460008E24300082DE9FF5F074691466C
:102750001E460E9D4FF0000A002435E0301B401E3F
:10276000C1B20A2001F002FDB9FBF0F00A21B0FB72
:10277000F1F201FB1208BAF1000F14D1701EA04251
:1027800011DDB8F1000F0CD1AB4605EBDB71491040
:1027900001FB0471C8B22B4620220199FFF782FF8A
:1027A00010E04FF0010AAB4605EBDB71491001FB6D
:1027B0000471C8B208F13001CAB22B460199FFF783
:1027C00071FF00BF601CC4B2B442C7DBBDE8FF9F0D
:1027D0002DE9F04104460F461546984600260FE0C5
:1027E000AA5D434639462046FFF75CFF04F1080026
:1027F000C4B2782C02DD0024B81CC7B2701CC6B26B
:10280000A85D0028ECD1BDE8F08170B504460D4606
:102810001DB1E0B201F09EF902E0E0B201F084F9EE
:1028200070BD2DE9F04104460D4600F092FD00F028
:1028300067FD012000F087FD072000F092FD0C20CD
:1028400000F099FD2012FFF7AFFCE0B2FFF7ACFCFF
:102850002812FFF7A9FCE8B2FFF7A6FC142000EB52
:102860002420E1B2084400EB2520E9B200EB010886
:10287000404600F05FFD4FF4FA60FFF7F9FA0746B3
:102880000FB17E7A00E0FF263046BDE8F08170B5DA
:1028900000F05FFD00F034FD012000F054FD032046
:1028A00000F05FFD0D2000F066FD1126304600F0BF
:1028B00041FD4FF4FA60FFF7DBFA05460DB16C7A83
:1028C00000E0FF24204670BD2DE9F041054600F0F0
:1028D00040FD00F015FD012000F035FD042000F062
:1028E00040FD022000F047FD2846FFF75DFCEF1D8C
:1028F000384600F01FFD4FF4FA60FFF7B9FA0646BC
:102900000EB1747A00E0FF242046BDE8F08170B576
:1029100000F01FFD00F0F4FC012000F014FD032086
:1029200000F01FFD012000F026FD0526304600F0D6
:1029300001FD4FF4FA60FFF79BFA05460DB16C7A82
:1029400000E0FF24204670BD2DE9F04781460D468A
:1029500016461F4600F0FDFC00F0D2FC012000F0FE
:10296000F2FC082000F0FDFC1B2000F004FD4846AE
:10297000FFF71AFC2812FFF717FCE8B2FFF714FC68
:102980003012FFF711FCF0B2FFF70EFC09F1240042
:1029900000EB2520E9B2084400EB2620F1B200EB61
:1029A000010A504600F0C6FC4FF4FA60FFF760FAE7
:1029B000044664B194F80980E07AA17A00EB012022
:1029C0003880607B217B00EB0120788001E04FF0B4
:1029D000FF084046BDE8F08770B500F0BAFC00F093
:1029E0008FFC012000F0AFFC032000F0BAFC0320B4
:1029F00000F0C1FC0726304600F09CFC4FF4FA6062
:102A0000FFF736FA05460DB16C7A00E0FF24204648
:102A100070BD70B500F09DFC00F072FC012000F06C
:102A200092FC032000F09DFC052000F0A4FC092688
:102A3000304600F07FFC4FF4FA60FFF719FA0546C4
:102A40000DB16C7A00E0FF24204670BD2DE9F04105
:102A500006460C4600F07DFC00F052FC012000F020
:102A600072FC062000F07DFC062000F084FC30465D
:102A7000FFF79AFB2012FFF797FBE0B2FFF794FBFA
:102A800006F10D0000EB2420E1B200EB0108404606
:102A900000F050FC4FF4FA60FFF7EAF907460FB177
:102AA0007D7A00E0FF252846BDE8F08138B5B348BF
:102AB000007820287ED0B14800782A28FAD0AF4884
:102AC00000782328F6D0FFF7BBFC00251021AC4886
:102AD000FDF79EFD0020AB490860A8490A78A94986
:102AE0000868411CA74B1960A5490A5400201A46E2
:102AF0001268885410230A4602210820FFF768FE56
:102B000020209E49087035E101F092F89B4800783A
:102B1000202827D0994800782A2823D09748007881
:102B200023281FD015B1FFF78BFC002595480068BE
:102B3000102813DA91490A7892490868411C914B90
:102B400019608F490A5400218D481A461268815431
:102B50001023024602210820FFF73AFE2020874971
:102B6000087007E1854800782A2873D1FFF768FCD0
:102B700085498348FDF7E4FC00286DD00222114608
:102B80002020FFF75BFD572202213020FFF756FD82
:102B9000582202214020FFF751FD592202215020E6
:102BA000FFF74CFD5A2204212020FFF747FD5B224E
:102BB000042100E0E1E03020FFF740FD5C22042129
:102BC0004020FFF73BFD5D2204215020FFF736FD3A
:102BD0004FF400416D48FFF7ADF84FF480716B483A
:102BE000FFF7A8F8C82000F0EAFF4FF480716748AB
:102BF000FFF79EF8002404E04FF4FA7000F0DFFFC6
:102C0000641C082CF8DD4FF400416048FFF790F891
:102C100000205F490870FFF713FC002203211046D3
:102C2000FFF70CFD012203211220FFF707FD594891
:102C300007235122012100902E20FFF720FC0222C1
:102C400003215C20FFF7FAFC032211466E20FFF7F8
:102C5000F5FC5DE060E0FFE7672203212020FFF73D
:102C6000EDFC512203213020FFF7E8FC092203216B
:102C70004020FFF7E3FC0A2203215020FFF7DEFC8F
:102C800043480078401C42490870084600780828EC
:102C900017D1002410E04FF480713C48FFF74AF848
:102CA000322000F08CFF4FF480713848FFF740F875
:102CB000322000F084FF641C192CECDB0020344926
:102CC0000870002404E04FF4FA7000F078FF641CF0
:102CD000042CF8DBFFF7B4FB002203211046FFF7BA
:102CE000ADFC012203211220FFF7A8FC294807238D
:102CF0005122012100902E20FFF7C1FB0222032167
:102D00005C20FFF79BFC032211466E20FFF796FC28
:102D100020201A4908702EE018480078232829D16D
:102D2000FFF78EFB102117480068FDF771FC0020AB
:102D30001449086020201149087000220321104620
:102D4000FFF77CFC012203211220FFF777FC1148DA
:102D500007235122012100902E20FFF790FB022231
:102D600003215C20FFF76AFC032211466E20FFF767
:102D700065FC0125C8E600BF00BF38BD302000203B
:102D80003C290020242100201500002000140240CE
:102D900028210020502000207047000029B1064A59
:102DA00012680243044B1A6004E0034A126882432B
:102DB000014B1A60704700003038024029B1064AC2
:102DC00012680243044B1A6004E0034A126882430B
:102DD000014B1A607047000040380240F0B50021F6
:102DE00000220024022500260223324F3F6807F00C
:102DF0000C0121B1042905D0082937D105E02E4F57
:102E0000076036E02D4F076033E02A4F3F1F3F68D1
:102E1000C7F38056274F3F1F3F6807F03F036EB14F
:102E2000264FB7FBF3F7DFF88CC0ACF1040CDCF8ED
:102E300000C0CCF3881C07FB0CF40CE01E4FB7FB62
:102E4000F3F7DFF870C0ACF1040CDCF800C0CCF391
:102E5000881C07FB0CF4174F3F1F3F68C7F301475F
:102E60007F1C7D00B4FBF5F7076002E0124F07609E
:102E700000BF00BF0F4F3F6807F0F0010909104F76
:102E80007A5C0768D74047600A4F3F6807F4E05113
:102E9000890A0B4F7A5C4768D7408760054F3F68C7
:102EA00007F46041490B064F7A5C4768D740C7601A
:102EB000F0BD0000083802400024F40000127A003F
:102EC0000000002030B587B0A9495220FFF797F8DD
:102ED000A84908700846007800287DD1A648FFF769
:102EE00039F81422A54902A8FDF760FB00240AE086
:102EF000A1490A5D0DF10A01022303FB0410A0A100
:102F0000FDF7DEF9641C042CF2DB002483E004EB03
:102F100084009D4A02EB800102A8FDF711FB002806
:102F200078D0FFF78DFA022211462020FFF786FBAA
:102F3000572202213020FFF781FB58220221402036
:102F4000FFF77CFB592202215020FFF777FB5A2222
:102F500004212020FFF772FB5B2204213020FFF7C1
:102F60006DFB5C2204214020FFF768FB5D220421F9
:102F70005020FFF763FB102302AA06212020FFF751
:102F800027FC4FF400418148FEF7D4FE4FF48071D6
:102F90007E48FEF7CFFEC82000F011FE4FF480718E
:102FA0007A48FEF7C5FE002504E04FF4FA7000F001
:102FB00006FE6D1C082DF8DD4FF400417348FEF746
:102FC000B7FE002072490870FFF73AFA0022032189
:102FD0001046FFF733FB00E0C7E001220321122077
:102FE000FFF72CFB6B4807235122012100902E2074
:102FF000FFF745FA022203215C20FFF71FFB0322A3
:1030000011466E20FFF71AFB01205A49087007B0DD
:1030100030BDFFE7641C604800788442FFF677AF5C
:10302000FFF70EFA022203211020FFF707FB5E22B2
:1030300003212020FFF702FB0F2203213020FFF79E
:10304000FDFA102203214020FFF7F8FA6522032140
:103050005020FFF7F3FA662203216020FFF7EEFA13
:103060004FF4FA7000F0ABFDFFF7EAF900220321FC
:103070001046FFF7E3FA012203211220FFF7DEFAE0
:10308000444807235122012100902E20FFF7F7F931
:10309000022203215C20FFF7D1FA032211466E20A1
:1030A000FFF7CCFA3A480078401C394908700846C6
:1030B0000078082855D1FFF7C3F902220321102018
:1030C000FFF7BCFA5E2203212020FFF7B7FA0F2298
:1030D00003213020FFF7B2FA102203214020FFF72E
:1030E000ADFA652203215020FFF7A8FA66220321DA
:1030F0006020FFF7A3FA002410E04FF4807123480A
:10310000FEF718FE322000F05AFD4FF480711F4880
:10311000FEF70EFE322000F052FD641C192CECDB91
:10312000FFF78EF9002203211046FFF787FA0122EC
:1031300003211220FFF782FA1648072351220121AA
:1031400000902E20FFF79BF9022203215C20FFF75D
:1031500075FA032211466E20FFF770FA00200C4921
:10316000087001200349087000BF00BF4FE700004E
:103170002A210020292100202C210020FC4B0008BE
:103180002530325800000000342200200014024094
:1031900028210020502000202C00002070B504467B
:1031A0004FF400610A48FEF7C3FD7E2101EA4401A5
:1031B00041F0800000F02AF8FF2000F027F80546D3
:1031C0004FF400610248FEF7B5FD284670BD0000CF
:1031D000001402401CB501212020FFF7DFFD4FF451
:1031E0000040009001208DF8040000208DF80600BA
:1031F00003208DF8050000208DF80700694602487D
:10320000FEF722FD1CBD00000014024070B504460C
:10321000002500264FF480511A48FEF789FD05204D
:1032200000F0EBFC00BF28E004F0800020B110218A
:103230001448FEF77FFD03E010211248FEF778FDE9
:103240006006040E052000F0D8FC4FF480510D48B4
:10325000FEF770FD052000F0D0FC6806050E042185
:103260000848FEF75CFD05434FF480510548FEF722
:103270005FFD052000F0C1FC761C082ED4DB28463B
:1032800070BD0000001402401CB501210220FFF7B0
:1032900085FD01212020FFF781FD01208DF804002C
:1032A00003208DF8050000208DF8060001208DF820
:1032B0000700009069461048FEF7C6FC4FF48050A6
:1032C000009069460C48FEF7BFFC4FF40060009088
:1032D00069460948FEF7B8FC102000906946064888
:1032E000FEF7B2FC00208DF804000420009069462F
:1032F0000148FEF7A9FC1CBD001402407047000005
:1033000010B50B490968080EFEF74EFF0848006823
:10331000C0F30740FEF748FF05480088C0F30720C8
:10332000FEF742FF02490878FEF73EFF10BD00009D
:103330004420002010B504462012FEF735FFE0B20D
:10334000FEF732FF10BD10B504462046FEF72CFFF5
:1033500010BD10B5EF20FEF727FF0120FEF724FF78
:1033600010BD10B50446C4F30720FEF71DFFE0B200
:10337000FEF71AFF10BD10B504462046FEF714FFF5
:1033800010BD70B505460C4600262846FFF706FF1F
:10339000064646EA0401284600F0F2FB70BD000034
:1033A0000CB50020019000903448006840F4803053
:1033B0003249086000BF3148006800F400300090D6
:1033C0000198401C0190009818B90198B0F5A04FE1
:1033D000F1D12A48006800F4003010B101200090BB
:1033E00001E0002000900098012846D12348403099
:1033F000006840F080502149403108602048006852
:1034000040F440401E4908601C48083000681B49D1
:10341000083108600846006840F40040086008462B
:10342000006840F4A05008601648091F0860081F93
:10343000006840F08070091F086000BF0F480068F6
:1034400000F000700028F9D040F205700E490860C5
:103450000A480830006820F0030008490831086075
:103460000846006840F00200086000BF03480830CA
:10347000006800F00C000828F8D10CBD00380240AC
:103480000070004008544007003C024010B504465C
:103490002046FEF7C3F810BD10B51548006840F48B
:1034A0007000134908601348006840F0010011499A
:1034B000086000200F49083108600E4800680E4976
:1034C00008400C4908600D48091D0860081F006885
:1034D00020F48020091F0860002006490C31086094
:1034E000FFF75EFF4FF0006001498039086010BDB2
:1034F00088ED00E000380240FFFFF6FE10300024A7
:1035000010B50121094800F052F868B10848008858
:1035100040F40040064908800121044800F038F8D2
:103520000021024800F037F810BD000000140040F0
:103530002E2000207FB504460D4601212020FFF7F4
:103540003DFCADF8005001940020ADF80800ADF846
:10355000020069460D4800F047F837208DF80C004E
:1035600000208DF80D0001208DF80E008DF80F0061
:1035700003A8FEF71FFF01221146044800F028F8B7
:103580000121024800F007F87FBD00000014004050
:10359000CA430282704721B1028842F001020280D0
:1035A00004E002884FF6FE731A400280704730B57F
:1035B0000246002000230024158A05EA01039589AC
:1035C00005EA010413B10CB1012000E0002030BD78
:1035D0001AB183890B43838102E083898B43838102
:1035E000704741627047000000220288184B9842E1
:1035F0000ED0184B98420BD0B0F1804F08D0164B2C
:10360000984205D0154B984202D0154B984204D1F0
:103610004FF68F731A404B881A43124B984207D0CB
:10362000114B984204D04FF6FF431A400B891A43BE
:1036300002804B68C3620B880385054B984202D019
:10364000044B984201D18B7A038601238382704711
:103650000000014000040140000400400008004058
:10366000000C0040001000400014004010B588B06D
:10367000044601210846FFF791FB01214804FFF7AA
:103680009DFB072202212848FEF726FB0722032183
:103690002548FEF721FB02208DF8080003208DF855
:1036A000090000208DF80A0001208DF80B000C2085
:1036B000019001A91C48FEF7C7FA04940020ADF858
:1036C0001400ADF81600ADF81800ADF81C000C2081
:1036D000ADF81A0004A9154800F050F926208DF81D
:1036E0000C0000208DF80D008DF80E0001208DF8E3
:1036F0000F0003A8FEF75EFE012240F225510B48A1
:1037000000F017F90121094800F0D0F842F2CF018A
:103710006320FFF70FFF00200549088000210548BE
:10372000FFF739FF08B010BD000002400044004020
:103730002E2000200014004010B540F225511648FC
:1037400000F0CDF8F8B1144800F082F9C4B2134883
:10375000008800F40040B0B910480088B0F5C87F78
:1037600012DA00210E48FFF73CFF0C48008818B918
:1037700001210B48FFF70FFF08490888411C074A41
:10378000118008490C5405E00448008840F40040CA
:103790000249088010BD0000004400402E20002097
:1037A000001400401C26002010B588B004460121FA
:1037B0000220FFF7F3FA01218804FFF7FFFA07223E
:1037C0000A212348FEF788FA07220B212048FEF73A
:1037D00083FA02208DF8080003208DF809000020EC
:1037E0008DF80A0001208DF80B004FF44060019025
:1037F00001A91748FEF728FA04940020ADF8140038
:10380000ADF81600ADF81800ADF81C000C20ADF8AE
:103810001A0004A90F4800F0B1F827208DF80C0019
:1038200000208DF80D008DF80E0001208DF80F009E
:1038300003A8FEF7BFFD012240F22551054800F024
:1038400078F80121034800F031F808B010BD0000FD
:10385000000402400048004010B540F225510F48D6
:1038600000F03DF8012818D10D480068FF2814DC4D
:103870000A4800F0EDF8C1B209480468601C084A23
:1038800010600848015510460068401E0549085C54
:10389000232802D101200449087010BD00480040CF
:1038A00010000020342100201400002021B1828962
:1038B00042F40052828104E082894DF6FF731A407F
:1038C0008281704702460020B1F5007F00D100BF21
:1038D00013880B400BB1012000E00020704770B549
:1038E0000246002400230025002040F66A16B1425B
:1038F00000D100BFC1F3421501F01F03012606FAF3
:1039000003F3012D02D19689334006E0022D02D146
:10391000168A334001E0968A33400C12012606FADB
:1039200004F41688344013B10CB1012000E00020EB
:1039300070BDF0B50346002400260025002040F6A7
:103940006A17B94200D100BF1846C1F3421401F012
:103950001F06012707FA06F5012C01D10C3004E0FF
:10396000022C01D1103000E014301AB107682F4347
:10397000076002E00768AF430760F0BD2DE9FF472D
:1039800005460E460024A14600BFA046B08900B1FE
:1039900000BF2C8A24F44054F08804432C82AC8964
:1039A00041F20C608443B08831890843718908432F
:1039B0000443AC81AC8A24F44074B0890443AC82E3
:1039C0006846FFF70BFA2048854202D01F4885421F
:1039D00002D1DDF80C9001E0DDF80890A88900F430
:1039E000004040B109EBC90000EB09103168490003
:1039F000B0FBF1F707E009EBC90000EB09103168F3
:103A00008900B0FBF1F76420B7FBF0F00401200956
:103A1000642101FB1078A88900F4004040B13220F5
:103A200000EBC800B0FBF1F000F00700044308E031
:103A3000322000EB08106421B0FBF1F000F00F0021
:103A400004432C81BDE8FF870010014000140140B1
:103A500001468888C0F308007047C1F308028280DD
:103A6000704700BFFEE770B504460D462946204664
:103A7000FFF7F3FF00BF80212046FFF723FF002858
:103A8000F9D070BD70B506460C46002500BF615DDB
:103A90003046FFF7E8FF6D1C605D0028F7D100BFDE
:103AA00040213046FFF70EFF0028F9D070BD00001E
:103AB00070B505460024FEF755F94FF4807119489A
:103AC000FEF736F980211748FEF732F9052000F09D
:103AD00094F800BF23E0C4F107010120884028408A
:103AE00028B14FF480710F48FEF724F904E04FF439
:103AF00080710C48FEF71CF9052000F07EF880214B
:103B00000848FEF717F9052000F077F880210548EE
:103B1000FEF70EF9052000F070F8601CC4B2082C06
:103B2000D9DB70BD0010024010B50446FEF734F931
:103B30007820FFF7BDFFFEF773F90020FFF7B8FF0D
:103B4000FEF76EF92046FFF7B3FFFEF769F9FEF7BF
:103B500045F910BD10B50446FEF71EF97820FFF7B1
:103B6000A7FFFEF75DF94020FFF7A2FFFEF758F927
:103B70002046FFF79DFFFEF753F9FEF72FF910BD22
:103B800070B504460D464FF400610848FEF7D0F8C2
:103B90007E2101EA4400FFF739FB2846FFF736FB98
:103BA0004FF400610148FEF7C5F870BD00140240F3
:103BB00030380A2801D201207047002070470021C8
:103BC0004FF0E022116140F6412141430122C2EB56
:103BD000C1014FF0E0225161002191610121116189
:103BE00000BF4FF0E021096901F480310029F8D0CD
:103BF00000214FF0E0221161704700214FF0E022D8
:103C00001161C0EBC00101EB4101491E516100216E
:103C100091610121116100BF4FF0E021096901F4B8
:103C200080310029F8D000214FF0E0221161704767
:103C300010B52021FE48FEF77BF84021FC48FEF736
:103C400079F88021FA48FEF775F84FF48071F8484A
:103C5000FEF770F80221F648FEF761F860B9F54802
:103C6000007848B90520FFF7AAFF3120F249087013
:103C70000120F04908700BE00221ED48FEF74FF8F3
:103C8000012805D10520FFF79AFF0020E9490870B7
:103C90004FF40071E648FEF742F860B9E748007853
:103CA00048B90520FFF78BFF3420E3490870012055
:103CB000E24908700CE04FF40071DD48FEF72FF880
:103CC000012805D10020DD4908700520FFF777FFA6
:103CD0000821D748FEF723F860B9D948007848B9D9
:103CE0000520FFF76CFF3720D34908700120D44925
:103CF00008700BE00821CE48FEF711F8012805D125
:103D00000520FFF75CFF0020CD4908701021C8484E
:103D1000FEF705F860B9CB48007848B90520FFF7F1
:103D20004EFF2A20C44908700120C64908700BE0E4
:103D30001021BF48FDF7F3FF012805D10520FFF74B
:103D40003EFF0020BF4908702021B948FDF7F2FF6F
:103D50004021B748FDF7ECFF8021B548FDF7EAFFA9
:103D60004FF48071B248FDF7E5FF0221B048FDF73E
:103D7000D6FF60B9B448007848B90520FFF71FFFA7
:103D80003220AD4908700120AF4908700BE00221D4
:103D9000A748FDF7C4FF012805D10520FFF70FFF55
:103DA0000020A94908704FF40071A148FDF7B7FF42
:103DB00060B9A648007848B90520FFF700FF352014
:103DC0009D4908700120A14908700CE04FF4007172
:103DD0009748FDF7A4FF012805D10520FFF7EFFE66
:103DE00000209A49087008219148FDF798FF60B9B2
:103DF0009748007848B90520FFF7E1FE38208E4942
:103E000008700120924908700BE008218848FDF7EE
:103E100086FF012805D10520FFF7D1FE00208C493F
:103E2000087010218248FDF77AFF60B98948007850
:103E300048B90520FFF7C3FE30207F4908700120F4
:103E4000844908700BE010217948FDF768FF0128CC
:103E500005D10520FFF7B3FE00207E490870202120
:103E60007348FDF767FF40217148FDF763FF80212C
:103E70006F48FDF75DFF4FF480716D48FDF75AFF05
:103E800002216B48FDF74BFF60B97348007848B9D1
:103E90000520FFF794FE33206749087001206E4922
:103EA00008700BE002216248FDF739FF012805D1B7
:103EB0000520FFF784FE0020674908704FF4007169
:103EC0005B48FDF72CFF60B96448007848B90520CD
:103ED000FFF775FE36205849087001205F490870C9
:103EE0000CE04FF400715248FDF719FF012805D18D
:103EF0000520FFF764FE00205849087008214C484F
:103F0000FDF70DFF60B95648007848B90520FFF766
:103F100056FE3920484908700120514908700BE0CD
:103F200008214348FDF7FBFE012805D10520FFF7D6
:103F300046FE00204A49087010213D48FDF7EFFE7B
:103F400060B94848007848B90520FFF738FE2320BB
:103F5000394908700120434908700BE010213448AA
:103F6000FDF7DDFE012805D10520FFF728FE002022
:103F70003C49087020212E48FDF7DCFE40212C48EA
:103F8000FDF7D8FE80212A48FDF7D4FE4FF480715A
:103F90002748FDF7CDFE02212548FDF7C0FE60B998
:103FA0003148007848B90520FFF709FE4120224931
:103FB000087001202C4908700BE002211C48FDF715
:103FC000AEFE012805D10520FFF7F9FD00202649A6
:103FD00008704FF400711648FDF7A1FE60B9234840
:103FE000007848B90520FFF7EAFD42201249087021
:103FF00001201E4908700CE04FF400710C48FDF7D9
:104000008EFE012805D10520FFF7D9FD00201749B4
:10401000087008210648FDF782FE58BB1448007856
:1040200040BB0520FFF7CBFD43200349087022E089
:1040300000080240312000203020002034200020E1
:10404000372000203B200020322000203520002097
:10405000382000203A200020332000203620002085
:10406000392000203C2000203D2000203E20002060
:104070003F20002003E00120164908700BE00821D2
:104080001548FDF74CFE012805D10520FFF797FDE7
:1040900000201049087010210F48FDF740FE60B95C
:1040A0000E48007848B90520FFF789FD44200C49E7
:1040B00008700120094908700BE010210648FDF73F
:1040C0002EFE012805D10520FFF779FD00200349C8
:1040D000087010BD3F200020000802404020002052
:1040E0003020002008B54FF41650FCF7C7FEFDF74E
:1040F00062FFFFF76FF8FCF7E5FEFDF7FDFE4FF4FA
:10410000A060FEF793F94FF46140FFF7AFFAFEF7B6
:10411000F1F9FEF795F9002203211046FEF78EFA19
:10412000012203211220FEF789FA0F4807235122AA
:10413000012100902E20FEF7A2F9022203215C202B
:10414000FEF77CFA032211466E20FEF777FA09E0AB
:10415000FFF76EFDFEF7AAFC00F014F8FEF7B2FEC2
:10416000FCF7CCFEF4E700005020002010B502461A
:10417000012000E050430B1EA1F10104E1B2F9D18E
:1041800010BD000030B587B0FEF7C1FB0446002C1F
:104190007ED10120FEF798FB0446002CF8D106AB37
:1041A000632200210120FEF7CFFB0446002C70D1D2
:1041B000FEF746F9152202211020FEF73FFA1622DB
:1041C00002212020FEF73AFA7C2202213020FEF75D
:1041D00035FA7D2202214020FEF730FA5F220221CB
:1041E0005020FEF72BFA602202211046FEF726FA35
:1041F000BDF81A30BDF8182070A101A8FCF760F8CE
:10420000102301AA04210020FEF7E2FA4FF4FA700D
:10421000FFF7D5FC4FF4FA70FFF7D1FCFEF710F969
:10422000022211462020FEF709FA572202213020EF
:10423000FEF704FA582202214020FEF7FFF9592226
:1042400002215020FEF7FAF95A2204212020FEF71D
:10425000F5F95B2204213020FEF7F0F95C220421FD
:104260004020FEF7EBF95D2204215020FEF7E6F92D
:104270004FF400415548FDF75DFD4FF48071534800
:10428000FDF758FDC820FFF79AFC4FF4807101E05C
:1042900092E032E04D48FDF74BFD002504E04FF47D
:1042A000FA70FFF78CFC6D1C082DF8DD4FF400410F
:1042B0004648FDF73DFD002045490870FEF7C0F86F
:1042C000002203211046FEF7B9F901220321122032
:1042D000FEF7B4F93F4807235122012100902E2018
:1042E000FEF7CDF8022203215C20FEF7A7F9032296
:1042F00011466E20FEF7A2F95EE0FEF7A1F8152246
:1043000003211020FEF79AF9162203212020FEF740
:1043100095F97C2203213020FEF790F97D220321BC
:104320004020FEF78BF9192203215020FEF786F971
:104330001A2203216020FEF781F925480078401CED
:104340002349087008460078082817D1002510E096
:104350004FF480711D48FDF7EDFC3220FFF72FFC74
:104360004FF480711948FDF7E3FC3220FFF727FC7A
:104370006D1C192DECDB002015490870FEF760F864
:10438000002203211046FEF759F9012203211220D1
:10439000FEF754F90F4807235122012100902E20E7
:1043A000FEF76DF8022203215C20FEF747F9032295
:1043B00011466E20FEF742F907B030BD49443A2558
:1043C000642073636F72653A256400000014024034
:1043D00028210020502000204FF04070E1EE100A0C
:1043E00070470000000000000000002F00000000E7
:1043F0000700070000147F147F1400242A7F2A126C
:10440000006264081323003649552250000005035A
:10441000000000001C224100000041221C0000148A
:10442000083E08140008083E0808000000A06000CC
:10443000000808080808000060600000002010085C
:104440000402003E5149453E0000427F40000042C8
:1044500061514946002141454B31001814127F102B
:10446000002745454539003C4A494930000171095A
:10447000050300364949493600064949291E00000E
:1044800036360000000056360000000814224100B5
:1044900000141414141400004122140800020151E5
:1044A000090600324959513E007C1211127C007FEE
:1044B00049494936003E41414122007F4141221C89
:1044C000007F49494941007F09090901003E4149EE
:1044D000497A007F0808087F0000417F41000020E2
:1044E00040413F01007F08142241007F404040408E
:1044F000007F020C027F007F0408107F003E4141D4
:10450000413E007F09090906003E4151215E007FBE
:10451000091929460046494949310001017F010135
:10452000003F4040403F001F2040201F003F4038D8
:10453000403F006314081463000708700807006117
:104540005149454300007F41410000552A552A55F5
:10455000000041417F00000402010204004040408D
:104560004040000001020400002054545478007FB1
:104570004844443800384444442000384444487F88
:1045800000385454541800087E0901020018A4A4ED
:10459000A47C007F080404780000447D40000040B3
:1045A00080847D00007F102844000000417F40008F
:1045B000007C04180478007C080404780038444423
:1045C000443800FC242424180018242418FC007CFF
:1045D0000804040800485454542000043F44402078
:1045E000003C4040207C001C2040201C003C40300F
:1045F000403C004428102844001CA0A0A07C00449B
:1046000064544C44141414141414000000000000EA
:1046100000000000000000000000000000F80000A2
:104620000000000000333000000000100C06100CE9
:104630000600000000000000000040C07840C07884
:104640004000043F04043F040400007088FC08306C
:104650000000001820FF211E0000F008F000E01804
:10466000000000211C031E211E0000F008887000BD
:1046700000001E2123241927211010160E0000000F
:1046800000000000000000000000000000E018042E
:104690000200000000071820400000020418E0009B
:1046A00000000040201807000000404080F08040DB
:1046B00040000202010F01020200000000F00000B1
:1046C00000000101011F01010100000000000000C5
:1046D000000080B07000000000000000000000003A
:1046E00000000001010101010101000000000000C3
:1046F000000000303000000000000000000080607A
:104700001804006018060100000000E010080810FE
:10471000E000000F102020100F00001010F8000023
:1047200000000020203F20200000007008080888BA
:10473000700000302824222130000030088888488A
:1047400030000018202020110E000000C02010F8BA
:10475000000000070424243F240000F8088888088B
:1047600008000019212020110E0000E01088881890
:104770000000000F112020110E0000380808C83872
:1047800008000000003F0000000000708808088852
:104790007000001C222121221C0000E010080810DB
:1047A000E0000000312222110F00000000C0C00014
:1047B0000000000000303000000000000080000019
:1047C0000000000080600000000000008040201019
:1047D0000800000102040810200040404040404012
:1047E0004000040404040404040000081020408075
:1047F00000000020100804020100007048080808AA
:10480000F0000000003036010000C030C828E81079
:10481000E0000718272423140B000000C038E00034
:104820000000203C23020227382008F8888888707E
:104830000000203F202020110E00C030080808088A
:104840003800071820202010080008F80808081071
:10485000E000203F202020100F0008F88888E8089A
:104860001000203F20202320180008F88888E8083E
:104870001000203F200003000000C0300808083866
:10488000000007182020221E020008F80800000877
:10489000F808203F210101213F20000808F80808FE
:1048A00000000020203F2020000000000808F80839
:1048B0000800C08080807F00000008F888C02818A9
:1048C0000800203F20012638200008F808000000DA
:1048D0000000203F20202020300008F8F800F8F8E1
:1048E0000800203F003F003F200008F830C00008CB
:1048F000F808203F200007183F00E01008080810C3
:10490000E0000F10202020100F0008F80808080809
:10491000F000203F210101010000E010080808100C
:10492000E0000F18242438504F0008F88888888841
:104930007000203F2000030C302000708808080819
:1049400038000038202121221C00180808F8080827
:1049500018000000203F2000000008F808000008B0
:10496000F808001F202020201F000878880000C8B9
:104970003808000007380E010000F80800F80008A9
:10498000F800033C0700073C0300081868808068B3
:10499000180820302C03032C30200838C800C838F1
:1049A00008000000203F2000000010080808C83858
:1049B00008002038262120201800000000FE0202F6
:1049C00002000000007F40404000000C30C00000AA
:1049D0000000000000010638C00000020202FE00D4
:1049E0000000004040407F0000000000040202027E
:1049F00004000000000000000000000000000000B3
:104A0000000080808080808080800002020400009E
:104A10000000000000000000000000008080808096
:104A200000000019242222223F2008F80080800084
:104A30000000003F112020110E0000000080808047
:104A40000000000E1120202011000000008080884E
:104A5000F800000E112020103F2000008080808090
:104A60000000001F222222221300008080F088888C
:104A700088180020203F20200000000080808080D7
:104A80008000006B94949493600008F8008080800C
:104A90000000203F210000203F2000809898000067
:104AA00000000020203F2020000000000080989897
:104AB000000000C08080807F000008F80000808037
:104AC0008000203F24022D302000000808F800005C
:104AD00000000020203F2020000080808080808017
:104AE0008000203F20003F20003F808000808080A9
:104AF0000000203F210000203F20000080808080B7
:104B00000000001F202020201F00808000808000E7
:104B1000000080FFA12020110E0000000080808096
:104B20008000000E112020A0FF8080808000808007
:104B3000800020203F212000010000008080808034
:104B400080000033242424241900008080E0808029
:104B500000000000001F2020000080800000008076
:104B60008000001F202020103F20808080000080D7
:104B7000808000010E3008060100808000800080E7
:104B800080800F300C030C300F000080800080808C
:104B900080000020312E0E312000808080000080B7
:104BA000808080818E701806010000808080808067
:104BB00080000021302C2221300000000000807C89
:104BC000020200000000003F404000000000FF0023
:104BD000000000000000FF0000000002027C8000D6
:104BE00000000040403F00000000000601010202FA
:104BF0000404000000000000000000003078000005
:104C000000000000000000000000000000000000A4
:104C100030313233343536373839414243444546F2
:104C200040305800303132333435363738396162EC
:104C300063646566403078000400000800000000EE
:104C40000000000200010000100000006C4C000891
:104C50000000002034210000C4010008C0590008F1
:104C6000342100207C0E00002802000812000120E0
:104C700005010203040420050607080910000912B3
:104C800000313233343536000112E00412FF2300C4
:104C900004102040801D3009080403000040807F7C
:104CA0000D0310010E21000E1004047454545556C7
:104CB0005454547404045D2007848341211D05016C
:104CC0000006107D818185E37E4007F80106000023
:104CD00002010211FE9E72FF4B6186B160000F104F
:104CE00020102CE7242400E22C20BF2028E69F007F
:104CF0000F100101017F2111804F20100F10204F54
:104D0000E1F01090523410FF10345280708F080878
:104D1000F808C0040E11829A566322528E00804019
:104D2000330C332112103E000B109000FE92929231
:104D3000F292929E60040F1042827F0180601F00F9
:104D4000FC44474444FC20040D13402010EC27246D
:104D50002424E40404FC9E100500003F42010407E3
:104D60001043444847407000221081040B10504407
:104D70005465C644645444409F124481040B10821D
:104D8000824A562322524E820260119412FF8600FC
:104D90000810D8171010F010106110050F0402FF52
:104DA000FE040611211608162100300A4030EF24B7
:104DB0006448487F4804011080357F200400FF4983
:104DC000010A11FF7D14084042CC0000809E40057E
:104DD000133F1582080E107F2094844424140F146E
:104DE0002444848461100A8060F807404848E85FE2
:104DF000820211408039DC080813020B1222D20A09
:104E000006FF1804FC04D4BD080710D4047F84C531
:104E100036C10010108866010063828292AB8482E2
:104E2000C10224CF7F31BC0807129EE0809EB2D21F
:104E300000080E110808F4949292F10001F2929485
:104E4000946059E53240010512203101427F07018B
:104E500011E01C09106002CC8040201E3E030212AB
:104E60003E20000F1004047E018080834D512151AB
:104E7000498780A0280704040484E43C8229830530
:104E80001000100704020100FF09010804144989F9
:104E90007F9F213B00081124FC22222223221E3D59
:104EA000D8031D05035DE2030914C0080B1490002C
:104EB0003F48484444444270C00A180041500580AD
:104EC000808292010311FE80E0040E1340402224F0
:104ED0001048807F0408182422622DD80404041589
:104EE000E21CE09A155C1F100C030500061100037C
:104EF0000C304060013EC01C062030AC63107A04C8
:104F00001F090E7E0409111F7C0622672212927F60
:104F1000030D11A1050C0B15FE024222325E9252C6
:104F2000321240051D3D0410065155646941080DBB
:104F30001281031D40030C0C1417087C4BCA6A5ADB
:104F40004E4878004003080A114A4A2552897E04D7
:104F50001A21A23C0440301E840421010D115D067B
:104F600000101281814121110D0301030D11214116
:104F70008181C00C0418FA02FE80040C07188047D7
:104F8000300F106780041900210132FE060512203F
:104F9000ED4606FDA0031EC8BB04040911C808089D
:104FA000FF080809CA8114082067242414979082F6
:104FB000040510182641F8C0410152FF080111A054
:104FC00029410807131360030C1020400C0F1460D4
:104FD000028C00484620108F1020488600C0031223
:104FE00088200005160F102846405EFE01030214BB
:104FF00000401C0444485041040C04117F504820D8
:1050000006080F104458C0FF504C0088FF8800FE6F
:105010002222411C05080601FFA2071C061F109F43
:10502000601FCC060511000407182424FE2322204B
:10503000621C057F2121213F082E3FC80409106111
:105040002B403C3C3E403F060E11C840063C0B0244
:105050000602FF010100020A1245040D1101071C9E
:105060000788C4330004C43F070E1204C0042DBFD8
:10507000043E0041050C05127F41414162052EC0EE
:1050800060054A48050D1200042006370404146424
:10509000030F13071025043C0480601864060C05F8
:1050A00012089020C0010319022C05402013084962
:1050B000050E150021050C07128242F20E42821FD6
:1050C00005430010392DA00908041101020CDA2E45
:1050D000FE380951040111401407007F40504C4331
:1050E0007B1E47A2070A104F001004F212FE0210A6
:1050F00004F20084010D1281082C05FF4A49487909
:105100000525BF0E114181085DC005080612FE91FC
:1051100080FF80814DC0050C09118082462A132A28
:105120004682C0031E607A061004A4643F0504058D
:10513000112424A0605F0C0C114829094D8D7B0BB4
:1051400009284C981E080C0C134262524AC642525F
:1051500062C200F8E6031C0640C444447FA3060C68
:10516000041320000F400A159C1E2019031D5F091F
:105170000C0414502020200643FE42010D125F0350
:105180002D010A3F11F6FD040F12F4133F0915DC3F
:105190003F320FDD0A0E13FF00074D3C04080911D2
:1051A00080F88040FF2010F0DF180430100F9815B1
:1051B0007F0006155F424443784031FD0D134108DE
:1051C00031403E4800030D1562082D38030C0811CC
:1051D0001415569454341400082C0440300F440B1A
:1051E000100441817F060F1105038005400480BE35
:1051F000A2010F14BE8080051F060565080C05126C
:105200004484443CDE092DFA030C0B12FF4848424B
:10521000A29E82A2C2BEDF090809141F207F444457
:10522000404F48C02C0400007C21093D41090D136A
:10523000410B9E7C41090D11800B11993C081464AF
:105240000F04E4242F01090D1121061F0978030D15
:105250001580157F0D11C0041D80071006125252D3
:1052600052FE040E141280071E4078040C081241EE
:105270007F4149514F40C0081DBA0642FE0515C581
:105280000110213C08403F0020BF403F820D0A1220
:105290004FC10C0D11FE225A8620102824E3242829
:1052A000108006240800FF040827110DC00804120E
:1052B000050931BF000C11D0FF9014E4AFA4A4A4E1
:1052C000AFE4FF11FC000D14FF00894B2A1A0E1ADF
:1052D0002A4B888040000A151000FC24E424222375
:1052E000E2401C0783601F80412640070D15000720
:1052F0001E44810B1E7F420E0E1444C00A19DC0CA2
:1053000006121515155595810A1F100C1C0C1C044E
:10531000040506A5050C04112444142105564080FB
:105320002DFE050D13DF032EFC80043F3DA6C70AAA
:105330000D13000310071013121212FF040E1112A6
:10534000A0082DC0090C0B143002262AE2262921C0
:105350002925C0090C0A12522199874D5525554D12
:1053600000095C06020CC000F042090D1100041F88
:1053700002023C071E0FA60B1EFFA7030E150F000F
:10538000060C08151222428242221A00060C0A1349
:1053900040484442414041424C21041D760A2006C7
:1053A0000808887F88070E13F8800F4D82060C04CA
:1053B0001201024C800F1DC10D1C074242C27E42E9
:1053C000C2250501125F6D400B3DFF070D11C00E98
:1053D0000C0916884828090A284888800F1C0840AC
:1053E00020110A040B30E30C0E1313800F3E4041D2
:1053F0000E1E203E060C06143FA424A460410E0C91
:105400000B1110888A4C29180F1828C8E00860046E
:10541000827A22010D11220E1D160A41010C05127D
:105420004981413F3F0B2380880132FF060D1180E7
:105430000C3F2020C2070C0612FF01020408A00343
:1054400019C011012345C6060912C02DDC0D1D9897
:1054500006327F200D13220E1C050C30C000A2095D
:105460000C041380700E9E082D7E081543130A113C
:10547000460D12C00C3A0CFF1F26647F0702112450
:10548000801DFC05133D25014E3D02060D11A00AAD
:105490002C0584E41C073F0E0C0416A46424800928
:1054A0008D020E0D4F400F0D3E80063D40041C0442
:1054B00084452607060D1340043406040402FE4505
:1054C0007D0C041245FE02200739803D3F090E1570
:1054D00084C111198049FF0D1240093D3F130C058D
:1054E000155454FF5441134F0404FB041D01050FD0
:1054F00012151F61132D7B080C0614D030FF30D01D
:10550000810D297E4E09DE0C29820D1261041C06D4
:10551000F2121A16D2E3040E13F2400A0C09138099
:10552000804F40201807083E131D40072C0984E4D3
:105530005C44C40002F2850D0D1160101C070201CD
:105540007F10103F47030C071408084888403F00AD
:10555000061C0524242FE403131D83070D140006E5
:105560000C0B15FF11090719090749917F00041E4B
:10557000FC3E0A0C05122222A36241110C0E1420DB
:105580001F2058475048454245485040410B42F281
:10559000FE0D14E1092C047F2020A1130405172718
:1055A00020207F00040A152010E82724E4342CE092
:1055B000001DC6080C041209093F431159400D197A
:1055C000A20E1405003F9048810C0413000718A197
:1055D00015500400E282010D14A00A497B4D4712C8
:1055E0000E157840142E903B0D0D14400D5DC0102B
:1055F0000D147D152DC0087D7D0F2D830F0D11A07D
:10560000102E80420A0D18830F1E04D6131F649CAF
:1056100066071D830F0B122818C0040A13060182A7
:105620004C20180601060059002F0402C80A0A156A
:10563000FC002C07404F4442407FC1090512801DE9
:10564000030F1D200E0C0511C050484660132DC0DD
:105650000F157D0D17C00E4D7A0B1E205D062A68B2
:10566000E40D10A1163E1F1D0E1D050F3E3F070F36
:105670000D14E0130F18FF44E0055D05170D14BE6F
:10568000032DC1072D7A062DC0100C0411090AC87C
:1056900020051D7C160C051610201F80C0102DF64D
:1056A000071D9C030D1780081D400C0C0A111F08D4
:1056B0008848300E014080BF030D7F00033D401637
:1056C0000D19400A4D7F050D19400A100410F01FF6
:1056D000F80C081040E05847405060C10F1C0440CF
:1056E0002215F9165D050E0D11E00E3DC0041541A1
:1056F000071409FAFF2D80113D830A4D820A0D120D
:10570000400D3D020C51060D1281101C053F00405A
:105710007F070D0D1482032C09108C4404E40495BA
:10572000A6C6060F104494C0062C0902027A414115
:1057300043427E43180D12DF090C0F1088681FC802
:105740000810C85452D1129408D0E00A0C0D140964
:105750001909FF0500FF1292FF005F80190C0D125E
:1057600008FC2310886704F40424548C1F140C0DC7
:10577000110077808188B2848380E00011E00F1EE1
:105780000238192D3F1911040E12F2C00A2C04021E
:10579000829283190C0512324A4642BF180C0E132E
:1057A0004020F807F0A0904C5724A4544C800E0CD5
:1057B0000B12FF001F809252492924127E173E04CB
:1057C000F9100C06144030CC0B0881151D3E0A0F51
:1057D0001810080019200400F80C3A0C0415403089
:1057E0008F400B2DFF123DF9030E134340030D7E36
:1057F000000D2D00060C0B109020988888E98E88EB
:1058000088A862111C040242817A0E0C081280845E
:105810004B2810284701082C040202C282123D8046
:10582000150512A04D7C0F0E167FC0180C0D13200D
:105830001808EAACA8A8AFA8A8ACEA01065F003E29
:105840003D1100041312221E7F3EF2FC172D00159D
:105850000D12C1084D390D2F040782100E117FC0A3
:1058600009C28001022F00010C0618020C80608022
:10587000C0061F020280190E1840C0061E0017093C
:105880004C0608C838009044170D12E11C1C040C8B
:10589000030462140E154381073700FE582EFFA93A
:1058A000180E1508C0085E10810A0D1180151F0220
:1058B000E2BA1952FE040F13E202000E10040601B0
:1058C00016040D14000EAE8000180111BF1D381112
:1058D0002D3C133E7F44130D13210E1DC01B1300DE
:1058E0003E7C0C051422223E0080180C0C4F201127
:1058F000090503FF0305091120800C2F02FA780522
:105900001F402025150C04104C5020601B1C0D0856
:10591000184884443F404458414E6023060D15808A
:105920000E0D1880162D81090F18104880164DC0D5
:105930000A1DDF1A0C0616C949497F80C0081E5F80
:10594000BB170C05504142455800132DC3050D12DD
:10595000F7151101DD2717100BE0F0F8FCFC7E3E77
:105960003E3F1F018C0A3F3E7E7EFCF8F8F0C0529D
:105970001F22E034CEFF2214230107153DF71E112C
:105980003F32F822D3FFFC014115114DB2FF012334
:10599000070301B307CF16C23F24C006FEC08080B4
:1059A000FC131D2F11C00903070F1F3F7F7F7F2CA2
:1059B000111B9C087F3F3F1F0F07011C1E61010048
:040000050800018965
:00000001FF
