:020000040800F2
:10000000F8060020AD0100086D2A0008C32800088A
:10001000692A00082124000831310008000000008E
:10002000000000000000000000000000B92F0008E0
:1000300085240008000000007D2F0008CD30000856
:10004000C7010008C7010008C7010008C701000870
:10005000C7010008C7010008C7010008C701000860
:10006000C7010008C7010008C7010008C701000850
:10007000C7010008C7010008C7010008C701000840
:10008000C7010008C7010008C9200008C70100080F
:10009000C7010008C7010008C7010008C701000820
:1000A000C7010008C7010008C7010008C701000810
:1000B000C7010008C7010008C7010008C701000800
:1000C000C7010008C7010008C7010008C7010008F0
:1000D000C7010008C7010008C7010008C7010008E0
:1000E000C7010008C7010008C701000800F002F8B6
:1000F00000F04DF80AA090E8000C82448344AAF175
:100100000107DA4501D100F042F8AFF2090EBAE872
:100110000F0013F0010F18BFFB1A43F0010318473B
:100120008C4F0000AC4F0000103A24BF78C878C153
:10013000FAD8520724BF30C830C144BF04680C60ED
:10014000704700000023002400250026103A28BF35
:1001500078C1FBD8520728BF30C148BF0B60704739
:10016000662904F0CD82002070471FB500F0DAFD4B
:1001700004000020002103F047FB401C60600020C9
:10018000002103F02BFBE0601FBD10B510BD01F096
:100190008FF81146FFF7E9FF03F024F901F0ECFABC
:1001A00003B4FFF7F2FF03BC01F052FB094880479C
:1001B00009480047FEE7FEE7FEE7FEE7FEE7FEE749
:1001C000FEE7FEE7FEE7FEE704480549054A064B61
:1001D00070470000D1300008ED000008F800002052
:1001E000F8060020F8020020F80200200FB41CB529
:1001F000074B06AA7B4469460090059800F0C7FAB1
:100200000020694600F0D6FA1CBC5DF814FB000023
:10021000BD0500002DE9F0474FF0000A894604466D
:10022000C0F820A02046E1688847002876D025281D
:1002300006D0D4E901219047206A401C2062F1E7F2
:10024000E168204600258847C4F81CA00646002720
:10025000C4F818A02A2E09D0304603F000F838B3AD
:1002600004EB8708303EC8F8186019E059F8041B01
:10027000204604EB87029161E1688847012F06461A
:1002800018D1E069002820DA25F020051DE0D8F813
:10029000180000EB800006EB40003038C8F818006A
:1002A0002046E1688847064602F0D9FF0028EED1D3
:1002B000012F0AD02E2E08D12046E16888477F1CE6
:1002C0000646022F45F02005C4DBA069002803DAAA
:1002D000404245F00105A061E80701D025F0100576
:1002E000B6B1A6F14100192802D8203645F40065C0
:1002F0004A463146204625604D46FFF731FF58B14A
:10030000012806D0ED1D25F0070000F1080989E756
:1003100004E005F1040985E730468AE7206ABDE874
:10032000F08700000FB400B58DB010A909900091BE
:100330000B904FF0FF300A9000200C900648784454
:100340000690064878446A4607900F9909A800F07D
:10035000B9FC0DB05DF814FBA3090000BB09000057
:1003600070477047704770472DE9FF4F0C461E4697
:100370004FF0FF378BB0D2E90001DDF860800A90C2
:100380008A46C1F30A5505B93D46002108464FF09B
:100390000000BAF1000F00F4400005DA00EB800025
:1003A0004FF4400101EA50004FEA9059B9F1010FB2
:1003B00000DDB9460A9850EA4A000ED044F61050C3
:1003C000A5F2FF3545432F14B8F1000F1ED075423A
:1003D000291E1EDDC9F100021CE0B8F1010F4FF02B
:1003E000000001D0302103E0F24305E02154401C1D
:1003F000B042FBDB30460022002121540B99C1F8AA
:100400000880C1E900200FB0BDE8F08FBD1B6D1C56
:10041000DEE74A4600DA694206A800F0D3FE06ABE2
:1004200093E8070003AB83E8070050460A9901F000
:1004300016FA8DE80700A0F500501F3800900398C9
:10044000002D0ADD42F21F014A460844002303A999
:100450000390684601F0C2FC09E0A0F500504A464E
:100460001F38002303A90390684601F0E1FC8DE8E2
:1004700007000004000C03D04FF0FF30410800E0FB
:100480001046B8F1000F03D00022009215461EE07E
:10049000751E05D400F04EFC303262556D1EF9D544
:1004A000B3460122084302D000227F1C04E02078DA
:1004B000302801D100227F1E002A099784D01DE038
:1004C000112D07DA00F036FC303262556D1C50EA0F
:1004D0000102F5D1084302D00098C8B10EE0002116
:1004E000681E05E0235C625C63542254401E491C74
:1004F0008142F7DBAB46A81B401E0990002004F8A0
:100500000B000B98099AC0F80880C0E9002B7AE725
:1005100011264FF0000857E72DE9F04F88460446B2
:10052000D21D22F0070191B0D1E90001CDE90A0105
:1005300002F000FE02460B98C00F01D02D2007E00C
:100540002068810701D52B2002E0202101EAC000AC
:10055000032A099001D0072A05DB034641462046BD
:1005600000F036FC0BE12078800601D5E06900E060
:100570000620B8F1650F814606D0B8F1660F18D095
:10058000B8F1670F70D131E00020B9F1110F009080
:1005900001DB112301E009F101030AAA01A90CA85A
:1005A000FFF7E2FEDDE90C70002609F10105834644
:1005B00047E001204B4600904FF000470AAA01A9EE
:1005C0000CA8FFF7D1FEDDE90DB00C995D460026C1
:1005D00010B909F101000D18B9EB050003D4C0F101
:1005E000FF3609F10105A5EB09002BE0B9F1010F78
:1005F00001DA4FF001090020B9F1110F00904846CF
:1006000001DD112300E003460AAA01A90CA8FFF7A7
:10061000ABFEDDE90C704D460026834620780007CE
:100620000AD4AB4500DA5D4601A8012D04DD41196D
:1006300011F8011C302907D04F4502DA17F1040FD9
:1006400004DA012082460FE06D1EEEE7002F02DC87
:10065000ED1B3E4403E0781CA84200DD7D1CB81B66
:1006600000F1010A4FF000472078000703D4AA45A3
:1006700001DB4FF0FF3A0021B7F1004F0DF14308C5
:100680008DF8431024D002202B23002F01DA7F4263
:100690002D230A21021EA0F1010000DC5FB197FBAF
:1006A000F1FC97FBF1F201FB1C7C17460CF1300CBE
:1006B00008F801CDEEE7A8F10100037021880905D3
:1006C00001D5452100E06521A0F1010800F8011CD9
:1006D00009980FA9A1EB0807FF1D00B101204119DE
:1006E00001EBEA70A1693844081A401EA061207825
:1006F000C00602D42046AFF30080099828B1D4E99F
:1007000001219047206A401C20622078C00622D533
:100710002046AFF300801EE0002E04DBB34502DD6F
:1007200001A8805D00E03020D4E901219047206AD3
:10073000401C2062761CAAF101005FEA000A0AD17F
:1007400000F0F0FAC0680168405CD4E901219047EC
:10075000206A401C2062281EA5F10105DCDC07E0B0
:10076000D4E9012118F8010B9047206A401C20624F
:10077000381EA7F10107F3DC2046AFF30080032009
:1007800011B041E601694A1C02610878704700B562
:100790008FB0CDE901310021059105497944CDE9BA
:1007A000031011466846FFF735FD0FB000BD00008D
:1007B000E5FFFFFF0A6802F8010B0A6070470000BE
:1007C0002DE9FF4F06468BB00878FF2806D0491C5C
:1007D0002D2805D000244FF0000908E000200CE08F
:1007E0000124F8E709EB8903491C00EB4309087869
:1007F000FF28F7D114B1C9F1000081461078002517
:100800002C46AA4629462D2801D02B2804D1521C5B
:100810002D2813D0002082468B461078FF280FD059
:100820004FF0000C0A21521CA5FB017804FB01814A
:1008300005FB0C11C5194BEB0104EEE70120EAE7BB
:10084000002108464FF00000BAF1000F02D000EB83
:1008500080004008C0F38157012F01DD4FF0FF37C2
:100860000E9955EA040009EB01080BD04FF002097C
:1008700018F5FA7F16DA4FEACA70002F706008DDAB
:10088000012007E04FEACA70C6E900B00FB0BDE82A
:10089000F08F0020306000F049FAC0F80090182175
:1008A000084616E0B8F5FA7F18DD002F02DAF7489F
:1008B000784401E0F6487844D0E90010C6E9001019
:1008C00040EACA70706000F031FAC0F8009014215C
:1008D00008460FB0BDE8F04F03F00FBF00210846F7
:1008E0004FF00000B8F10001099002DAC7F10002F0
:1008F00000E03A4601DAC8F1000106A800F062FC07
:1009000006AB93E8070003AB83E8070044F23E0020
:100910005BEA04010090584604D144F21E012C46C3
:100920005D460091210C0904014306D1009924047D
:1009300044EA15442D041039009104F07F4101432D
:1009400006D10099240244EA15642D020839009169
:1009500004F07041014306D10099240144EA157462
:100960002D01091F009104F04041014306D1009977
:10097000A40044EA9574AD00891E009104F0004182
:10098000084304D100986D196441401E00904FF057
:1009900001033A466846B8F1000FCDE9014503A9C5
:1009A00002DD01F05AFA01E001F02DFABAF1000F70
:1009B00004460D4601D084F00044002108464FF063
:1009C0000000099940F2FF77484010F00C0F07D162
:1009D00024F00040284303D0C4F30A50B84212D197
:1009E00000F0A4F9C0F80090C4F30A50B8420AD14C
:1009F000A8487844D0E90010C6E9001004F000418E
:100A00000843706042E7C6E900543FE72DE9FF4F15
:100A10001F464FF0000A4FF0FF38454691B0D7E926
:100A20000146CDF83CA000F07DF9C0680168405C4B
:100A30001090B96912986D1C8847396A81468847B9
:100A40000028F6D1B9F1FF3F0AD0002E24F4D0647B
:100A500011DDB9F12B0F08D0B9F12D0F0BD102E048
:100A6000404615B013E744F48064B96912986D1CD0
:100A70008847761E8146600504A901D52D2000E037
:100A80002B20002E01F1010B0DF130088DF8100024
:100A90003FDDB9F1690F08D0B9F1490F05D0B9F1BF
:100AA0006E0F02D0B9F14E0F1CD13B4601A8009544
:100AB00080E85002DDE912126FF0020003F086FEBA
:100AC000C11CCED10EE0B96912986D1C88478146D1
:100AD0001398761E44F4007405600F98401C002E95
:100AE0000F9016DDB9F1300FEDD0B9F1780F02D0CB
:100AF000B9F1580F0DD10F9801280AD13B46CDE925
:100B00000054DDE91212001F029603F05DFEC11CC5
:100B1000A7D1109989453ED144F0800406E013998D
:100B2000681CAAF1010A44F400740860B9696D1CDC
:100B30001298761E884730288146F0D02BE0109915
:100B4000894505D1200603D4761E44F0800418E0C0
:100B5000484602F084FB08B3761E0DF123018B4555
:100B600044F4007408D2A9F130000BF8010B200600
:100B700007D5AAF1010003E0200602D40AF1010022
:100B80008246A00502D51399681C0860B9691298BD
:100B90006D1C88478146002ED1DC53E0002E51DDCC
:100BA000B9F1650F02D0B9F1450F4BD1A00549D578
:100BB000B9696D1C1298761E24F440748847002E83
:100BC00081460CDD2B2804D0B9F12D0F07D144F458
:100BD0008074B96912986D1C8847761E8146E005BD
:100BE00001D52D2100E02B2108F8011BCDF8008054
:100BF00021E0761E0DF13901884544F400740CD2D1
:100C0000A9F1300010F0FF0088F8000002D100992F
:100C1000884509D908F1010806E0E00501D51E481C
:100C200001E042F20F708246B96912986D1C884744
:100C3000814613980560002E04DD484602F00FFB44
:100C40000028D6D1F96912988847FF2053468BF8BF
:100C5000000088F8000000200A900B9004AA0CA95C
:100C60000AA8FFF7ADFDA00502D46FF00100F8E679
:100C700014F0240F12D0E0071CD13868DDE90A1205
:100C8000031D3B600068C0E9001213E0204800002B
:100C900012480000D6460000F1D8FFFF0AA96846B6
:100CA00002F06CFAE00705D13868009A011D39603E
:100CB000006802602846D4E6026811441378016097
:100CC00018467047D1600549794451610449794417
:100CD000116200211161114600F0BAB8EDFFFFFF6B
:100CE000ED000000426842B1016811F8013B23B1F8
:100CF000521EC0E90012184670470121C160881ECB
:100D0000704742685AB1C368016843B983688B422F
:100D100005D0491E521CC0E90012002070474FF058
:100D2000FF30704700487047B4000020004870470B
:100D30009400002030B5B0F10A024FEA900E71F134
:100D400000034EEA817EB0EB0E0061EB91014FEAA9
:100D5000101E4EEA017E10EB0E0041EB11114FEA1E
:100D6000102E4EEA016E10EB0E0041EB11214FEAFE
:100D7000104E4EEA014E10EB0E0041EB11414018AF
:100D800041F100014FEAD00040EA41704FEAD10141
:100D900010EB80054FEA810444EA907444EB0104AF
:100DA0006D1944EB0404521BA3414FF0000348BFEC
:100DB0000A3200D530BD401C41F1000130BD10B5F4
:100DC000044600F09BFA0068005D00F0010010BDD1
:100DD0002DE9F0411F46044603260168072A01F465
:100DE000006004DB08B116A505E016A503E008B114
:100DF00015A500E015A521F010002060A069C01E17
:100E0000A0610FB1401EA0612046AFF300804FB13A
:100E1000D4E9012138469047206A401C2062C01C5A
:100E2000206206E0206AFAE7D4E9012115F8010BF7
:100E30009047761EF8D22046AFF30080BDE8F081DF
:100E40004E414E006E616E00494E4600696E66006E
:100E50002DE9F34F4FF0000A0C4656468DB00120A5
:100E60000C9001F10C000B9062690B9801219047E6
:100E7000051E2DD0252D2CD0216A8847C0B162696E
:100E80000B9801219047216A88470028F7D16269B1
:100E9000411E0B98904700E0761CA1690D98884789
:100EA000216A88470028F7D1E1690D988847DBE778
:100EB000A1690D988847A842074601D1761CD3E75F
:100EC000E1690D9888477F1C02D1BAF1000F6FD0FD
:100ED0006BE162690B9800273D46394690472A2806
:100EE00004D162690B98012190470125DFF8D08277
:100EF00062690B9801219047A0F130010A290AD2BA
:100F00004745E5DC07EB870100EB4107303FDFD4C5
:100F100045F01005ECE7E90601D46FF000476C28B6
:100F20000AD04C2814D0682815D06A280DD074280F
:100F30001CD07A281AD01DE062690B9801219047D5
:100F40006C2802D045F0040514E045F002050DE0E0
:100F500045F020050AE062690B9801219047682856
:100F600002D045F0080505E045F4006562690B987C
:100F700001219047C4E9015765283DD019DC582864
:100F80007AD00CDC452837D004DC252826D041282F
:100F90009ED131E046282FD0472899D12CE05B28FC
:100FA00077D0612828D063287CD0642823D15AE0E8
:100FB000F6E06F2848D008DC66281DD067281BD0D3
:100FC000692821D06E2816D127E0702845D07328D3
:100FD00068D0752847D078280DD14DE0A1690D98CB
:100FE0008847252805463FF469AFE1690D98884791
:100FF0006D1C3FF46AAFD8E00D9923466A466FF046
:10100000010003F0DFFBC5E045F0400023464FF050
:1010100000026060A80736D43EE0E8077FF447AFDF
:101020002068011D21600068290501D506701BE7B5
:10103000290701D5068017E7A90703D5F117C0E9ED
:10104000006111E706600FE745F0400023464FF0CE
:1010500008026060A80716D41EE040F60E0125EADB
:101060000100606016E045F0400023464FF00A02A0
:101070006060A80707D40FE045F040006060A80753
:1010800008D5234610220D996FF00100AFF30080C0
:1010900080E007E0102223460D996FF00100AFF3C6
:1010A000008077E04FF0000963284F46C8464B4662
:1010B000CB4602D05B2806D038E0E80601D40120F8
:1010C000A060012732E06269D4F80CB00B980121CE
:1010D00090475E2807D14FF0010949466269D4F86C
:1010E0000CB00B989047216939B900210A4603AB2F
:1010F00043F82120491C0829FADBD8B3216949B3F8
:1011000008F1010862690B98012190475D28F4D12C
:10111000B9F1000F09D0002003A951F82020D243D3
:1011200041F82020401C0828F7DB03AB2069002889
:1011300020794FEA40701ED05B462246CDF80080F1
:10114000CDE901970D9900286FF0010020DAAFF387
:1011500000801FE0C11703AA00EBD1614B1121F001
:101160001F0102EB8302411A1368012088400343E8
:101170001360C7E719E00D99224600286FF00100BF
:10118000009702DAAFF3008004E0AFF3008001E0E3
:10119000AFF3008000280ADA401C06D10C9820B179
:1011A0004FF0FF300FB0BDE8F08F5046FAE7E90787
:1011B00001D10AF1010A064400200C9054E6000017
:1011C000CCCCCC0C2DE9F047814616468AB0354888
:1011D00078440DC88DE80D0032487844801C03AC7B
:1011E0000DC884E80D0041F69B300844372190FB80
:1011F000F1F290FBF1F5A5F1800501FB12041B3C17
:1012000002D56442012000E00020DFF898A080466B
:101210000027FA44AAF1BE0A0EE0E0070AD03246DF
:10122000684607EB470101230AEB810100F000FE4D
:101230008DE8070064107F1C002CEED1194F7F440D
:10124000AE3F19E0E80715D007EB04100DF1180ABE
:1012500090E80E008AE80E00C068F04201D19819AB
:1012600008903246012306A903A800F0E1FD03AB74
:1012700083E807006D10641C002DE3D14FF00103DB
:1012800032466946B8F1000F03A802D000F0A6FD6F
:1012900001E000F0CDFDC9E90001C9F808200AB05D
:1012A000BDE8F087C03E0000004870479400002071
:1012B0007546FFF7F9FFAE4605006946534620F034
:1012C0000700854618B020B5FEF77EFFBDE8204038
:1012D0004FF000064FF000074FF000084FF0000BF2
:1012E00021F00701AC46ACE8C009ACE8C009ACE8A5
:1012F000C009ACE8C0098D467047000010B5FFF783
:1013000011FD001D10BD00BF0125000010B5FFF745
:101310000DFD006810BD10B50446FFF707FD046021
:1013200010BD00002DE9FF4F1F464FF03C0987B06C
:101330004FF00042DDE9141001F10108DDF858A07A
:1013400002EA40500390002005908346054604467B
:101350000490B969461E08988847AAF1010A0290CC
:10136000BAF1000F3BDD02982E2815D0102100F0B5
:1013700060FA00282EDB4FF0010B0599014317D0CE
:10138000B9F1000F0BDB4A46C11700F03FFA0543E5
:101390000C43A9F1040905E0012004900BE008B119
:1013A00045F0010501200590049820B9361D02E0A2
:1013B000049800B1361FB969089808F101088847F8
:1013C000BBF1000FAAF1010A0290C9D00999C1F836
:1013D0000080C5E70298702808D0502806D0F96927
:1013E00008988847BBF1000F14D04FE0002002900E
:1013F0000120BBF1000F049009D0B969089808F1E9
:1014000001088847AAF10109B9F1000F07DCF96961
:10141000089888476FF001000BB0BDE8F08F2B28CB
:1014200004D02D280CD14FF0FF300490B9690898F2
:1014300008F101088847A9F10109B9F1000FE6DDBB
:10144000411CE4D00A2100F0F4F90028DFDB029906
:1014500008F1010801EB810100EB41000290B9693C
:10146000089888470A2100F0E4F9099AA9F10109CE
:10147000B9F1000FC2F8008001DD0028E7DAF96950
:10148000089888470499029800FB016655EA040011
:1014900004D004F04041090002D006E0039898E02F
:1014A000A40044EA9574AD00B61E04F000410800A3
:1014B00002D16D196441761E159810F0240F03D0E7
:1014C0004FF00B095C4803E04FF028096FF07D00F6
:1014D0008246564507DAAAEB06018944B9F1410F65
:1014E00001DD4FF0410901200021A9F1010200F0C6
:1014F0008DF9024628400B462140084301D00121C6
:1015000000E00021501E029143F1FF3128402140AC
:10151000084301D0012000E000200299834651EAEF
:101520000B014FD0002108464FF00000039900F452
:10153000400039B100EB80004FF4400100EBD07067
:1015400001EA60008015012802DD4FF0FF3000E065
:1015500013D0401C36D0029860B3BBF1000F0CD101
:101560004A460120002100F051F92840214008435B
:1015700001D0012000E00020E0B101204A46002116
:1015800000F044F9034640190A4661412D1A8C4186
:1015900011D3B9F1400F09DD159810F0240F02D0D6
:1015A000AAF1340603E0AAF1170600E0761C002534
:1015B0004FF0004406E05B1E42F1FF3220EA0305D3
:1015C00021EA0204CAF10100B04206DA1B4903987D
:1015D00008430190002000900EE0039AC4F3D32149
:1015E000E80A0A43164940EA44500A433146CDE925
:1015F0000002684601F028FE159810F0240F0BD069
:101600001598C00715D13868DDE90012031D3B604D
:101610000068C0E900120CE002A8694601F0AEFDC6
:101620001598C00705D13868029A011D3960006815
:1016300002604046F0E6000002FCFFFF0000F07F81
:101640000000F03F2DE9FF4F92461D4685B04FF058
:101650000041DDE9124BDDE914727F1E01EA4B50B7
:10166000414940F0FF4940EA0108002122F02000F2
:101670004928049102D04E2828D04CE03BA00126F6
:1016800007C88DE80700A9690698641C88477F1E73
:10169000014606D41DF8060018B121F02001814250
:1016A0000BD0E96906988847032E34D0082E32D033
:1016B0006FF0010009B0BDE8F08F761C032E01D059
:1016C000082EE0D1601CCAF80000DCE7A969069882
:1016D000641C88477F1E2AD420F02000412826D190
:1016E000A9690698641C88477F1E20D420F020003A
:1016F0004E281CD1A9690698641C88477F1E48F4AF
:10170000002849F48009CAF8004001D4282806D0EE
:10171000E969069888475FEACB7012D022E0A96990
:101720000698641C88477F1E01D4002803DAE96903
:1017300006988847BCE72928F1D1641CCAF8004004
:10174000E9E71BF0240F07D028680499031D2B60DC
:101750000068C0E9001805E02868021D2A600068DA
:10176000C0F800902046A5E70000F07F494E4649AA
:101770004E4954590000000010B50446AFF30080F4
:101780002046BDE81040FEF70BBD00004FF0013CC5
:1017900050F8042B51F8043B9A4221D1A2EB0C03E0
:1017A000934313EACC1317D150F8042B51F8043BA0
:1017B0009A4215D1A2EB0C03934313EACC130BD13D
:1017C00050F8042B51F8043B9A4209D1A2EB0C03C8
:1017D000934313EACC13DBD04FF00000704700BFF7
:1017E000D01A01BAB1FA81F101F0180122FA01F020
:1017F000CB40C1F12001DBB2C0B2C01A2CFA01F318
:10180000D11A914311EAC311E6D17047B2F1200316
:101810000AD5C2F1200301FA02F120FA03F300FA1B
:1018200002F041EA0301704700FA03F14FF00000B3
:1018300070473A2800D2303820F02002412A01D3E4
:10184000A2F13700884201D34FF0FF30704700000B
:1018500001491820ABBEFEE72600020070475FEA90
:10186000400C08BF91F0000F4FEA8C234FEAC122D1
:1018700043EA51514FEA1C5018BF00F5F0404FEABF
:10188000300018BF41F000415FEA6C5C00F0298035
:10189000BCF1FF3F08BF40F080407047130C06BF0B
:1018A00012044FF0100C4FF0000C130E04BF120284
:1018B0000CF1080C130F04BF12010CF1040C930F70
:1018C00004BF92000CF1020CD30F04BF52000CF1C4
:1018D000010C11464FF00002A0F11F00A0EB0C001C
:1018E000704711F0004F08BF704731F000413FF4DE
:1018F000D5AF0B0C06BF09044FF0100C4FF0000CD5
:101900000B0E04BF09020CF1080C0B0F04BF0901F8
:101910000CF1040C8B0F04BF89000CF1020CCB0FEF
:1019200004BF49000CF1010CCCF12003A0EB0C002A
:1019300022FA03F302FA0CF241EA030100F101007A
:10194000704720F07F4C80EA030023F07F47ACEB28
:10195000070303F57C5300F0004003F1FF032DE97A
:1019600080494FEA154B09B44FEA144325EA0B4E60
:1019700024EA03480FF2042606EB132749083E78B1
:101980005FEA320203FB0667C7F5000707FB06F6AE
:101990004FEA54374FEAD64606F1020607FB066CBB
:1019A000CCF1005C4FEA1C472CEA074C07FB06F41D
:1019B0000CFB06F504EB15464FEA961634BF0020E3
:1019C0004FF000404FEAD13706FB07FC4FEA1C4CB2
:1019D0000CFB0BF7D21B03FB0CF761EB07010CFBB5
:1019E0000EF7B0EB074072EB17420CFB08F734BF61
:1019F000A2EB0742B2EB074261EB17414FEA0C44FE
:101A00004FEA910706FB07FC4FEA1C4C0CFB0BF757
:101A1000B0EBC74072EB573203FB0CF734BFA2EBBD
:101A2000C742B2EBC74261EB57310CFB0EF7B0EB8C
:101A3000C70072EB57720CFB08F734BFA2EBC7026A
:101A4000B2EBC70261EB5771039F4FEA816141EA34
:101A5000921104EBCC044FEAD1374FEA826206FBC5
:101A600007FC42EA90124FEA80604FEA1C4C0CFBE4
:101A70000BF7D21B03FB0CF761EB07010CFB0EF716
:101A8000B0EB074072EB17420CFB08F734BFA2EB38
:101A90000742B2EB074261EB17414FEA8C554FEA20
:101AA000910704EB9C2406FB07FC4FEA1C4C0CFB43
:101AB0000BF7B0EBC74072EB573203FB0CF734BFA8
:101AC000A2EBC742B2EBC74261EB57310CFB0EF7FA
:101AD000B0EBC70072EB57720CFB08F734BFA2EBF8
:101AE000C702B2EBC70261EB577115EB4C254FEA09
:101AF000816141EA92114FEA82624FEAD13742EAAC
:101B0000901206FB07FC44F100044FEA80604FEAA4
:101B10001C4C0CFB0BF7D21B03FB0CF761EB070112
:101B20000CFB0EF7B0EB074072EB17420CFB08F70B
:101B300034BFA2EB0742B2EB074261EB174115EB52
:101B40001C154FEA813141EA92414FEA823242EA62
:101B500090424FEA80304FEA0C7644F1000448EAA4
:101B600003434EEA0B484FF0000EB2EB080C71EB4A
:101B7000030724BF624639464EEB0E0E4FF0000BB2
:101B80000018524149414BEB0B0BB2EB080C71EBC7
:101B900003077BF1000B24BF624639464EEB0E0E65
:101BA0004FF0000B0018524149414BEB0B0BB2EBCD
:101BB000080C71EB03077BF1000B24BF624639462A
:101BC0004EEB0E0E51EA020718BF46F0010616EB67
:101BD0000E7655F1000254F1000103D5BDE88901EC
:101BE000BDE80088BDE88901BDE80048B61952414A
:101BF00041EB0101A3F10103704780807F7E7D7C72
:101C00007B7A7978777676757473727171706F6E8E
:101C10006E6D6C6C6B6A6A69686867666665646439
:101C2000636362616160605F5F5E5E5D5D5C5C5BC3
:101C30005B5A5A5959585857575656555555545432
:101C4000535352525251515050504F4F4F4E4E4D90
:101C50004D4D4C4C4C4B4B4B4A4A4A4949494848DC
:101C6000484747474746464645454544444444431C
:101C700043434342424242414141000046EA064654
:101C8000A3F570534FEA164646EA42564FEAD2226F
:101C900042EA415210B54FEAD121A3F1010300F00D
:101CA0002FF820F0004000F1020C00F0004701EB9B
:101CB00000501146BCF5006F40EA070000D210BD8D
:101CC000BAF1000F0AD01CB503B44FF004004FF076
:101CD00004014FF000000FBCBDE810404FF00001C0
:101CE000BBF1010FB9BF04484FF0FF310348002199
:101CF00040EA070010BD00BFFFFFEF7F0000F07F4C
:101D0000002B9C4630D477002BD01CB54FEA370708
:101D100003B44FF010004FF01001BAF1000F06D0DD
:101D2000BCF1000FDCBF40F0080040F008014FF0AC
:101D300000000FBCBDE810400BF1010BBBF1010F1F
:101D400008BF5FEA170722BF12F1010211F101017A
:101D50004FF0004143F1000300F0004043EA00006F
:101D60007047F9D35708D0E746EA064613F1400F0B
:101D70004FEA16461FDD13F1200FDFBF16430A4658
:101D8000002120335B42BED0C3F1200746EA06465D
:101D900002FA07F74FEA164646EA0706C3F120079C
:101DA00022FA03F201FA07F721FA03F14FF00003D8
:101DB00042EA0702A7E746EA020646EA06464FEA73
:101DC000164646EA0106BCBF46EA0646360C4FF008
:101DD00000034FF000024FF0000194E72DE9804C22
:101DE0009A46934670B491E8380007C831EA400C2F
:101DF00048BF34EA430C03D5FFF7A3FDFFF780FF8C
:101E0000F0BCBDE8008C2DE9804C9A46934670B436
:101E100091E8380007C831EA400C48BF34EA430C67
:101E200003D5FFF78EFDFFF729FFF0BCBDE8008C5E
:101E30002DE9804C9A46934670B491E8380007C863
:101E400010F0804F08BF13F0804F03D100F01AF854
:101E5000FFF756FFF0BCBDE8008C2DE9804C9A4698
:101E6000934670B491E8380007C810F0804F08BF5F
:101E700013F0804F03D100F005F8FFF7FFFEF0BC30
:101E8000BDE8008C20F07F4780EA030023F07F4C00
:101E900007EB0C03A3F57C5300F00040A3F1FE0315
:101EA00092F0000F00F0B38095F0000F00F0778003
:101EB0002DE901494FEA11404FEA144621EA004852
:101EC00000FB06FC24EA064708FB06F607FB08F8B9
:101ED00000FB07F718EB06484CEB164C4FEA124B89
:101EE00018EB07484FEA15464CEB174022EA0B4E19
:101EF0000BFB06FC25EA06470EFB06F607FB0EFE6B
:101F00000BFB07F71EEB064E4CEB164C4FF0000692
:101F10001EEB074E4CEB174B18EB0B0840F1000083
:101F200018EB0E0B58EB000840F100008F1A4FF031
:101F300000013CBFC943661B14BFB5EB040C002174
:101F40003CBFC943F61B4FEA17444EEA8E0E27EA00
:101F500004454FEA1C4704FB07622CEA074C05FBCB
:101F600007F70CFB05F604FB0CFC16EB074642EBEF
:101F7000174216EB0C4642EB1C421BEB060658EBD5
:101F80000202414146EA9E0601D5BDE80189B61923
:101F9000524141EB0101A3F10103BDE801894FEA80
:101FA00014454FEA114724EA054621EA074C05FB90
:101FB00007F406FB07F70CFB06F105FB0CFC11EB25
:101FC000074144EB17444FEA124711EB0C4144EB35
:101FD0001C4422EA074C05FB07F206FB07F70CFB43
:101FE00006F605FB0CFC16EB074642EB174216EB18
:101FF0000C4642EB1C456A1854F1000148BF70477B
:10200000B619524141EB0101A3F10103704795F06C
:10201000000F37D04FEA11424FEA144721EA024637
:1020200024EA074C02FB07F106FB07F70CFB06F45A
:1020300002FB0CFC14EB074441EB17414FEA154738
:1020400014EB0C4441EB1C4125EA074C02FB07F55D
:1020500006FB07F70CFB06F602FB0CFC16EB07462B
:1020600045EB174516EB0C4645EB1C42121951F196
:10207000000148BF7047B619524141EB0101A3F17D
:10208000010370474FEA14454FEA114724EA054619
:1020900021EA074C05FB07F106FB07F70CFB06F2EC
:1020A0004FF0000605FB0CFC12EB074241EB174119
:1020B00012EB0C4251EB1C4148BF7047921841EBA8
:1020C0000101A3F10103704710B54FF408710848EE
:1020D00000F030F8012804D1054800F027F8054940
:1020E00008804FF40871024800F006F810BD0000A7
:1020F000002401401400002000220A12D343036090
:10210000704721B1826842F00102826003E0826878
:1021100022F0010282607047014600208A6802F0C6
:1021200004020AB1012000E0002070470146C86C9B
:1021300080B2704770B502460020002300240B12C5
:102140005568CEB205EA060415681D4015B10CB1FC
:10215000012000E0002070BD014600208A6802F0E6
:1021600008020AB1012000E00020704710B50023EA
:10217000CBB21AB144681C43446002E044689C43FB
:10218000446010BD30B502460020002350680F4C5B
:1021900020400D790C6844EA052420435060906883
:1021A0000B4C2040D1E902542C434D7944EA4504BC
:1021B00020439060D06A20F470000C7C641EE4B26E
:1021C000234340EA0350D06230BD0000FFFEF0FF21
:1021D000FDF7F1FF08B54FF4C06000F081FC12205C
:1021E0008DF8000001208DF801008DF802008DF8B7
:1021F0000300684600F03CFC08BDF0B504460D46FF
:1022000000200021092D11DDE068A5F10A0606EB8A
:102210004607072606FA07F18843A5F10A0606EBEA
:10222000460603FA06F10843E0600CE0206905EB7E
:102230004507072606FA07F1884305EB450603FA2A
:1022400006F108432061072A0FDA606B561E06EB81
:1022500086071F2606FA07F18843561E06EB8606F8
:1022600005FA06F10843606322E00D2A0FDA206BBD
:10227000D61F06EB86071F2606FA07F18843D61FEE
:1022800006EB860605FA06F10843206310E0E06AD3
:10229000A2F10D0606EB86071F2606FA07F1884312
:1022A000A2F10D0606EB860605FA06F10843E06288
:1022B000F0BD816841F008018160704721B18268FA
:1022C00042F4A002826003E0826822F4A0028260ED
:1022D0007047816841F004018160704708B50121B1
:1022E000042000F059FE0820ADF8000000208DF811
:1022F00003006946014800F0E3F908BD0008014009
:1023000010B5FFF7EBFF00F003F8FFF763FF10BD18
:1023100000B585B00121480200F03EFE002000908B
:102320008DF8040001208DF805004FF46020029024
:102330000020039001208DF8100069461748FFF730
:1023400021FF4FF4404000F01BFE05230122032132
:102350001248FFF752FF01224FF408710F48FFF7B0
:1023600005FF01210D48FFF7CCFE0C48FFF7A1FF48
:1023700000BF0A48FFF7F0FE0028FAD10748FFF730
:10238000A8FF00BF0548FFF7C7FE0028FAD10121CA
:102390000248FFF793FF05B000BD00000024014094
:1023A00010B50446012C0CD1C1030E4800F085FA8B
:1023B00061030D4800F081FAE1030B4800F07DFA5B
:1023C0000EE04FF40041074800F079FA4FF4005155
:1023D000054800F074FA4FF40041034800F06FFA2A
:1023E00010BD0000000C01400010014038B504464B
:1023F0000121082000F0D0FDADF8004010208DF83C
:10240000030003208DF802006946044800F058F9E3
:102410004FF40041014800F052FA38BD000C014071
:1024200000BFFEE708B50121042000F0B5FD4FF420
:102430008060ADF8000048208DF80300694602482E
:1024400000F03EF908BD00000008014008B5012178
:10245000042000F0A1FD4FF48060ADF800001020D2
:102460008DF8030003208DF802006946044800F04F
:1024700027F94FF48061024800F021FA08BD0000FE
:10248000000801407047000010B56FF0040000F034
:1024900009FE0A4800680A49B0FBF1F009490870D2
:1024A0000846007800EB4001C1EBC0104FF6FF7109
:1024B00001EAC0000449088010BD000000000020AF
:1024C00000127A0044000020460000200146114A14
:1024D00012884A434FF0E0235A6100229A611A465B
:1024E000126942F001021A6100BF4FF0E022106948
:1024F00000F001021AB100F48032002AF5D04FF04A
:10250000E022126922F001024FF0E0231A6100225A
:102510009A617047460000200146114A12784A43EA
:102520004FF0E0235A6100229A611A46126942F084
:1025300001021A6100BF4FF0E022106900F00102B1
:102540001AB100F48032002AF5D04FF0E02212696F
:1025500022F001024FF0E0231A6100229A617047D5
:102560004400002010B500F00BF80120FFF7AEFF8B
:10257000CC2000F077F8442000F074F810BD000083
:1025800010B5FFF763FF4FF48061104800F095F934
:1025900040F28A20FFF7C0FF4FF480610B4800F043
:1025A0008EF9FFF73FFF08E00120FFF78FFF601C67
:1025B000C4B2052C01DD002010BD4FF4806103483A
:1025C00000F072F90028EFD10120F5E70008014082
:1025D00070B5082521E0FFF739FF4FF480611148FD
:1025E00000F06BF90220FFF797FF4FF480610D4870
:1025F00000F065F90620FFF78FFFFFF713FF4FF498
:102600008061084800F050F90646601040EAC610A4
:10261000C4B23020FFF780FF6D1E002DDBD12046B5
:1026200070BD00000008014070B50024FFF79AFF5C
:1026300000F00BF8FFF7CCFF0646FFF7C9FF054691
:102640002C4624023443204670BD10B5FFF798FF96
:102650000120FFF73BFFCC2000F004F8BE2000F083
:1026600001F810BD70B50446FFF7F0FE002522E02A
:102670004FF48061114800F020F90220FFF74CFF71
:1026800004F0010028B14FF480610C4800F017F904
:1026900004E04FF48061094800F00FF94420FFF78F
:1026A0003BFF4FF48061054800F009F90220FFF775
:1026B00033FF64106D1C082DDAD370BD0008014093
:1026C0002DE9F041024600250026002000230024C9
:1026D000002791F803C00CF00F0591F803C00CF02F
:1026E000100CBCF1000F03D091F802C04CEA0505B4
:1026F00091F800C0BCF1000F31D0146800202BE02D
:102700004FF0010C0CFA00F3B1F800C00CEA03061C
:102710009E4220D183004FF00F0C0CFA03F7BC430C
:1027200005FA03FC4CEA040491F803C0BCF1280F3D
:1027300006D14FF0010C0CFA00FCC2F814C00AE0FC
:1027400091F803C0BCF1480F05D14FF0010C0CFA11
:1027500000FCC2F810C0401C0828D1D31460B1F8A6
:1027600000C0BCF1FF0F34DD546800202EE000F102
:10277000080C4FF0010808FA0CF3B1F800C00CEA9D
:1027800003069E4221D183004FF00F0C0CFA03F791
:10279000BC4305FA03FC4CEA040491F803C0BCF105
:1027A000280F05D100F1080C08FA0CF8C2F81480C3
:1027B00091F803C0BCF1480F07D100F1080C4FF0AD
:1027C000010808FA0CF8C2F81080401C0828CED383
:1027D0005460BDE8F081000008B50121092000F037
:1027E000DBFB01210A4800F017F83020ADF80000AB
:1027F00010208DF8030003208DF80200694605487B
:10280000FFF75EFF3021034800F059F808BD0000D3
:1028100000023000000C0140F0B50A4600230024FD
:102820000021002500F00046B6F1004F02D11D4EF8
:10283000F16901E01B4E7168C0F3034583B200F4F7
:102840004016B6F5401F08D121F07061154E76682C
:1028500026F07066134F7E6012E000F48016B6F525
:10286000801F06D1032606FA05F4A14341F07061EA
:1028700006E0460D360103FA06F6B14341F07061F9
:1028800022B1460D360103FA06F6314300F0004648
:10289000B6F1004F02D1034EF16101E0014E7160CB
:1028A000F0BD0000000001400246002093680B408C
:1028B0000BB1012000E000207047416170470161C9
:1028C000704700BFFEE7000010B54FF400714848A4
:1028D000FFF7EAFF88B90520FFF7F8FD4FF4007114
:1028E0004348FFF7E1FFA8B94248007890B90120BA
:1028F000414908703F4908700CE04FF400713C48B2
:10290000FFF7D2FF012805D10520FFF7DFFD0020EA
:10291000384908704FF480713548FFF7C5FF90B90A
:102920000520FFF7D3FD4FF480713148FFF7BCFF5E
:10293000B0B93248007898B902202F4908700120B8
:102940002E4908700CE04FF480712948FFF7ACFF66
:10295000012805D10520FFF7B9FD0020274908709F
:1029600080212348FFF7A0FF88B90520FFF7AEFDBF
:1029700080211F48FFF798FFA8B92148007890B937
:1029800003201D49087001201D4908700BE08021BB
:102990001748FFF789FF012805D10520FFF796FDAD
:1029A00000201749087040211148FFF77DFF88B9C2
:1029B0000520FFF78BFD40210D48FFF775FFA8B9F3
:1029C0001048007890B904200B49087001200D4987
:1029D00008700BE040210648FFF766FF012805D18B
:1029E0000520FFF773FD00200649087010BD0000A8
:1029F000000C0140250000202400002026000020BB
:102A0000270000202800002008B50121082000F040
:102A1000C3FA4FF47070ADF8000048208DF8030041
:102A200003208DF8020069460148FFF749FE08BD02
:102A3000000C014038B504460121102000F0ACFA2A
:102A4000ADF8004010208DF8030003208DF802003F
:102A500069460448FFF734FE21460248FFF72FFF7E
:102A600038BD00000010014000BFFEE770470000C5
:102A700070B5002100230F22C47804B3154C2468DC
:102A800004F4E064C4F5E064210AC1F10403CA401F
:102A9000447804FA03F184781440214309010E4C70
:102AA0000678A155047804F01F050124AC40057890
:102AB0006D11AD0005F1E025C5F8004109E004788D
:102AC00004F01F050124AC40044D0678761145F84A
:102AD000264070BD0CED00E000E400E080E100E085
:102AE00002490143024A1160704700000000FA05E4
:102AF0000CED00E070B5002418E004F1B0000021F6
:102B000000F081F90021084600F07DF90021102035
:102B100000F079F9002505E00121002000F073F9AB
:102B2000681CC5B2802DF7DB601CC4B2082CE4DB46
:102B300070BD000010B510210748FFF7C0FE20212E
:102B40000548FFF7BCFE20210348FFF7B6FE102121
:102B50000148FFF7B2FE10BD000C014010B5102176
:102B60000548FFF7ACFE20210348FFF7A6FE202111
:102B70000148FFF7A4FE10BD000C014010B5102164
:102B80000348FFF79CFE10210148FFF796FE10BD99
:102B9000000C014010B5FFF71FFE4FF44870FFF71F
:102BA00095FC0021AE2000F02EF90021084600F02F
:102BB0002AF90021102000F026F90021402000F021
:102BC00022F90021B02000F01EF90021812000F040
:102BD0001AF90021FF2000F016F90021A12000F0D1
:102BE00012F90021A62000F00EF90021A82000F023
:102BF0000AF900213F2000F006F90021C82000F06A
:102C000002F90021D32000F0FEF80021084600F070
:102C1000FAF80021D52000F0F6F80021802000F01D
:102C2000F2F80021D82000F0EEF80021052000F095
:102C3000EAF80021D92000F0E6F80021F12000F0A8
:102C4000E2F80021DA2000F0DEF80021122000F086
:102C5000DAF80021DB2000F0D6F80021302000F067
:102C6000D2F800218D2000F0CEF80021142000F0D1
:102C7000CAF80021AF2000F0C6F810BD70B50446B8
:102C80000D4605F1B000002100F0BDF8102141EA29
:102C90001410002100F0B7F804F00F00002100F03C
:102CA000B2F870BD2DE9F04707460E4690469946AA
:102CB00000250024A8F12000C5B27F2F02DD0027E7
:102CC000B01CC6B2B9F1100F24D131463846FFF717
:102CD000D5FF002408E004EB0511194A505C0121DE
:102CE00000F091F8601CC4B2082CF4DB701CC1B277
:102CF0003846FFF7C3FF002409E004EB0511083153
:102D00000F4A505C012100F07EF8601CC4B2082C10
:102D1000F3DB12E031463846FFF7B0FF00240AE04B
:102D200005EB4501074A02EB4101085D012100F076
:102D30006AF8601CC4B2062CF2DBBDE8F087000024
:102D4000284A0008004800082DE9FF5F0746914621
:102D50001E460E9D4FF0000A002435E0301B401E39
:102D6000C1B20A2000F0B4FBB9FBF0F00A21B0FBBD
:102D7000F1F201FB1208BAF1000F14D1701EA0424B
:102D800011DDB8F1000F0CD1AB4605EBDB7149103A
:102D900001FB0471C8B22B4620220199FFF782FF84
:102DA00010E04FF0010AAB4605EBDB71491001FB67
:102DB0000471C8B208F13001CAB22B460199FFF77D
:102DC00071FF00BF601CC4B2B442C7DBBDE8FF9F07
:102DD0002DE9F04105460E4614461F460EE02278C6
:102DE0003B4631462846FFF75DFF05F10800C5B2B6
:102DF000782D02DD0025B01CC6B2641C20780028A6
:102E0000EDD1BDE8F08170B504460D461DB1E0B2CC
:102E100000F046F802E0E0B200F02CF870BD0000CF
:102E20002DE9F04105462C4610211148FFF745FDDC
:102E3000002619E0274607F08007802F04D12021C3
:102E40000B48FFF73CFD03E020210948FFF735FD63
:102E50006006040E10210648FFF731FD10210448DA
:102E6000FFF72BFD701CC6B2082EE3DBBDE8F08136
:102E7000000C014010B50446FFF75CFE7820FFF718
:102E8000CFFFFFF77BFE0020FFF7CAFFFFF776FEBC
:102E90002046FFF7C5FFFFF771FEFFF75FFE10BD8D
:102EA00010B50446FFF746FE7820FFF7B9FFFFF79D
:102EB00065FE4020FFF7B4FFFFF760FE2046FFF7F6
:102EC000AFFFFFF75BFEFFF749FE10BD002903DAF5
:102ED00049422D22027001E0202202705423421C3C
:102EE000104613706523421C104613706D23421C5C
:102EF000104613707023421C104613703A23421C74
:102F0000104613704FF47A7291FBF2F23032D3B262
:102F1000421C104613704FF47A7291FBF2F302FBDD
:102F20001311642291FBF2F23032D3B2421C1046EC
:102F300013702E23421C10461370642291FBF2F38F
:102F400002FB13110A2291FBF2F23032D3B2421C7F
:102F5000104613700A2291FBF2F302FB131101F1E8
:102F60003002D3B2421C104613704323421C104659
:102F700013700023421C1046137070477047000006
:102F800001460020034A506820F440400843506046
:102F9000704700000010024029B1064A92690243BE
:102FA000044B9A6104E0034A92698243014B9A619F
:102FB0007047000000100240704710B500F002F8A2
:102FC00010BD00000CB5002001900090334800684F
:102FD00040F480303149086000BF3048006800F498
:102FE000003000900198401C0190009818B9019899
:102FF000B0F5A06FF1D12948006800F4003010B19D
:103000000120009001E0002000900098012843D1A9
:103010002348006840F01000214908600846006815
:1030200020F0030008600846006840F002000860D5
:103030001A48406819494860084640684860084690
:10304000406840F4806048600846406820F47C1086
:1030500048600846406840F4E81048600846006848
:1030600040F08070086000BF0C48006800F00070FD
:103070000028F9D00948406820F00300074948605B
:103080000846406840F00200486000BF03484068BE
:1030900000F00C000828F9D10CBD0000001002401F
:1030A00000200240042808D14FF0E021096941F0D6
:1030B00004014FF0E022116107E04FF0E0210969BF
:1030C00021F004014FF0E0221161704770470000C9
:1030D00010B51348006840F0010011490860084627
:1030E0004068104908400E494860084600680E498B
:1030F00008400B4908600846006820F480200860FA
:103100000846406820F4FE0048604FF41F008860C5
:10311000FFF753FF4FF000600449086010BD000046
:10312000001002400000FFF8FFFFF6FE08ED00E08F
:1031300000BFFEE7490050EAC12018BF04204A0D35
:1031400018BF40F0010040F2FF72B2EB515F08BFC0
:1031500040F00200012808BF0520704740F201320C
:1031600000204FF0E04101F0FFBA0000024A0020C9
:10317000110701F0F9BA000001FDFFFF10B5044688
:10318000D1E9000100F002F8206010BDF8B5044656
:103190000D466A4600F0C0F800987E300090002886
:1031A0001EDC002213462046294600F089FD17D078
:1031B000002140F608004FF0000006462046294650
:1031C00000F038FB044640F6080006EA00014FF024
:1031D000000034F0004004BF0220FEF79CF829E014
:1031E0000098FF2828DB002108464FF0000000F47B
:1031F0004006002213462046294600F007FF8CBFF8
:10320000002501250220FEF786F84FF0FF4446B165
:10321000002D0CBF4FF400004FF48000B04218BFE7
:10322000084C042108464FF00000002D04BF84F034
:103230000040F8BD2046F8BD20462946BDE8F840CC
:1032400000F0F8BAFFFF7F7F10B504460A46D4E9C4
:103250000003194600F08CF8C4E9000110BD3038B5
:103260000A2801D201207047002070472DE9FC5F39
:103270008246BAF1000F22DA402022490870AAF1F2
:10328000010A6FEA0A0A504601F0DAF88346584606
:1032900000F0DCFF00221C4BCDE9000100F0B8FD7E
:1032A00006460022194B00F0B3FD80460022184B61
:1032B00000F0F2FA044600F03FFD82461DE00020D7
:1032C00010490870504601F0BBF88346584600F09C
:1032D000BDFF00220C4BCDE9000100F099FD064630
:1032E00000220A4B00F094FD80460022084B00F0BB
:1032F000D3FA044600F020FD82460648C0F800A03C
:10330000BDE8FC9F480000200000B03F000059408D
:103310000000E03F1800002010B514460022226093
:10332000114A21F000439342A8BF10BD53EA0002A6
:1033300008BF10BDB3F5801FA8BF226807DA362288
:1033400001F012FA6FF0350221F000432260DFF83D
:103350001CC06FF31E510CEB23531A4441F0FF5174
:1033600041F00051226010BD0000F07F02FCFFFF21
:103370002DE9F04106460C4640F2FF75174635EA46
:1033800014502BD000221346304600F099FC25D073
:103390003A463046214601F0E7F906460C4635EA42
:1033A000145010D000221346304600F089FC15D18D
:1033B0000220FDF7B0FFFFF7D9FE0A46214662F36F
:1033C0001E01BDE8F0810220FDF7A5FFFFF7C6FE54
:1033D0000A46214662F31E01BDE8F08130462146CF
:1033E000BDE8F0814FF40040FFF700F84FF40050C3
:1033F000FFF720FB4FF40040FFF71CFBFEF780FFB8
:10340000FFF742F8FFF7C6FBFFF774FBFFF71EF864
:10341000FFF7FAFA53E0FFF757FA29480078032834
:103420000CD12848006818B901202649086002E03C
:1034300000202449086000202149087020480078B5
:10344000042813D11F48006801280FD01E480068C7
:10345000401C1D49086008460068032801DB002065
:1034600008601A480068401C18490860164800683F
:1034700070B91448006801280AD01448006801286F
:1034800004DBFFF737FB00201049086000F02CF840
:103490000D480068012803D00B48006802280AD1B3
:1034A0000A480068012804DBFFF724FB00200749D5
:1034B000086000F0F1F803480068FEF771FFAAE722
:1034C00024000020400000203400002030000020B4
:1034D00010B50246012000E050430B1EA1F101048B
:1034E000E1B2F9D110BD00002DE9F05F514800882C
:1034F00000F0BEFF0546504901F002F804464FF0C7
:103500008B4100F0DBFE4D4908600846006800F082
:103510009DFE80464A4A4B4B00F0AEFD06464A4AA5
:103520004A4B00F075FA04460022494B00F070FC4B
:10353000824600F07FF947490860FFF775F80446B6
:10354000FFF794FE4348006800F080FE04462246E0
:103550000B4641A14448FCF749FE444801684448F1
:10356000FFF7B4FC4348006800F06AFF044639489E
:103570000168204600F090FF0AD24FF400413E4817
:10358000FFF79BF94FF400413C48FFF796F904E040
:103590004FF400413948FFF792F9394A39A13448CC
:1035A000FCF7C0FE3A48006800F04AFF0446344881
:1035B0000168204600F070FF0AD24FF400412E4807
:1035C000FFF77BF94FF400512C48FFF776F904E040
:1035D0004FF400512948FFF772F92648006800F0BF
:1035E0002FFF04461B480168204601F055F80FD80C
:1035F0002748006800F024FF04462148016820465F
:1036000001F04AF804D84FF400411B48FFF757F97E
:103610001023154A02210020FFF7DAFB1023144A79
:1036200004210020FFF7D4FB00201A490870BDE8F0
:10363000F09F000014000020333353401C00002092
:1036400048E17A14AE47D13F3D0AD7A3703D084008
:10365000000059402000002020536D6F6B653A2513
:103660002E3266252520000057000020180000207B
:10367000480000203C000020000C014000100140E8
:103680002C0000202054656D703A25664300000030
:10369000380000202400002008B5FFF715F9444841
:1036A000006801283FD143480068012804DBFFF788
:1036B00021FA00203F4908603F48007801280AD1DC
:1036C0003E480068401C3D49086008460068632881
:1036D00001DB6320086038480078022811D13748A0
:1036E0000068401E3549086008460068092801D175
:1036F000FFF700FA31480068002802DC00202F495B
:10370000086010232EA203210820FFF761FB102080
:10371000022300902948026803216020FFF714FB70
:103720000020254908702248006802283FD121481E
:103730000068012804DBFFF7DDF900201D4908605F
:103740001D48007801280AD120480068401C1F4904
:10375000086008460068632801DB6320086016489B
:103760000078022811D119480068401E17490860E6
:1037700008460068092801D1FFF7BCF91348006822
:10378000002802DC002011490860102310A2022149
:103790000820FFF71DFB1020022300900B48026851
:1037A00019465820FFF7D0FA00200349087008BDD9
:1037B0003400002030000020240000203C000020C5
:1037C000536D6F6B65416C61726D3A00380000207B
:1037D00054656D70416C61726D3A000010B500293E
:1037E0000AD00878002807D005487844FDF7CEFFB6
:1037F000002801D0002010BD0248784410BD000010
:10380000F2180000EA18000010B500290AD0087864
:10381000002807D005487844FDF7B8FF002801D0FC
:10382000002010BD0248784410BD0000E2180000DE
:10383000DA18000021F00042A2F16052B2F5801FB8
:1038400001F0004328BFD2F17F6C0BD95FEA001C66
:1038500043EAC20242EB507018BF704728BF20F005
:1038600001007047B2F5801FBCBF184670474FEA91
:10387000410C1CF5001F02D2084600F008BF70B5CD
:1038800000F070FB00000089FFF7F6BF4FF000402A
:10389000A0F580007047000010B591EA030F48BF03
:1038A00083F0004300F1F083841A71EB030C05D21E
:1038B000121943EB0C03001B61EB0C01DFF824E150
:1038C0004FEA1154A4EB135C1EEA430F18BF9EEAA3
:1038D000445F73D023EA0E03DCF1200E21EA045189
:1038E00043F4801332D322FA0CFE10EB0E0023FABD
:1038F0000CFE41EB0E01CCF1200E03FA0EFE10EB94
:103900000E0051F10001B1F5801FCCF1200E32D232
:1039100001EB045112FA0EF2BDE8104058BF704797
:10392000401C38BF5FEA420218BF7047002814BF2E
:1039300020F0010041F100014FEA410313F5001F9F
:1039400038BF7047A1F1C04100F05ABB012A43EBD8
:103950000302ACF1200CDCF11F0E32BF4FF0000E61
:1039600023FA0CF310EB030041EB0451B4EB115FAD
:10397000D0D0A1EB045101F5801149085FEA300075
:1039800001EB04510ED350F1000038BF12FA0EFEC5
:1039900008D1BDE81040C9E7401C38BF5FEA4202C9
:1039A000CAD1C3E7BDE810404FEA410313F5001F39
:1039B00038BF7047A1F1C04100F022BB9EEA445FCE
:1039C00008D011EA5E0FBDE8104004BF01F00041CD
:1039D00000207047BDE8104070B500F0C3FA00BF8A
:1039E00064FBBE3E0000E0FF02494FF0000000F023
:1039F00089BE00BF0000F87F491058BFC1F14041A7
:103A00005B1058BFC3F140438B42EFF30080704717
:103A10002DE9C04130B4DFF8A0C23CEA111418BF50
:103A20003CEA131400F0EC8081EA03051CEA11144F
:103A300044EAD57418BF1CEA131500F0C780A4EB44
:103A400005044FF0004545EAC12145EAC32341EA98
:103A5000505143EA525304F17F74994204F5003403
:103A60004FEAC0204FEAC22208BF904200F09C807B
:103A70004FEA13650FF24016765D4FEA134506FBD9
:103A800005F7C7F1807706FB07F74FEAD737A7FBA3
:103A900003687642C8F58038A7FB06CE38BFA8F188
:103AA000010807FB08E64FF0000EA6FB028CE6FBC0
:103AB00003CEDCF1000CCEF1004E38BFAEF1010EAA
:103AC000A6FB0C584FF000074FF00005E6FB0E87F1
:103AD000A1FB08C6A0FB07CE16EB0E0645F10005BC
:103AE000E1FB076515F1E04E7EBFA4F580345FEA87
:103AF00046066D4116F1800745F100054FEA17278C
:103B00004FEA066647EA0567A6F1DE46B6F1805F32
:103B10004FEA15251FD9384624F0010C05EBC47176
:103B2000BCF1FE6F01EB0C1102D8F0BCBDE80081C6
:103B300024425CBF01F5801E9EEAC47F02D4F0BC23
:103B4000BDE80081244238D4F0BCA1F1C041BDE8F9
:103B5000004100F055BA4FEAD22242EA43524FEAFE
:103B6000D323A7FB02864FEAD02040EA415007FB4F
:103B700003661EEA0E0F4FEAD12105FB026658BF0D
:103B8000A6EB0056B6EB00564FEA520E4EEAC37E45
:103B900018EB0E0E56EB530EBDD518EB02085E4126
:103BA0007F1C55F10005B6E74FF480154FF0000774
:103BB0004FF000064FF00008ADE7F0BC4FF00000FA
:103BC00001F1C04101F00041BDE8008111EA0C1F84
:103BD0000CEA131500D00CE013EA0C1F00F025804E
:103BE0004FF00000F0BC81EA030101F00041BDE8A4
:103BF0000081F0BCBDE8004181EA030100F000BA99
:103C0000F0BCBDE8004170B500F0ACF9097EFC3EA7
:103C100000F007B881EA03014FF0000001F0004115
:103C2000704781EA030100F0EBB9F0BCBDE8004148
:103C30004FF0000021497047FFFDFBF9F7F5F4F262
:103C4000F0EEEDEBE9E8E6E4E3E1E0DEDDDBDAD837
:103C5000D7D5D4D3D1D0CFCDCCCBCAC8C7C6C5C495
:103C6000C2C1C0BFBEBDBCBBBAB9B8B7B6B5B4B3AC
:103C7000B2B1B0AFAEADACABAAA9A8A8A7A6A5A497
:103C8000A3A3A2A1A09F9F9E9D9C9C9B9A9999985B
:103C90009797969595949393929191908F8F8E8EFE
:103CA0008D8C8C8B8B8A898988888787868585848B
:103CB00084838382828181800000FF070000F87F77
:103CC00051EA030C17D41CF5801F58BFBCF5801FA8
:103CD00000F10680994218BF704708BF90427047B4
:103CE00007D711F5801F58BF13F5801F19D49942CB
:103CF0007047894270471CF5801F08D5BCF5801FAE
:103D0000F7D58B4218BF704708BF824270474FF407
:103D1000001C1CEB410F38BF1CEB430F01D28B4240
:103D2000704770B500F01EF9922449004FF0005121
:103D30004FF08053FFF760BE4FEA41034FEA535301
:103D4000A3F58063D3F11E03C8BFD3F1210C0CDDB2
:103D50004FF0004242EAC12242EA505232FA03FCDA
:103D60008CEAE17CACEBE1707047102BC4BF002003
:103D7000704703F5787CBCF1FF3F04D06FF0004240
:103D800082EA2100704770B500F0ECF84992248077
:103D900000207047F2E7000051EA030C17D41CF52D
:103DA000801F58BFBCF5801F00F10680994218BFE4
:103DB000704708BF9042704707D711F5801F58BF62
:103DC00013F5801F19D499427047894270471CF53A
:103DD000801F08D5BCF5801FF7D58B4218BF7047F0
:103DE00008BF824270474FF4001C1CEB410F38BFE4
:103DF0001CEB430F01D28B42704770B500F0B2F854
:103E0000922449004FF000514FF08053FFF7F4BD6A
:103E1000DFF848C170B51CEA111E1EBF1CEA13155D
:103E20009EEA0C0F95EA0C0F00F06F8081EA030404
:103E300023EA4C134EEAD47E21EA4C1141F480115E
:103E400043F48013AE44A1FB024CA0FB0365AEF12A
:103E50007F7E361955EB0C05A1FB034C4CF100039A
:103E6000A0FB021C16EB0C06654153F1000309424E
:103E700018BF46F0010613F4007F0BD14FEA03315F
:103E80004FEA0530340341EA155140EA16506FF00D
:103E900003020AE04FEAC3214FEAC520F40241EAD7
:103EA000555140EA56506FF0020202EB2E4201EBF0
:103EB000025585EACE710AD05FEA440C18BF24F09F
:103EC000004450F1000041F1000120EAD47040F2BA
:103ED000FE7C624500D270BDA84214BF4FF0804402
:103EE0004FF04044002E08BF0024BEF1806FA8BFF1
:103EF000A1F1C041BDE8704080F282804FF0000027
:103F000001F1C04101F0004170479EEA0C0F0CEA3C
:103F1000131518BF95EA0C0F06D04FF0000081EA88
:103F2000030E0EF0004170BD00F01CF88900013E48
:103F300000F007B800F009B84FEA430C5FEA5C5C98
:103F400008D081EA030100F05BB84FEA410C5FEA58
:103F50005C5CF6D14FF00000014970470000FF079C
:103F60000000F87F0EF1020E2EF0030E5EF8046BD7
:103F7000364205D4012A43EB030515F5001F12D87C
:103F8000012841EB010C1CF5001F0CD80ED14FEAA3
:103F9000D17C15F5001F0CEB4C0C0CF1020C08BF8A
:103FA0004CEBD37C04E04FF0080C01E04FEAD37CEB
:103FB0000CEB4C0526FA05F606F00706B6F1040CE4
:103FC00006D20EEB860CBDE870404CF0010C604749
:103FD000DFE80CF0090B02024FF000414FF0000047
:103FE000A1F5002170BD19461046012851EB0104CE
:103FF00018BFD4F5001484BF002001F0004170BD4B
:104000000808A0F500114FEA3101704753EA010C8E
:1040100017D41CF5801F58BFBCF5801F00F1068027
:104020008B4218BF704708BF8242704707D713F50D
:10403000801F58BF11F5801F19D48B4270479B42D7
:1040400070471CF5801F08D5BCF5801FF7D5994235
:1040500018BF704708BF904270474FF4001C1CEB1C
:10406000430F38BF1CEB410F01D2994270470FB488
:104070000CBC03BCFFF7C1BE10B591EA030F48BFEB
:1040800083F000433FF510AC841A71EB030C07D2A8
:1040900012198CF0004C43EB0C03001B61EB0C017C
:1040A000DFF8A4E14FEA1154A4EB135C1EEA430FBE
:1040B00018BF9EEA445F00F0B08023EA6E035242CC
:1040C00021EA0451C3EB6E0338BF5B1EDCF1200E06
:1040D00025D322FA0CFE10EB0E0043FA0CFE41EB46
:1040E0000E01CCF1200E03FA0EFE10EB0E0051F182
:1040F0000001CCF1200E29D412FA0EF201EB04518A
:10410000BDE8104058BF7047401C1CBFB2F1004FC3
:10411000704700280CBF491C20F00100704712EBCB
:10412000020E43EB030218BF4FF0010E4EEA4202AB
:10413000ACF1200CDCF11E0E54D943FA0CFE10EB4E
:104140000E0051F1FF31CCF11E0ED5D50EF1010E4E
:1041500012FA0EFE404141EB010101EB445C5FEAC3
:104160005C5C10D910EBDE7001EB045138BFBEF17E
:10417000004FBDE8104018BF704700280CBF491C15
:1041800020F00100704730D24FEAD42C11F5001115
:1041900024F400641BD0B1FA81F20B3AA41AA41ED5
:1041A000D2F12003914030FA03F31943904001EB20
:1041B000CC71002C01EB0451BDE81040A8BF704742
:1041C00001F1C0414FF0000001F000417047B0FA2A
:1041D00080F310FA03F100D110BDE41A173C480532
:1041E000C90AE4E701EB045110BD491001EB045189
:1041F000BDE810404FEA300002E04FF00001704788
:104200004A0008BF0042F8D0B2F5001F28BF70472F
:1042100001F000414FF0000070479EEA445F07D074
:1042200011EA5E0FBDE8104004BF00210020704776
:10423000BDE8104070B5FFF795FE00BF40DFF63EC9
:1042400083F00041104670470000E0FF43004FEA52
:10425000D30C4FEA3C0C43401FBF40070CF16051A8
:1042600013F0FE4F70471CF0006F03D100200CF0DC
:10427000004170470CF0004343EA507010B540EA2B
:10428000CC0000F0BEF900BF000000924FEA000130
:10429000FFF7B6BE4FF000414FF00000A1F500213E
:1042A0007047401058BFC0F14040491058BFC1F19D
:1042B00040418142EFF30080704700004FF47F0CD3
:1042C0001CEAD0121EBF1CEAD11392EA0C0F93EA2B
:1042D0000C0F00F0858090EA010F48BF42F4807215
:1042E00040F4000C41F400002CF07F4120F07F40AE
:1042F00000B58142A2EB03020FF2081CACEB504E5A
:10430000C0F100009EF800E04FEA4E0E00FB0EFCEC
:1043100038BF49004FEA2C1C02F5FA020CFB0EF3E1
:104320004FEACE1E4FEA112C4FEAC1210EEB635E1D
:1043300042EB22420EFB0CFC4FEA1C5300FB031124
:104340004FEA112C4FEA01310EFB0CFC4FEADC4C1A
:1043500000FB0C11C14228BF09184CEB03335DF878
:1043600004EB10EB410143EBC250B2F57C0F38BFB8
:10437000704729D512F0F00F1CBF00F1C04000F0CB
:1043800000407047008182838485868788898B8C72
:104390008D8E8F919293959697999A9C9D9FA0A2AE
:1043A000A3A5A7A8AAACAEB0B2B3B5B7B9BCBEC0FE
:1043B000C2C5C7C9CCCED1D4D7D9DCDFE2E6E9EC9F
:1043C000F0F3F7FAFE0000004FEA400C0CF1807C9D
:1043D000BCF17E4F28BF7047B0F1C04000F057B924
:1043E00090EA010F0CEAD11348BF42F48072624593
:1043F00038BF634507D213F47F0F16D080EA01005F
:1044000000F00040704710B500F0FBF8097EFC3E5C
:1044100000F005B880EA010000F00040704780EA33
:10442000010000F0004000F032B912F47F0F04BF29
:104430000248704780EA010000F029B90000C07FFF
:1044400010F0004148BF4042B0FA80F310FA03F286
:10445000C3F19D030BD051EAC35101EB1220530667
:1044600038BF704700F1010008BF20F0010070471D
:10447000B0FA80F310FA03F2C3F19D030AD0D90514
:1044800001EB1220530638BF704700F1010008BF4E
:1044900020F001007047000050EA010C00F1138089
:1044A0001CF5000F58BFBCF5000F01D488427047BF
:1044B00007D710F5000F58BF11F5000F15D488422B
:1044C0007047894270471CF5000F04D5BCF5000FFA
:1044D000F7D5814270474FF0807C1CEB400F38BF0E
:1044E0001CEB410F01D28142704710B500F089F8F2
:1044F000922449004FF000504FF08051FFF7D1BE99
:104500004FF47F0C1CEAD0121EBF1CEAD11392EAB2
:104510000C0F93EA0C0F00F0478090EA010F48BFA0
:1045200042F480724FF0004C4CEA00204CEA01212A
:1045300002EB0302A0FB0113A2F50002002918BF41
:1045400043F001035B0028BF4FEA330342EB2242F2
:104550005FEA132C4CEBC2502EBFBCEB436FB2F59D
:104560007C0F70474FEA036CBCF1004F08BF20F08E
:104570000100B2F57C0F38BF70470BD582F0FF0207
:1045800012F5803FC8BF704700F1C040D8BF00F0AF
:104590000040704700F5000C5FEA4C0C48BF7047C4
:1045A000B0F1C04000F073B890EA010F0CEAD113EB
:1045B00048BF42F48072624538BF634504D280EA46
:1045C000010000F00040704710B500F01AF800BF7D
:1045D0008900013E00F007B800F009B85FEA410C1D
:1045E0005FEA1C6C08D080EA010000F050B85FEA76
:1045F000400C5FEA1C6CF6D14FF00040A0F5800043
:1046000070470EF1020E2EF0030E5EF8044B2442AA
:1046100004D44FEA4102B2F17F4F11D84FEA400370
:10462000B3F17F4F0CD80ED14FEAD07CB2F17F4F5F
:104630000CEB4C0C0CF1020C08BF4CEBD17C04E0F1
:104640004FF0080C01E04FEAD17C0CEB4C0324FA4C
:1046500003F404F00704B4F1040C06D20EEB840C4E
:10466000BDE810404CF0010C6047DFE80CF0070893
:1046700002024FF00040A0F5800010BD0846420045
:1046800018BFD2F1807288BF00F0004010BDFF213A
:1046900041EAD050C005704751EA000C00F1138088
:1046A0001CF5000F58BFBCF5000F01D481427047C4
:1046B00007D711F5000F58BF10F5000F15D4814230
:1046C0007047894270471CF5000F04D5BCF5000FF8
:1046D000F7D5884270474FF0807C1CEB410F38BF04
:1046E0001CEB400F01D28842704780EA010081EA4A
:1046F000000180EA0100FFF7F8BE4FF000007047AC
:10470000FBF70ABF0CF00F03092B08BF082000F0CD
:104710005F800A2B0BD0082B18BF704708BF1CF016
:10472000400F0AD04FF000004FF0000170471CF01E
:10473000400F18BF4FF0004070471CF0100F08D01A
:1047400020F0704300F07F4242EAD3014FEA437009
:10475000704700F0604021F07F4242EA000201F021
:104760007F4040EA727070474FF0FF0C4CF4E06CF1
:104770001CEA11531CBF9CEA030C9445C2BFDA42E9
:1047800001EB02517047002B0DD0BCF1000F0FD090
:10479000002A01F00041A4BF41F0E04141F07F61F7
:1047A0004FF00000704701F000414FF000007047EB
:1047B00050EA01334FF09B0C18BF4CF0806C7FF433
:1047C00013A97047FCF722B9FCF7ACBDFCF73ABF60
:1047D0001CF4801F11D01CF4E02F03D06FEACC3101
:1047E000490070474FF04050EFF3008222F07042D2
:1047F00042EA000282F3008870474FF000007047E1
:104800000000000000000000002F00000000070072
:10481000070000147F147F1400242A7F2A120062EC
:104820006408132300364955225000000503000098
:1048300000001C224100000041221C000014083E20
:1048400008140008083E0808000000A060000008E6
:10485000080808080000606000000020100804023A
:10486000003E5149453E0000427F400000426151F8
:104870004946002141454B31001814127F10002792
:1048800045454539003C4A49493000017109050355
:1048900000364949493600064949291E0000363686
:1048A00000000000563600000008142241000014E9
:1048B00014141414000041221408000201510906C6
:1048C00000324959513E007C1211127C007F494947
:1048D0004936003E41414122007F4141221C007F78
:1048E00049494941007F09090901003E4149497A86
:1048F000007F0808087F0000417F41000020404100
:104900003F01007F08142241007F40404040007F6B
:10491000020C027F007F0408107F003E4141413EAF
:10492000007F09090906003E4151215E007F0919F7
:1049300029460046494949310001017F0101003FF4
:104940004040403F001F2040201F003F4038403F74
:1049500000631408146300070870080700615149D8
:10496000454300007F41410000552A552A5500006B
:1049700041417F00000402010204004040404040E9
:10498000000001020400002054545478007F484481
:10499000443800384444442000384444487F0038B8
:1049A0005454541800087E0901020018A4A4A47CE1
:1049B000007F080404780000447D400000408084AB
:1049C0007D00007F102844000000417F4000007CF3
:1049D00004180478007C08040478003844444438FF
:1049E00000FC242424180018242418FC007C08044B
:1049F000040800485454542000043F444020003C24
:104A00004040207C001C2040201C003C4030403CAA
:104A1000004428102844001CA0A0A07C004464543A
:104A20004C4414141414141400000000000000007E
:104A30000000000000000000000000F8000000007E
:104A4000000000333000000000100C06100C0600BF
:104A5000000000000000000040C07840C078400026
:104A6000043F04043F040400007088FC0830000088
:104A7000001820FF211E0000F008F000E0180000E0
:104A800000211C031E211E0000F008887000000099
:104A90001E2123241927211010160E0000000000EB
:104AA0000000000000000000000000E01804020008
:104AB000000000071820400000020418E000000079
:104AC0000040201807000000404080F08040400077
:104AD0000202010F01020200000000F000000000CD
:104AE0000101011F010101000000000000000000A1
:104AF00080B0700000000000000000000000000016
:104B0000000101010101010100000000000000009E
:104B10000030300000000000000000008060180439
:104B2000006018060100000000E010080810E00016
:104B3000000F102020100F00001010F800000000DF
:104B40000020203F20200000007008080888700026
:104B500000302824222130000030088888483000A6
:104B60000018202020110E000000C02010F80000C6
:104B700000070424243F240000F80888880808005F
:104B80000019212020110E0000E010888818000074
:104B9000000F112020110E0000380808C838080046
:104BA0000000003F000000000070880808887000C6
:104BB000001C222121221C0000E010080810E00047
:104BC0000000312222110F00000000C0C0000000D0
:104BD00000000030300000000000008000000000F5
:104BE00000008060000000000000804020100800ED
:104BF00000010204081020004040404040404000B6
:104C00000404040404040400000810204080000090
:104C10000020100804020100007048080808F00095
:104C20000000003036010000C030C828E810E00065
:104C30000718272423140B000000C038E0000000F0
:104C4000203C23020227382008F88888887000005A
:104C5000203F202020110E00C0300808080838002E
:104C6000071820202010080008F808080810E000A5
:104C7000203F202020100F0008F88888E808100046
:104C8000203F20202320180008F88888E80810001A
:104C9000203F200003000000C03008080838000052
:104CA00007182020221E020008F808000008F80853
:104CB000203F210101213F20000808F808080000DA
:104CC0000020203F2020000000000808F80808000D
:104CD000C08080807F00000008F888C02818080085
:104CE000203F20012638200008F8080000000000BE
:104CF000203F20202020300008F8F800F8F80800B5
:104D0000203F003F003F200008F830C00008F808AE
:104D1000203F200007183F00E01008080810E000BE
:104D20000F10202020100F0008F808080808F000D5
:104D3000203F210101010000E01008080810E000F8
:104D40000F18242438504F0008F88888888870008D
:104D5000203F2000030C302000708808080838002D
:104D60000038202121221C00180808F80808180023
:104D70000000203F2000000008F808000008F808A4
:104D8000001F202020201F000878880000C8380855
:104D9000000007380E010000F80800F80008F800CD
:104DA000033C0700073C0300081868808068180867
:104DB00020302C03032C30200838C800C8380800E5
:104DC0000000203F2000000010080808C838080034
:104DD0002038262120201800000000FE02020200D8
:104DE0000000007F40404000000C30C00000000088
:104DF000000000010638C00000020202FE000000B0
:104E0000004040407F000000000004020202040055
:104E10000000000000000000000000000000000092
:104E2000808080808080808000020204000000007A
:104E30000000000000000000000080808080000072
:104E40000019242222223F2008F800808000000060
:104E5000003F112020110E00000000808080000023
:104E6000000E112020201100000000808088F80032
:104E7000000E112020103F20000080808080000064
:104E8000001F222222221300008080F088888818C8
:104E90000020203F202000000000808080808000D3
:104EA000006B94949493600008F800808080000068
:104EB000203F210000203F20008098980000000043
:104EC0000020203F20200000000000809898000073
:104ED00000C08080807F000008F800008080800093
:104EE000203F24022D302000000808F800000000B8
:104EF0000020203F20200000808080808080800073
:104F0000203F20003F20003F808000808080000004
:104F1000203F210000203F20000080808080000092
:104F2000001F202020201F008080008080000000C3
:104F300080FFA12020110E000000008080808000F2
:104F4000000E112020A0FF808080800080808000E3
:104F500020203F2120000100000080808080800010
:104F60000033242424241900008080E08080000085
:104F70000000001F202000008080000000808000D2
:104F8000001F202020103F20808080000080808033
:104F900000010E30080601008080008000808080C3
:104FA0000F300C030C300F000080800080808000E8
:104FB0000020312E0E312000808080000080808013
:104FC00080818E70180601000080808080808000C3
:104FD0000021302C2221300000000000807C0202E1
:104FE00000000000003F404000000000FF00000003
:104FF00000000000FF0000000002027C80000000B2
:105000000040403F000000000006010102020404CD
:10501000000000000000000002400000000000A0AE
:105020000000000005400000000000C80000000073
:105030000C4000000000409C0000000019400000EF
:105040000020BCBE0000000034400000BFC91B8E21
:1050500000000004B5400000504BCFD06607E2CFFF
:10506000010000006C4100003E8251AADFEEA7342F
:1050700001000000D9420000DCB5A0E23A301F97E1
:10508000FFFFFFFFB4450000FD25A0C8E9A3C14F05
:10509000FFFFFFFFFF3F0000000000800000000056
:1050A000FF3F0000000000800000000008520008E0
:1050B00000000020480000002801000850520008AD
:1050C00048000020B0060000440100080000000075
:1050D0000000F07FFFFFFFFFFFFFEF7F1C000000DD
:1050E00043000000F8FFFFFF0C0000000E0000006E
:1050F0000F0000002E00000010010000430000001F
:10510000F8FFFFFF004040404040404040404141E8
:10511000414141404040404040404040404040408C
:105120004040404040050202020202020202020226
:105130000202020202202020202020202020200223
:1051400002020202020290909090909010101010B3
:10515000101010101010101010101010101010104F
:1051600002020202020288888888888808080808E3
:1051700008080808080808080808080808080808AF
:1051800002020202400000000000000000000000D7
:10519000000000000000000000000000000000000F
:1051A00000000000000000000000000000000000FF
:1051B00000000000000000000000000000000000EF
:1051C00000000000000000000000000000000000DF
:1051D00000000000000000000000000000000000CF
:1051E00000000000000000000000000000000000BF
:1051F00000000000000000000000000000000000AF
:10520000000000000000000000A24A0400000000AE
:105210000000000001020304060708090000000066
:10522000000000000000000000000000000000007E
:10523000000000000000000000000000000000006E
:105240002D00000028000000000000000000000009
:04000005080000ED02
:00000001FF
